{
	"contracts/L63-Proxy-Contract.sol": {
		"Dev": {
			"abi": [
				{
					"inputs": [],
					"name": "selectors",
					"outputs": [
						{
							"internalType": "bytes4",
							"name": "",
							"type": "bytes4"
						},
						{
							"internalType": "bytes4",
							"name": "",
							"type": "bytes4"
						},
						{
							"internalType": "bytes4",
							"name": "",
							"type": "bytes4"
						}
					],
					"stateMutability": "view",
					"type": "function"
				}
			],
			"devdoc": {
				"kind": "dev",
				"methods": {},
				"version": 1
			},
			"evm": {
				"assembly": "    /* \"contracts/L63-Proxy-Contract.sol\":4515:4761  contract Dev {... */\n  mstore(0x40, 0x80)\n  callvalue\n  dup1\n  iszero\n  tag_1\n  jumpi\n  0x00\n  dup1\n  revert\ntag_1:\n  pop\n  dataSize(sub_0)\n  dup1\n  dataOffset(sub_0)\n  0x00\n  codecopy\n  0x00\n  return\nstop\n\nsub_0: assembly {\n        /* \"contracts/L63-Proxy-Contract.sol\":4515:4761  contract Dev {... */\n      mstore(0x40, 0x80)\n      callvalue\n      dup1\n      iszero\n      tag_1\n      jumpi\n      0x00\n      dup1\n      revert\n    tag_1:\n      pop\n      jumpi(tag_2, lt(calldatasize, 0x04))\n      shr(0xe0, calldataload(0x00))\n      dup1\n      0x6e25b978\n      eq\n      tag_3\n      jumpi\n    tag_2:\n      0x00\n      dup1\n      revert\n        /* \"contracts/L63-Proxy-Contract.sol\":4535:4758  function selectors() external view returns (bytes4, bytes4, bytes4) {... */\n    tag_3:\n      tag_4\n      tag_5\n      jump\t// in\n    tag_4:\n      mload(0x40)\n      tag_6\n      swap4\n      swap3\n      swap2\n      swap1\n      tag_7\n      jump\t// in\n    tag_6:\n      mload(0x40)\n      dup1\n      swap2\n      sub\n      swap1\n      return\n    tag_5:\n        /* \"contracts/L63-Proxy-Contract.sol\":4579:4585  bytes4 */\n      0x00\n        /* \"contracts/L63-Proxy-Contract.sol\":4587:4593  bytes4 */\n      dup1\n        /* \"contracts/L63-Proxy-Contract.sol\":4595:4601  bytes4 */\n      0x00\n        /* \"contracts/L63-Proxy-Contract.sol\":4636:4656  Proxy.admin.selector */\n      shl(0xe0, 0xf851a440)\n        /* \"contracts/L63-Proxy-Contract.sol\":4671:4700  Proxy.implementation.selector */\n      shl(0xe0, 0x5c60da1b)\n        /* \"contracts/L63-Proxy-Contract.sol\":4715:4739  Proxy.upgradeTo.selector */\n      shl(0xe0, 0x3659cfe6)\n        /* \"contracts/L63-Proxy-Contract.sol\":4614:4750  return (... */\n      swap3\n      pop\n      swap3\n      pop\n      swap3\n      pop\n        /* \"contracts/L63-Proxy-Contract.sol\":4535:4758  function selectors() external view returns (bytes4, bytes4, bytes4) {... */\n      swap1\n      swap2\n      swap3\n      jump\t// out\n        /* \"#utility.yul\":7:156   */\n    tag_9:\n        /* \"#utility.yul\":43:50   */\n      0x00\n        /* \"#utility.yul\":83:149   */\n      0xffffffff00000000000000000000000000000000000000000000000000000000\n        /* \"#utility.yul\":76:81   */\n      dup3\n        /* \"#utility.yul\":72:150   */\n      and\n        /* \"#utility.yul\":61:150   */\n      swap1\n      pop\n        /* \"#utility.yul\":7:156   */\n      swap2\n      swap1\n      pop\n      jump\t// out\n        /* \"#utility.yul\":162:277   */\n    tag_10:\n        /* \"#utility.yul\":247:270   */\n      tag_14\n        /* \"#utility.yul\":264:269   */\n      dup2\n        /* \"#utility.yul\":247:270   */\n      tag_9\n      jump\t// in\n    tag_14:\n        /* \"#utility.yul\":242:245   */\n      dup3\n        /* \"#utility.yul\":235:271   */\n      mstore\n        /* \"#utility.yul\":162:277   */\n      pop\n      pop\n      jump\t// out\n        /* \"#utility.yul\":283:713   */\n    tag_7:\n        /* \"#utility.yul\":426:430   */\n      0x00\n        /* \"#utility.yul\":464:466   */\n      0x60\n        /* \"#utility.yul\":453:462   */\n      dup3\n        /* \"#utility.yul\":449:467   */\n      add\n        /* \"#utility.yul\":441:467   */\n      swap1\n      pop\n        /* \"#utility.yul\":477:546   */\n      tag_16\n        /* \"#utility.yul\":543:544   */\n      0x00\n        /* \"#utility.yul\":532:541   */\n      dup4\n        /* \"#utility.yul\":528:545   */\n      add\n        /* \"#utility.yul\":519:525   */\n      dup7\n        /* \"#utility.yul\":477:546   */\n      tag_10\n      jump\t// in\n    tag_16:\n        /* \"#utility.yul\":556:626   */\n      tag_17\n        /* \"#utility.yul\":622:624   */\n      0x20\n        /* \"#utility.yul\":611:620   */\n      dup4\n        /* \"#utility.yul\":607:625   */\n      add\n        /* \"#utility.yul\":598:604   */\n      dup6\n        /* \"#utility.yul\":556:626   */\n      tag_10\n      jump\t// in\n    tag_17:\n        /* \"#utility.yul\":636:706   */\n      tag_18\n        /* \"#utility.yul\":702:704   */\n      0x40\n        /* \"#utility.yul\":691:700   */\n      dup4\n        /* \"#utility.yul\":687:705   */\n      add\n        /* \"#utility.yul\":678:684   */\n      dup5\n        /* \"#utility.yul\":636:706   */\n      tag_10\n      jump\t// in\n    tag_18:\n        /* \"#utility.yul\":283:713   */\n      swap5\n      swap4\n      pop\n      pop\n      pop\n      pop\n      jump\t// out\n\n    auxdata: 0xa264697066735822122046046e03e57095dd8f3a525a5964f572b6512744865663e9eac5aa711ec4dd7d64736f6c63430008120033\n}\n",
				"bytecode": {
					"linkReferences": {},
					"object": "608060405234801561001057600080fd5b50610111806100206000396000f3fe6080604052348015600f57600080fd5b506004361060285760003560e01c80636e25b97814602d575b600080fd5b60336049565b60405160409392919060aa565b60405180910390f35b600080600063f851a44060e01b635c60da1b60e01b633659cfe660e01b925092509250909192565b60007fffffffff0000000000000000000000000000000000000000000000000000000082169050919050565b60a4816071565b82525050565b600060608201905060bd6000830186609d565b60c86020830185609d565b60d36040830184609d565b94935050505056fea264697066735822122046046e03e57095dd8f3a525a5964f572b6512744865663e9eac5aa711ec4dd7d64736f6c63430008120033",
					"opcodes": "PUSH1 0x80 PUSH1 0x40 MSTORE CALLVALUE DUP1 ISZERO PUSH2 0x10 JUMPI PUSH1 0x0 DUP1 REVERT JUMPDEST POP PUSH2 0x111 DUP1 PUSH2 0x20 PUSH1 0x0 CODECOPY PUSH1 0x0 RETURN INVALID PUSH1 0x80 PUSH1 0x40 MSTORE CALLVALUE DUP1 ISZERO PUSH1 0xF JUMPI PUSH1 0x0 DUP1 REVERT JUMPDEST POP PUSH1 0x4 CALLDATASIZE LT PUSH1 0x28 JUMPI PUSH1 0x0 CALLDATALOAD PUSH1 0xE0 SHR DUP1 PUSH4 0x6E25B978 EQ PUSH1 0x2D JUMPI JUMPDEST PUSH1 0x0 DUP1 REVERT JUMPDEST PUSH1 0x33 PUSH1 0x49 JUMP JUMPDEST PUSH1 0x40 MLOAD PUSH1 0x40 SWAP4 SWAP3 SWAP2 SWAP1 PUSH1 0xAA JUMP JUMPDEST PUSH1 0x40 MLOAD DUP1 SWAP2 SUB SWAP1 RETURN JUMPDEST PUSH1 0x0 DUP1 PUSH1 0x0 PUSH4 0xF851A440 PUSH1 0xE0 SHL PUSH4 0x5C60DA1B PUSH1 0xE0 SHL PUSH4 0x3659CFE6 PUSH1 0xE0 SHL SWAP3 POP SWAP3 POP SWAP3 POP SWAP1 SWAP2 SWAP3 JUMP JUMPDEST PUSH1 0x0 PUSH32 0xFFFFFFFF00000000000000000000000000000000000000000000000000000000 DUP3 AND SWAP1 POP SWAP2 SWAP1 POP JUMP JUMPDEST PUSH1 0xA4 DUP2 PUSH1 0x71 JUMP JUMPDEST DUP3 MSTORE POP POP JUMP JUMPDEST PUSH1 0x0 PUSH1 0x60 DUP3 ADD SWAP1 POP PUSH1 0xBD PUSH1 0x0 DUP4 ADD DUP7 PUSH1 0x9D JUMP JUMPDEST PUSH1 0xC8 PUSH1 0x20 DUP4 ADD DUP6 PUSH1 0x9D JUMP JUMPDEST PUSH1 0xD3 PUSH1 0x40 DUP4 ADD DUP5 PUSH1 0x9D JUMP JUMPDEST SWAP5 SWAP4 POP POP POP POP JUMP INVALID LOG2 PUSH5 0x6970667358 0x22 SLT KECCAK256 CHAINID DIV PUSH15 0x3E57095DD8F3A525A5964F572B651 0x27 PREVRANDAO DUP7 JUMP PUSH4 0xE9EAC5AA PUSH18 0x1EC4DD7D64736F6C63430008120033000000 "
				},
				"gasEstimates": {
					"creation": {
						"codeDepositCost": "54600",
						"executionCost": "105",
						"totalCost": "54705"
					},
					"external": {
						"selectors()": "infinite"
					}
				},
				"methodIdentifiers": {
					"selectors()": "6e25b978"
				}
			},
			"storageLayout": {
				"storage": [],
				"types": null
			},
			"userdoc": {
				"kind": "user",
				"methods": {},
				"version": 1
			}
		}
	}
}