{
	"contracts/L63-Transparent-Proxy-Contract.sol": {
		"Proxy": {
			"abi": [
				{
					"inputs": [],
					"stateMutability": "nonpayable",
					"type": "constructor"
				},
				{
					"stateMutability": "payable",
					"type": "fallback"
				},
				{
					"inputs": [],
					"name": "admin",
					"outputs": [
						{
							"internalType": "address",
							"name": "",
							"type": "address"
						}
					],
					"stateMutability": "nonpayable",
					"type": "function"
				},
				{
					"inputs": [
						{
							"internalType": "address",
							"name": "_admin",
							"type": "address"
						}
					],
					"name": "changeAdmin",
					"outputs": [],
					"stateMutability": "nonpayable",
					"type": "function"
				},
				{
					"inputs": [],
					"name": "implementation",
					"outputs": [
						{
							"internalType": "address",
							"name": "",
							"type": "address"
						}
					],
					"stateMutability": "nonpayable",
					"type": "function"
				},
				{
					"inputs": [
						{
							"internalType": "uint256",
							"name": "slot",
							"type": "uint256"
						}
					],
					"name": "readStorageSlot",
					"outputs": [
						{
							"internalType": "bytes32",
							"name": "data",
							"type": "bytes32"
						}
					],
					"stateMutability": "view",
					"type": "function"
				},
				{
					"inputs": [
						{
							"internalType": "address",
							"name": "_implementation",
							"type": "address"
						}
					],
					"name": "upgradeTo",
					"outputs": [],
					"stateMutability": "nonpayable",
					"type": "function"
				},
				{
					"stateMutability": "payable",
					"type": "receive"
				}
			],
			"devdoc": {
				"kind": "dev",
				"methods": {},
				"version": 1
			},
			"evm": {
				"assembly": "    /* \"contracts/L63-Transparent-Proxy-Contract.sol\":4719:8786  contract Proxy {... */\n  mstore(0x40, 0x80)\n    /* \"contracts/L63-Transparent-Proxy-Contract.sol\":5227:5279  constructor() {... */\n  callvalue\n  dup1\n  iszero\n  tag_1\n  jumpi\n  0x00\n  dup1\n  revert\ntag_1:\n  pop\n    /* \"contracts/L63-Transparent-Proxy-Contract.sol\":5251:5272  _setAdmin(msg.sender) */\n  tag_4\n    /* \"contracts/L63-Transparent-Proxy-Contract.sol\":5261:5271  msg.sender */\n  caller\n    /* \"contracts/L63-Transparent-Proxy-Contract.sol\":5251:5260  _setAdmin */\n  shl(0x20, tag_5)\n    /* \"contracts/L63-Transparent-Proxy-Contract.sol\":5251:5272  _setAdmin(msg.sender) */\n  0x20\n  shr\n  jump\t// in\ntag_4:\n    /* \"contracts/L63-Transparent-Proxy-Contract.sol\":4719:8786  contract Proxy {... */\n  jump(tag_6)\n    /* \"contracts/L63-Transparent-Proxy-Contract.sol\":5772:5948  function _setAdmin(address _admin) private {... */\ntag_5:\n    /* \"contracts/L63-Transparent-Proxy-Contract.sol\":5851:5852  0 */\n  0x00\n    /* \"contracts/L63-Transparent-Proxy-Contract.sol\":5833:5853  _admin != address(0) */\n  0xffffffffffffffffffffffffffffffffffffffff\n  and\n    /* \"contracts/L63-Transparent-Proxy-Contract.sol\":5833:5839  _admin */\n  dup2\n    /* \"contracts/L63-Transparent-Proxy-Contract.sol\":5833:5853  _admin != address(0) */\n  0xffffffffffffffffffffffffffffffffffffffff\n  and\n  sub\n    /* \"contracts/L63-Transparent-Proxy-Contract.sol\":5825:5878  require(_admin != address(0), \"admin = zero address\") */\n  tag_8\n  jumpi\n  mload(0x40)\n  0x08c379a000000000000000000000000000000000000000000000000000000000\n  dup2\n  mstore\n  0x04\n  add\n  tag_9\n  swap1\n  tag_10\n  jump\t// in\ntag_9:\n  mload(0x40)\n  dup1\n  swap2\n  sub\n  swap1\n  revert\ntag_8:\n    /* \"contracts/L63-Transparent-Proxy-Contract.sol\":5935:5941  _admin */\n  dup1\n    /* \"contracts/L63-Transparent-Proxy-Contract.sol\":5888:5926  StorageSlot.getAddressSlot(ADMIN_SLOT) */\n  tag_11\n    /* \"contracts/L63-Transparent-Proxy-Contract.sol\":5218:5219  1 */\n  0x01\n    /* \"contracts/L63-Transparent-Proxy-Contract.sol\":5182:5214  keccak256(\"eip1967.proxy.admin\") */\n  0xb53127684a568b3173ae13b9f8a6016e243e63b6e8ee1178d6a717850b5d6104\n    /* \"contracts/L63-Transparent-Proxy-Contract.sol\":5177:5215  uint(keccak256(\"eip1967.proxy.admin\")) */\n  0x00\n  shr\n    /* \"contracts/L63-Transparent-Proxy-Contract.sol\":5177:5219  uint(keccak256(\"eip1967.proxy.admin\")) - 1 */\n  tag_12\n  swap2\n  swap1\n  tag_13\n  jump\t// in\ntag_12:\n    /* \"contracts/L63-Transparent-Proxy-Contract.sol\":5169:5220  bytes32(uint(keccak256(\"eip1967.proxy.admin\")) - 1) */\n  0x00\n  shl\n    /* \"contracts/L63-Transparent-Proxy-Contract.sol\":5888:5914  StorageSlot.getAddressSlot */\n  shl(0x20, tag_14)\n    /* \"contracts/L63-Transparent-Proxy-Contract.sol\":5888:5926  StorageSlot.getAddressSlot(ADMIN_SLOT) */\n  0x20\n  shr\n  jump\t// in\ntag_11:\n    /* \"contracts/L63-Transparent-Proxy-Contract.sol\":5888:5932  StorageSlot.getAddressSlot(ADMIN_SLOT).value */\n  0x00\n  add\n  0x00\n    /* \"contracts/L63-Transparent-Proxy-Contract.sol\":5888:5941  StorageSlot.getAddressSlot(ADMIN_SLOT).value = _admin */\n  0x0100\n  exp\n  dup2\n  sload\n  dup2\n  0xffffffffffffffffffffffffffffffffffffffff\n  mul\n  not\n  and\n  swap1\n  dup4\n  0xffffffffffffffffffffffffffffffffffffffff\n  and\n  mul\n  or\n  swap1\n  sstore\n  pop\n    /* \"contracts/L63-Transparent-Proxy-Contract.sol\":5772:5948  function _setAdmin(address _admin) private {... */\n  pop\n  jump\t// out\n    /* \"contracts/L63-Transparent-Proxy-Contract.sol\":10559:10720  function getAddressSlot(... */\ntag_14:\n    /* \"contracts/L63-Transparent-Proxy-Contract.sol\":10634:10655  AddressSlot storage r */\n  0x00\n    /* \"contracts/L63-Transparent-Proxy-Contract.sol\":10700:10704  slot */\n  dup2\n    /* \"contracts/L63-Transparent-Proxy-Contract.sol\":10690:10704  r.slot := slot */\n  swap1\n  pop\n    /* \"contracts/L63-Transparent-Proxy-Contract.sol\":10559:10720  function getAddressSlot(... */\n  swap2\n  swap1\n  pop\n  jump\t// out\n    /* \"#utility.yul\":7:176   */\ntag_16:\n    /* \"#utility.yul\":91:102   */\n  0x00\n    /* \"#utility.yul\":125:131   */\n  dup3\n    /* \"#utility.yul\":120:123   */\n  dup3\n    /* \"#utility.yul\":113:132   */\n  mstore\n    /* \"#utility.yul\":165:169   */\n  0x20\n    /* \"#utility.yul\":160:163   */\n  dup3\n    /* \"#utility.yul\":156:170   */\n  add\n    /* \"#utility.yul\":141:170   */\n  swap1\n  pop\n    /* \"#utility.yul\":7:176   */\n  swap3\n  swap2\n  pop\n  pop\n  jump\t// out\n    /* \"#utility.yul\":182:352   */\ntag_17:\n    /* \"#utility.yul\":322:344   */\n  0x61646d696e203d207a65726f2061646472657373000000000000000000000000\n    /* \"#utility.yul\":318:319   */\n  0x00\n    /* \"#utility.yul\":310:316   */\n  dup3\n    /* \"#utility.yul\":306:320   */\n  add\n    /* \"#utility.yul\":299:345   */\n  mstore\n    /* \"#utility.yul\":182:352   */\n  pop\n  jump\t// out\n    /* \"#utility.yul\":358:724   */\ntag_18:\n    /* \"#utility.yul\":500:503   */\n  0x00\n    /* \"#utility.yul\":521:588   */\n  tag_25\n    /* \"#utility.yul\":585:587   */\n  0x14\n    /* \"#utility.yul\":580:583   */\n  dup4\n    /* \"#utility.yul\":521:588   */\n  tag_16\n  jump\t// in\ntag_25:\n    /* \"#utility.yul\":514:588   */\n  swap2\n  pop\n    /* \"#utility.yul\":597:690   */\n  tag_26\n    /* \"#utility.yul\":686:689   */\n  dup3\n    /* \"#utility.yul\":597:690   */\n  tag_17\n  jump\t// in\ntag_26:\n    /* \"#utility.yul\":715:717   */\n  0x20\n    /* \"#utility.yul\":710:713   */\n  dup3\n    /* \"#utility.yul\":706:718   */\n  add\n    /* \"#utility.yul\":699:718   */\n  swap1\n  pop\n    /* \"#utility.yul\":358:724   */\n  swap2\n  swap1\n  pop\n  jump\t// out\n    /* \"#utility.yul\":730:1149   */\ntag_10:\n    /* \"#utility.yul\":896:900   */\n  0x00\n    /* \"#utility.yul\":934:936   */\n  0x20\n    /* \"#utility.yul\":923:932   */\n  dup3\n    /* \"#utility.yul\":919:937   */\n  add\n    /* \"#utility.yul\":911:937   */\n  swap1\n  pop\n    /* \"#utility.yul\":983:992   */\n  dup2\n    /* \"#utility.yul\":977:981   */\n  dup2\n    /* \"#utility.yul\":973:993   */\n  sub\n    /* \"#utility.yul\":969:970   */\n  0x00\n    /* \"#utility.yul\":958:967   */\n  dup4\n    /* \"#utility.yul\":954:971   */\n  add\n    /* \"#utility.yul\":947:994   */\n  mstore\n    /* \"#utility.yul\":1011:1142   */\n  tag_28\n    /* \"#utility.yul\":1137:1141   */\n  dup2\n    /* \"#utility.yul\":1011:1142   */\n  tag_18\n  jump\t// in\ntag_28:\n    /* \"#utility.yul\":1003:1142   */\n  swap1\n  pop\n    /* \"#utility.yul\":730:1149   */\n  swap2\n  swap1\n  pop\n  jump\t// out\n    /* \"#utility.yul\":1155:1232   */\ntag_19:\n    /* \"#utility.yul\":1192:1199   */\n  0x00\n    /* \"#utility.yul\":1221:1226   */\n  dup2\n    /* \"#utility.yul\":1210:1226   */\n  swap1\n  pop\n    /* \"#utility.yul\":1155:1232   */\n  swap2\n  swap1\n  pop\n  jump\t// out\n    /* \"#utility.yul\":1238:1418   */\ntag_20:\n    /* \"#utility.yul\":1286:1363   */\n  0x4e487b7100000000000000000000000000000000000000000000000000000000\n    /* \"#utility.yul\":1283:1284   */\n  0x00\n    /* \"#utility.yul\":1276:1364   */\n  mstore\n    /* \"#utility.yul\":1383:1387   */\n  0x11\n    /* \"#utility.yul\":1380:1381   */\n  0x04\n    /* \"#utility.yul\":1373:1388   */\n  mstore\n    /* \"#utility.yul\":1407:1411   */\n  0x24\n    /* \"#utility.yul\":1404:1405   */\n  0x00\n    /* \"#utility.yul\":1397:1412   */\n  revert\n    /* \"#utility.yul\":1424:1618   */\ntag_13:\n    /* \"#utility.yul\":1464:1468   */\n  0x00\n    /* \"#utility.yul\":1484:1504   */\n  tag_32\n    /* \"#utility.yul\":1502:1503   */\n  dup3\n    /* \"#utility.yul\":1484:1504   */\n  tag_19\n  jump\t// in\ntag_32:\n    /* \"#utility.yul\":1479:1504   */\n  swap2\n  pop\n    /* \"#utility.yul\":1518:1538   */\n  tag_33\n    /* \"#utility.yul\":1536:1537   */\n  dup4\n    /* \"#utility.yul\":1518:1538   */\n  tag_19\n  jump\t// in\ntag_33:\n    /* \"#utility.yul\":1513:1538   */\n  swap3\n  pop\n    /* \"#utility.yul\":1562:1563   */\n  dup3\n    /* \"#utility.yul\":1559:1560   */\n  dup3\n    /* \"#utility.yul\":1555:1564   */\n  sub\n    /* \"#utility.yul\":1547:1564   */\n  swap1\n  pop\n    /* \"#utility.yul\":1586:1587   */\n  dup2\n    /* \"#utility.yul\":1580:1584   */\n  dup2\n    /* \"#utility.yul\":1577:1588   */\n  gt\n    /* \"#utility.yul\":1574:1611   */\n  iszero\n  tag_34\n  jumpi\n    /* \"#utility.yul\":1591:1609   */\n  tag_35\n  tag_20\n  jump\t// in\ntag_35:\n    /* \"#utility.yul\":1574:1611   */\ntag_34:\n    /* \"#utility.yul\":1424:1618   */\n  swap3\n  swap2\n  pop\n  pop\n  jump\t// out\n    /* \"contracts/L63-Transparent-Proxy-Contract.sol\":4719:8786  contract Proxy {... */\ntag_6:\n  dataSize(sub_0)\n  dup1\n  dataOffset(sub_0)\n  0x00\n  codecopy\n  0x00\n  return\nstop\n\nsub_0: assembly {\n        /* \"contracts/L63-Transparent-Proxy-Contract.sol\":4719:8786  contract Proxy {... */\n      mstore(0x40, 0x80)\n      jumpi(tag_1, lt(calldatasize, 0x04))\n      shr(0xe0, calldataload(0x00))\n      dup1\n      0x2049450b\n      eq\n      tag_3\n      jumpi\n      dup1\n      0x3659cfe6\n      eq\n      tag_4\n      jumpi\n      dup1\n      0x5c60da1b\n      eq\n      tag_5\n      jumpi\n      dup1\n      0x8f283970\n      eq\n      tag_6\n      jumpi\n      dup1\n      0xf851a440\n      eq\n      tag_7\n      jumpi\n      jump(tag_2)\n    tag_1:\n      jumpi(tag_2, calldatasize)\n        /* \"contracts/L63-Transparent-Proxy-Contract.sol\":8766:8777  _fallback() */\n      tag_10\n        /* \"contracts/L63-Transparent-Proxy-Contract.sol\":8766:8775  _fallback */\n      tag_11\n        /* \"contracts/L63-Transparent-Proxy-Contract.sol\":8766:8777  _fallback() */\n      jump\t// in\n    tag_10:\n        /* \"contracts/L63-Transparent-Proxy-Contract.sol\":4719:8786  contract Proxy {... */\n      stop\n    tag_2:\n        /* \"contracts/L63-Transparent-Proxy-Contract.sol\":8705:8716  _fallback() */\n      tag_14\n        /* \"contracts/L63-Transparent-Proxy-Contract.sol\":8705:8714  _fallback */\n      tag_11\n        /* \"contracts/L63-Transparent-Proxy-Contract.sol\":8705:8716  _fallback() */\n      jump\t// in\n    tag_14:\n        /* \"contracts/L63-Transparent-Proxy-Contract.sol\":4719:8786  contract Proxy {... */\n      stop\n        /* \"contracts/L63-Transparent-Proxy-Contract.sol\":5425:5640  function readStorageSlot(uint256 slot) external view returns (bytes32 data) {... */\n    tag_3:\n      callvalue\n      dup1\n      iszero\n      tag_15\n      jumpi\n      0x00\n      dup1\n      revert\n    tag_15:\n      pop\n      tag_16\n      0x04\n      dup1\n      calldatasize\n      sub\n      dup2\n      add\n      swap1\n      tag_17\n      swap2\n      swap1\n      tag_18\n      jump\t// in\n    tag_17:\n      tag_19\n      jump\t// in\n    tag_16:\n      mload(0x40)\n      tag_20\n      swap2\n      swap1\n      tag_21\n      jump\t// in\n    tag_20:\n      mload(0x40)\n      dup1\n      swap2\n      sub\n      swap1\n      return\n        /* \"contracts/L63-Transparent-Proxy-Contract.sol\":6475:6588  function upgradeTo(address _implementation) external ifAdmin {... */\n    tag_4:\n      callvalue\n      dup1\n      iszero\n      tag_22\n      jumpi\n      0x00\n      dup1\n      revert\n    tag_22:\n      pop\n      tag_23\n      0x04\n      dup1\n      calldatasize\n      sub\n      dup2\n      add\n      swap1\n      tag_24\n      swap2\n      swap1\n      tag_25\n      jump\t// in\n    tag_24:\n      tag_26\n      jump\t// in\n    tag_23:\n      stop\n        /* \"contracts/L63-Transparent-Proxy-Contract.sol\":6723:6828  function implementation() external ifAdmin returns (address) {... */\n    tag_5:\n      callvalue\n      dup1\n      iszero\n      tag_27\n      jumpi\n      0x00\n      dup1\n      revert\n    tag_27:\n      pop\n      tag_28\n      tag_29\n      jump\t// in\n    tag_28:\n      mload(0x40)\n      tag_30\n      swap2\n      swap1\n      tag_31\n      jump\t// in\n    tag_30:\n      mload(0x40)\n      dup1\n      swap2\n      sub\n      swap1\n      return\n        /* \"contracts/L63-Transparent-Proxy-Contract.sol\":6363:6451  function changeAdmin(address _admin) external ifAdmin {... */\n    tag_6:\n      callvalue\n      dup1\n      iszero\n      tag_32\n      jumpi\n      0x00\n      dup1\n      revert\n    tag_32:\n      pop\n      tag_33\n      0x04\n      dup1\n      calldatasize\n      sub\n      dup2\n      add\n      swap1\n      tag_34\n      swap2\n      swap1\n      tag_25\n      jump\t// in\n    tag_34:\n      tag_35\n      jump\t// in\n    tag_33:\n      stop\n        /* \"contracts/L63-Transparent-Proxy-Contract.sol\":6612:6699  function admin() external ifAdmin returns (address) {... */\n    tag_7:\n      callvalue\n      dup1\n      iszero\n      tag_36\n      jumpi\n      0x00\n      dup1\n      revert\n    tag_36:\n      pop\n      tag_37\n      tag_38\n      jump\t// in\n    tag_37:\n      mload(0x40)\n      tag_39\n      swap2\n      swap1\n      tag_31\n      jump\t// in\n    tag_39:\n      mload(0x40)\n      dup1\n      swap2\n      sub\n      swap1\n      return\n        /* \"contracts/L63-Transparent-Proxy-Contract.sol\":8584:8661  function _fallback() private {... */\n    tag_11:\n        /* \"contracts/L63-Transparent-Proxy-Contract.sol\":8623:8654  _delegate(_getImplementation()) */\n      tag_41\n        /* \"contracts/L63-Transparent-Proxy-Contract.sol\":8633:8653  _getImplementation() */\n      tag_42\n        /* \"contracts/L63-Transparent-Proxy-Contract.sol\":8633:8651  _getImplementation */\n      tag_43\n        /* \"contracts/L63-Transparent-Proxy-Contract.sol\":8633:8653  _getImplementation() */\n      jump\t// in\n    tag_42:\n        /* \"contracts/L63-Transparent-Proxy-Contract.sol\":8623:8632  _delegate */\n      tag_44\n        /* \"contracts/L63-Transparent-Proxy-Contract.sol\":8623:8654  _delegate(_getImplementation()) */\n      jump\t// in\n    tag_41:\n        /* \"contracts/L63-Transparent-Proxy-Contract.sol\":8584:8661  function _fallback() private {... */\n      jump\t// out\n        /* \"contracts/L63-Transparent-Proxy-Contract.sol\":5425:5640  function readStorageSlot(uint256 slot) external view returns (bytes32 data) {... */\n    tag_19:\n        /* \"contracts/L63-Transparent-Proxy-Contract.sol\":5487:5499  bytes32 data */\n      0x00\n        /* \"contracts/L63-Transparent-Proxy-Contract.sol\":5619:5623  slot */\n      dup2\n        /* \"contracts/L63-Transparent-Proxy-Contract.sol\":5613:5624  sload(slot) */\n      sload\n        /* \"contracts/L63-Transparent-Proxy-Contract.sol\":5605:5624  data := sload(slot) */\n      swap1\n      pop\n        /* \"contracts/L63-Transparent-Proxy-Contract.sol\":5425:5640  function readStorageSlot(uint256 slot) external view returns (bytes32 data) {... */\n      swap2\n      swap1\n      pop\n      jump\t// out\n        /* \"contracts/L63-Transparent-Proxy-Contract.sol\":6475:6588  function upgradeTo(address _implementation) external ifAdmin {... */\n    tag_26:\n        /* \"contracts/L63-Transparent-Proxy-Contract.sol\":5332:5343  _getAdmin() */\n      tag_47\n        /* \"contracts/L63-Transparent-Proxy-Contract.sol\":5332:5341  _getAdmin */\n      tag_48\n        /* \"contracts/L63-Transparent-Proxy-Contract.sol\":5332:5343  _getAdmin() */\n      jump\t// in\n    tag_47:\n        /* \"contracts/L63-Transparent-Proxy-Contract.sol\":5318:5343  msg.sender == _getAdmin() */\n      0xffffffffffffffffffffffffffffffffffffffff\n      and\n        /* \"contracts/L63-Transparent-Proxy-Contract.sol\":5318:5328  msg.sender */\n      caller\n        /* \"contracts/L63-Transparent-Proxy-Contract.sol\":5318:5343  msg.sender == _getAdmin() */\n      0xffffffffffffffffffffffffffffffffffffffff\n      and\n      sub\n        /* \"contracts/L63-Transparent-Proxy-Contract.sol\":5314:5413  if (msg.sender == _getAdmin()) {... */\n      tag_49\n      jumpi\n        /* \"contracts/L63-Transparent-Proxy-Contract.sol\":6546:6581  _setImplementation(_implementation) */\n      tag_51\n        /* \"contracts/L63-Transparent-Proxy-Contract.sol\":6565:6580  _implementation */\n      dup2\n        /* \"contracts/L63-Transparent-Proxy-Contract.sol\":6546:6564  _setImplementation */\n      tag_52\n        /* \"contracts/L63-Transparent-Proxy-Contract.sol\":6546:6581  _setImplementation(_implementation) */\n      jump\t// in\n    tag_51:\n        /* \"contracts/L63-Transparent-Proxy-Contract.sol\":5314:5413  if (msg.sender == _getAdmin()) {... */\n      jump(tag_53)\n    tag_49:\n        /* \"contracts/L63-Transparent-Proxy-Contract.sol\":5391:5402  _fallback() */\n      tag_54\n        /* \"contracts/L63-Transparent-Proxy-Contract.sol\":5391:5400  _fallback */\n      tag_11\n        /* \"contracts/L63-Transparent-Proxy-Contract.sol\":5391:5402  _fallback() */\n      jump\t// in\n    tag_54:\n        /* \"contracts/L63-Transparent-Proxy-Contract.sol\":5314:5413  if (msg.sender == _getAdmin()) {... */\n    tag_53:\n        /* \"contracts/L63-Transparent-Proxy-Contract.sol\":6475:6588  function upgradeTo(address _implementation) external ifAdmin {... */\n      pop\n      jump\t// out\n        /* \"contracts/L63-Transparent-Proxy-Contract.sol\":6723:6828  function implementation() external ifAdmin returns (address) {... */\n    tag_29:\n        /* \"contracts/L63-Transparent-Proxy-Contract.sol\":6775:6782  address */\n      0x00\n        /* \"contracts/L63-Transparent-Proxy-Contract.sol\":5332:5343  _getAdmin() */\n      tag_56\n        /* \"contracts/L63-Transparent-Proxy-Contract.sol\":5332:5341  _getAdmin */\n      tag_48\n        /* \"contracts/L63-Transparent-Proxy-Contract.sol\":5332:5343  _getAdmin() */\n      jump\t// in\n    tag_56:\n        /* \"contracts/L63-Transparent-Proxy-Contract.sol\":5318:5343  msg.sender == _getAdmin() */\n      0xffffffffffffffffffffffffffffffffffffffff\n      and\n        /* \"contracts/L63-Transparent-Proxy-Contract.sol\":5318:5328  msg.sender */\n      caller\n        /* \"contracts/L63-Transparent-Proxy-Contract.sol\":5318:5343  msg.sender == _getAdmin() */\n      0xffffffffffffffffffffffffffffffffffffffff\n      and\n      sub\n        /* \"contracts/L63-Transparent-Proxy-Contract.sol\":5314:5413  if (msg.sender == _getAdmin()) {... */\n      tag_57\n      jumpi\n        /* \"contracts/L63-Transparent-Proxy-Contract.sol\":6801:6821  _getImplementation() */\n      tag_59\n        /* \"contracts/L63-Transparent-Proxy-Contract.sol\":6801:6819  _getImplementation */\n      tag_43\n        /* \"contracts/L63-Transparent-Proxy-Contract.sol\":6801:6821  _getImplementation() */\n      jump\t// in\n    tag_59:\n        /* \"contracts/L63-Transparent-Proxy-Contract.sol\":6794:6821  return _getImplementation() */\n      swap1\n      pop\n        /* \"contracts/L63-Transparent-Proxy-Contract.sol\":5314:5413  if (msg.sender == _getAdmin()) {... */\n      jump(tag_60)\n    tag_57:\n        /* \"contracts/L63-Transparent-Proxy-Contract.sol\":5391:5402  _fallback() */\n      tag_61\n        /* \"contracts/L63-Transparent-Proxy-Contract.sol\":5391:5400  _fallback */\n      tag_11\n        /* \"contracts/L63-Transparent-Proxy-Contract.sol\":5391:5402  _fallback() */\n      jump\t// in\n    tag_61:\n        /* \"contracts/L63-Transparent-Proxy-Contract.sol\":5314:5413  if (msg.sender == _getAdmin()) {... */\n    tag_60:\n        /* \"contracts/L63-Transparent-Proxy-Contract.sol\":6723:6828  function implementation() external ifAdmin returns (address) {... */\n      swap1\n      jump\t// out\n        /* \"contracts/L63-Transparent-Proxy-Contract.sol\":6363:6451  function changeAdmin(address _admin) external ifAdmin {... */\n    tag_35:\n        /* \"contracts/L63-Transparent-Proxy-Contract.sol\":5332:5343  _getAdmin() */\n      tag_63\n        /* \"contracts/L63-Transparent-Proxy-Contract.sol\":5332:5341  _getAdmin */\n      tag_48\n        /* \"contracts/L63-Transparent-Proxy-Contract.sol\":5332:5343  _getAdmin() */\n      jump\t// in\n    tag_63:\n        /* \"contracts/L63-Transparent-Proxy-Contract.sol\":5318:5343  msg.sender == _getAdmin() */\n      0xffffffffffffffffffffffffffffffffffffffff\n      and\n        /* \"contracts/L63-Transparent-Proxy-Contract.sol\":5318:5328  msg.sender */\n      caller\n        /* \"contracts/L63-Transparent-Proxy-Contract.sol\":5318:5343  msg.sender == _getAdmin() */\n      0xffffffffffffffffffffffffffffffffffffffff\n      and\n      sub\n        /* \"contracts/L63-Transparent-Proxy-Contract.sol\":5314:5413  if (msg.sender == _getAdmin()) {... */\n      tag_64\n      jumpi\n        /* \"contracts/L63-Transparent-Proxy-Contract.sol\":6427:6444  _setAdmin(_admin) */\n      tag_66\n        /* \"contracts/L63-Transparent-Proxy-Contract.sol\":6437:6443  _admin */\n      dup2\n        /* \"contracts/L63-Transparent-Proxy-Contract.sol\":6427:6436  _setAdmin */\n      tag_67\n        /* \"contracts/L63-Transparent-Proxy-Contract.sol\":6427:6444  _setAdmin(_admin) */\n      jump\t// in\n    tag_66:\n        /* \"contracts/L63-Transparent-Proxy-Contract.sol\":5314:5413  if (msg.sender == _getAdmin()) {... */\n      jump(tag_68)\n    tag_64:\n        /* \"contracts/L63-Transparent-Proxy-Contract.sol\":5391:5402  _fallback() */\n      tag_69\n        /* \"contracts/L63-Transparent-Proxy-Contract.sol\":5391:5400  _fallback */\n      tag_11\n        /* \"contracts/L63-Transparent-Proxy-Contract.sol\":5391:5402  _fallback() */\n      jump\t// in\n    tag_69:\n        /* \"contracts/L63-Transparent-Proxy-Contract.sol\":5314:5413  if (msg.sender == _getAdmin()) {... */\n    tag_68:\n        /* \"contracts/L63-Transparent-Proxy-Contract.sol\":6363:6451  function changeAdmin(address _admin) external ifAdmin {... */\n      pop\n      jump\t// out\n        /* \"contracts/L63-Transparent-Proxy-Contract.sol\":6612:6699  function admin() external ifAdmin returns (address) {... */\n    tag_38:\n        /* \"contracts/L63-Transparent-Proxy-Contract.sol\":6655:6662  address */\n      0x00\n        /* \"contracts/L63-Transparent-Proxy-Contract.sol\":5332:5343  _getAdmin() */\n      tag_71\n        /* \"contracts/L63-Transparent-Proxy-Contract.sol\":5332:5341  _getAdmin */\n      tag_48\n        /* \"contracts/L63-Transparent-Proxy-Contract.sol\":5332:5343  _getAdmin() */\n      jump\t// in\n    tag_71:\n        /* \"contracts/L63-Transparent-Proxy-Contract.sol\":5318:5343  msg.sender == _getAdmin() */\n      0xffffffffffffffffffffffffffffffffffffffff\n      and\n        /* \"contracts/L63-Transparent-Proxy-Contract.sol\":5318:5328  msg.sender */\n      caller\n        /* \"contracts/L63-Transparent-Proxy-Contract.sol\":5318:5343  msg.sender == _getAdmin() */\n      0xffffffffffffffffffffffffffffffffffffffff\n      and\n      sub\n        /* \"contracts/L63-Transparent-Proxy-Contract.sol\":5314:5413  if (msg.sender == _getAdmin()) {... */\n      tag_72\n      jumpi\n        /* \"contracts/L63-Transparent-Proxy-Contract.sol\":6681:6692  _getAdmin() */\n      tag_74\n        /* \"contracts/L63-Transparent-Proxy-Contract.sol\":6681:6690  _getAdmin */\n      tag_48\n        /* \"contracts/L63-Transparent-Proxy-Contract.sol\":6681:6692  _getAdmin() */\n      jump\t// in\n    tag_74:\n        /* \"contracts/L63-Transparent-Proxy-Contract.sol\":6674:6692  return _getAdmin() */\n      swap1\n      pop\n        /* \"contracts/L63-Transparent-Proxy-Contract.sol\":5314:5413  if (msg.sender == _getAdmin()) {... */\n      jump(tag_75)\n    tag_72:\n        /* \"contracts/L63-Transparent-Proxy-Contract.sol\":5391:5402  _fallback() */\n      tag_76\n        /* \"contracts/L63-Transparent-Proxy-Contract.sol\":5391:5400  _fallback */\n      tag_11\n        /* \"contracts/L63-Transparent-Proxy-Contract.sol\":5391:5402  _fallback() */\n      jump\t// in\n    tag_76:\n        /* \"contracts/L63-Transparent-Proxy-Contract.sol\":5314:5413  if (msg.sender == _getAdmin()) {... */\n    tag_75:\n        /* \"contracts/L63-Transparent-Proxy-Contract.sol\":6612:6699  function admin() external ifAdmin returns (address) {... */\n      swap1\n      jump\t// out\n        /* \"contracts/L63-Transparent-Proxy-Contract.sol\":5954:6092  function _getImplementation() private view returns (address) {... */\n    tag_43:\n        /* \"contracts/L63-Transparent-Proxy-Contract.sol\":6006:6013  address */\n      0x00\n        /* \"contracts/L63-Transparent-Proxy-Contract.sol\":6032:6079  StorageSlot.getAddressSlot(IMPLEMENTATION_SLOT) */\n      tag_78\n        /* \"contracts/L63-Transparent-Proxy-Contract.sol\":5041:5042  1 */\n      0x01\n        /* \"contracts/L63-Transparent-Proxy-Contract.sol\":4996:5037  keccak256(\"eip1967.proxy.implementation\") */\n      0x360894a13ba1a3210667c828492db98dca3e2076cc3735a920a3ca505d382bbd\n        /* \"contracts/L63-Transparent-Proxy-Contract.sol\":4991:5038  uint(keccak256(\"eip1967.proxy.implementation\")) */\n      0x00\n      shr\n        /* \"contracts/L63-Transparent-Proxy-Contract.sol\":4991:5042  uint(keccak256(\"eip1967.proxy.implementation\")) - 1 */\n      tag_79\n      swap2\n      swap1\n      tag_80\n      jump\t// in\n    tag_79:\n        /* \"contracts/L63-Transparent-Proxy-Contract.sol\":4983:5043  bytes32(uint(keccak256(\"eip1967.proxy.implementation\")) - 1) */\n      0x00\n      shl\n        /* \"contracts/L63-Transparent-Proxy-Contract.sol\":6032:6058  StorageSlot.getAddressSlot */\n      tag_81\n        /* \"contracts/L63-Transparent-Proxy-Contract.sol\":6032:6079  StorageSlot.getAddressSlot(IMPLEMENTATION_SLOT) */\n      jump\t// in\n    tag_78:\n        /* \"contracts/L63-Transparent-Proxy-Contract.sol\":6032:6085  StorageSlot.getAddressSlot(IMPLEMENTATION_SLOT).value */\n      0x00\n      add\n      0x00\n      swap1\n      sload\n      swap1\n      0x0100\n      exp\n      swap1\n      div\n      0xffffffffffffffffffffffffffffffffffffffff\n      and\n        /* \"contracts/L63-Transparent-Proxy-Contract.sol\":6025:6085  return StorageSlot.getAddressSlot(IMPLEMENTATION_SLOT).value */\n      swap1\n      pop\n        /* \"contracts/L63-Transparent-Proxy-Contract.sol\":5954:6092  function _getImplementation() private view returns (address) {... */\n      swap1\n      jump\t// out\n        /* \"contracts/L63-Transparent-Proxy-Contract.sol\":6859:8578  function _delegate(address _implementation) internal virtual {... */\n    tag_44:\n        /* \"contracts/L63-Transparent-Proxy-Contract.sol\":7359:7373  calldatasize() */\n      calldatasize\n        /* \"contracts/L63-Transparent-Proxy-Contract.sol\":7356:7357  0 */\n      0x00\n        /* \"contracts/L63-Transparent-Proxy-Contract.sol\":7353:7354  0 */\n      dup1\n        /* \"contracts/L63-Transparent-Proxy-Contract.sol\":7340:7374  calldatacopy(0, 0, calldatasize()) */\n      calldatacopy\n        /* \"contracts/L63-Transparent-Proxy-Contract.sol\":7894:7895  0 */\n      0x00\n        /* \"contracts/L63-Transparent-Proxy-Contract.sol\":7891:7892  0 */\n      dup1\n        /* \"contracts/L63-Transparent-Proxy-Contract.sol\":7875:7889  calldatasize() */\n      calldatasize\n        /* \"contracts/L63-Transparent-Proxy-Contract.sol\":7872:7873  0 */\n      0x00\n        /* \"contracts/L63-Transparent-Proxy-Contract.sol\":7855:7870  _implementation */\n      dup5\n        /* \"contracts/L63-Transparent-Proxy-Contract.sol\":7848:7853  gas() */\n      gas\n        /* \"contracts/L63-Transparent-Proxy-Contract.sol\":7835:7896  delegatecall(gas(), _implementation, 0, calldatasize(), 0, 0) */\n      delegatecall\n        /* \"contracts/L63-Transparent-Proxy-Contract.sol\":8137:8153  returndatasize() */\n      returndatasize\n        /* \"contracts/L63-Transparent-Proxy-Contract.sol\":8134:8135  0 */\n      0x00\n        /* \"contracts/L63-Transparent-Proxy-Contract.sol\":8131:8132  0 */\n      dup1\n        /* \"contracts/L63-Transparent-Proxy-Contract.sol\":8116:8154  returndatacopy(0, 0, returndatasize()) */\n      returndatacopy\n        /* \"contracts/L63-Transparent-Proxy-Contract.sol\":8175:8181  result */\n      dup1\n        /* \"contracts/L63-Transparent-Proxy-Contract.sol\":8247:8248  0 */\n      0x00\n        /* \"contracts/L63-Transparent-Proxy-Contract.sol\":8242:8406  case 0 {... */\n      dup2\n      eq\n      tag_84\n      jumpi\n        /* \"contracts/L63-Transparent-Proxy-Contract.sol\":8531:8547  returndatasize() */\n      returndatasize\n        /* \"contracts/L63-Transparent-Proxy-Contract.sol\":8528:8529  0 */\n      0x00\n        /* \"contracts/L63-Transparent-Proxy-Contract.sol\":8521:8548  return(0, returndatasize()) */\n      return\n        /* \"contracts/L63-Transparent-Proxy-Contract.sol\":8242:8406  case 0 {... */\n    tag_84:\n        /* \"contracts/L63-Transparent-Proxy-Contract.sol\":8375:8391  returndatasize() */\n      returndatasize\n        /* \"contracts/L63-Transparent-Proxy-Contract.sol\":8372:8373  0 */\n      0x00\n        /* \"contracts/L63-Transparent-Proxy-Contract.sol\":8365:8392  revert(0, returndatasize()) */\n      revert\n        /* \"contracts/L63-Transparent-Proxy-Contract.sol\":5646:5766  function _getAdmin() private view returns (address) {... */\n    tag_48:\n        /* \"contracts/L63-Transparent-Proxy-Contract.sol\":5689:5696  address */\n      0x00\n        /* \"contracts/L63-Transparent-Proxy-Contract.sol\":5715:5753  StorageSlot.getAddressSlot(ADMIN_SLOT) */\n      tag_86\n        /* \"contracts/L63-Transparent-Proxy-Contract.sol\":5218:5219  1 */\n      0x01\n        /* \"contracts/L63-Transparent-Proxy-Contract.sol\":5182:5214  keccak256(\"eip1967.proxy.admin\") */\n      0xb53127684a568b3173ae13b9f8a6016e243e63b6e8ee1178d6a717850b5d6104\n        /* \"contracts/L63-Transparent-Proxy-Contract.sol\":5177:5215  uint(keccak256(\"eip1967.proxy.admin\")) */\n      0x00\n      shr\n        /* \"contracts/L63-Transparent-Proxy-Contract.sol\":5177:5219  uint(keccak256(\"eip1967.proxy.admin\")) - 1 */\n      tag_87\n      swap2\n      swap1\n      tag_80\n      jump\t// in\n    tag_87:\n        /* \"contracts/L63-Transparent-Proxy-Contract.sol\":5169:5220  bytes32(uint(keccak256(\"eip1967.proxy.admin\")) - 1) */\n      0x00\n      shl\n        /* \"contracts/L63-Transparent-Proxy-Contract.sol\":5715:5741  StorageSlot.getAddressSlot */\n      tag_81\n        /* \"contracts/L63-Transparent-Proxy-Contract.sol\":5715:5753  StorageSlot.getAddressSlot(ADMIN_SLOT) */\n      jump\t// in\n    tag_86:\n        /* \"contracts/L63-Transparent-Proxy-Contract.sol\":5715:5759  StorageSlot.getAddressSlot(ADMIN_SLOT).value */\n      0x00\n      add\n      0x00\n      swap1\n      sload\n      swap1\n      0x0100\n      exp\n      swap1\n      div\n      0xffffffffffffffffffffffffffffffffffffffff\n      and\n        /* \"contracts/L63-Transparent-Proxy-Contract.sol\":5708:5759  return StorageSlot.getAddressSlot(ADMIN_SLOT).value */\n      swap1\n      pop\n        /* \"contracts/L63-Transparent-Proxy-Contract.sol\":5646:5766  function _getAdmin() private view returns (address) {... */\n      swap1\n      jump\t// out\n        /* \"contracts/L63-Transparent-Proxy-Contract.sol\":6098:6331  function _setImplementation(address _implementation) private {... */\n    tag_52:\n        /* \"contracts/L63-Transparent-Proxy-Contract.sol\":6207:6208  0 */\n      0x00\n        /* \"contracts/L63-Transparent-Proxy-Contract.sol\":6177:6192  _implementation */\n      dup2\n        /* \"contracts/L63-Transparent-Proxy-Contract.sol\":6177:6204  _implementation.code.length */\n      0xffffffffffffffffffffffffffffffffffffffff\n      and\n      extcodesize\n        /* \"contracts/L63-Transparent-Proxy-Contract.sol\":6177:6208  _implementation.code.length > 0 */\n      gt\n        /* \"contracts/L63-Transparent-Proxy-Contract.sol\":6169:6243  require(_implementation.code.length > 0, \"implementation is not contract\") */\n      tag_89\n      jumpi\n      mload(0x40)\n      0x08c379a000000000000000000000000000000000000000000000000000000000\n      dup2\n      mstore\n      0x04\n      add\n      tag_90\n      swap1\n      tag_91\n      jump\t// in\n    tag_90:\n      mload(0x40)\n      dup1\n      swap2\n      sub\n      swap1\n      revert\n    tag_89:\n        /* \"contracts/L63-Transparent-Proxy-Contract.sol\":6309:6324  _implementation */\n      dup1\n        /* \"contracts/L63-Transparent-Proxy-Contract.sol\":6253:6300  StorageSlot.getAddressSlot(IMPLEMENTATION_SLOT) */\n      tag_92\n        /* \"contracts/L63-Transparent-Proxy-Contract.sol\":5041:5042  1 */\n      0x01\n        /* \"contracts/L63-Transparent-Proxy-Contract.sol\":4996:5037  keccak256(\"eip1967.proxy.implementation\") */\n      0x360894a13ba1a3210667c828492db98dca3e2076cc3735a920a3ca505d382bbd\n        /* \"contracts/L63-Transparent-Proxy-Contract.sol\":4991:5038  uint(keccak256(\"eip1967.proxy.implementation\")) */\n      0x00\n      shr\n        /* \"contracts/L63-Transparent-Proxy-Contract.sol\":4991:5042  uint(keccak256(\"eip1967.proxy.implementation\")) - 1 */\n      tag_93\n      swap2\n      swap1\n      tag_80\n      jump\t// in\n    tag_93:\n        /* \"contracts/L63-Transparent-Proxy-Contract.sol\":4983:5043  bytes32(uint(keccak256(\"eip1967.proxy.implementation\")) - 1) */\n      0x00\n      shl\n        /* \"contracts/L63-Transparent-Proxy-Contract.sol\":6253:6279  StorageSlot.getAddressSlot */\n      tag_81\n        /* \"contracts/L63-Transparent-Proxy-Contract.sol\":6253:6300  StorageSlot.getAddressSlot(IMPLEMENTATION_SLOT) */\n      jump\t// in\n    tag_92:\n        /* \"contracts/L63-Transparent-Proxy-Contract.sol\":6253:6306  StorageSlot.getAddressSlot(IMPLEMENTATION_SLOT).value */\n      0x00\n      add\n      0x00\n        /* \"contracts/L63-Transparent-Proxy-Contract.sol\":6253:6324  StorageSlot.getAddressSlot(IMPLEMENTATION_SLOT).value = _implementation */\n      0x0100\n      exp\n      dup2\n      sload\n      dup2\n      0xffffffffffffffffffffffffffffffffffffffff\n      mul\n      not\n      and\n      swap1\n      dup4\n      0xffffffffffffffffffffffffffffffffffffffff\n      and\n      mul\n      or\n      swap1\n      sstore\n      pop\n        /* \"contracts/L63-Transparent-Proxy-Contract.sol\":6098:6331  function _setImplementation(address _implementation) private {... */\n      pop\n      jump\t// out\n        /* \"contracts/L63-Transparent-Proxy-Contract.sol\":5772:5948  function _setAdmin(address _admin) private {... */\n    tag_67:\n        /* \"contracts/L63-Transparent-Proxy-Contract.sol\":5851:5852  0 */\n      0x00\n        /* \"contracts/L63-Transparent-Proxy-Contract.sol\":5833:5853  _admin != address(0) */\n      0xffffffffffffffffffffffffffffffffffffffff\n      and\n        /* \"contracts/L63-Transparent-Proxy-Contract.sol\":5833:5839  _admin */\n      dup2\n        /* \"contracts/L63-Transparent-Proxy-Contract.sol\":5833:5853  _admin != address(0) */\n      0xffffffffffffffffffffffffffffffffffffffff\n      and\n      sub\n        /* \"contracts/L63-Transparent-Proxy-Contract.sol\":5825:5878  require(_admin != address(0), \"admin = zero address\") */\n      tag_95\n      jumpi\n      mload(0x40)\n      0x08c379a000000000000000000000000000000000000000000000000000000000\n      dup2\n      mstore\n      0x04\n      add\n      tag_96\n      swap1\n      tag_97\n      jump\t// in\n    tag_96:\n      mload(0x40)\n      dup1\n      swap2\n      sub\n      swap1\n      revert\n    tag_95:\n        /* \"contracts/L63-Transparent-Proxy-Contract.sol\":5935:5941  _admin */\n      dup1\n        /* \"contracts/L63-Transparent-Proxy-Contract.sol\":5888:5926  StorageSlot.getAddressSlot(ADMIN_SLOT) */\n      tag_98\n        /* \"contracts/L63-Transparent-Proxy-Contract.sol\":5218:5219  1 */\n      0x01\n        /* \"contracts/L63-Transparent-Proxy-Contract.sol\":5182:5214  keccak256(\"eip1967.proxy.admin\") */\n      0xb53127684a568b3173ae13b9f8a6016e243e63b6e8ee1178d6a717850b5d6104\n        /* \"contracts/L63-Transparent-Proxy-Contract.sol\":5177:5215  uint(keccak256(\"eip1967.proxy.admin\")) */\n      0x00\n      shr\n        /* \"contracts/L63-Transparent-Proxy-Contract.sol\":5177:5219  uint(keccak256(\"eip1967.proxy.admin\")) - 1 */\n      tag_99\n      swap2\n      swap1\n      tag_80\n      jump\t// in\n    tag_99:\n        /* \"contracts/L63-Transparent-Proxy-Contract.sol\":5169:5220  bytes32(uint(keccak256(\"eip1967.proxy.admin\")) - 1) */\n      0x00\n      shl\n        /* \"contracts/L63-Transparent-Proxy-Contract.sol\":5888:5914  StorageSlot.getAddressSlot */\n      tag_81\n        /* \"contracts/L63-Transparent-Proxy-Contract.sol\":5888:5926  StorageSlot.getAddressSlot(ADMIN_SLOT) */\n      jump\t// in\n    tag_98:\n        /* \"contracts/L63-Transparent-Proxy-Contract.sol\":5888:5932  StorageSlot.getAddressSlot(ADMIN_SLOT).value */\n      0x00\n      add\n      0x00\n        /* \"contracts/L63-Transparent-Proxy-Contract.sol\":5888:5941  StorageSlot.getAddressSlot(ADMIN_SLOT).value = _admin */\n      0x0100\n      exp\n      dup2\n      sload\n      dup2\n      0xffffffffffffffffffffffffffffffffffffffff\n      mul\n      not\n      and\n      swap1\n      dup4\n      0xffffffffffffffffffffffffffffffffffffffff\n      and\n      mul\n      or\n      swap1\n      sstore\n      pop\n        /* \"contracts/L63-Transparent-Proxy-Contract.sol\":5772:5948  function _setAdmin(address _admin) private {... */\n      pop\n      jump\t// out\n        /* \"contracts/L63-Transparent-Proxy-Contract.sol\":10559:10720  function getAddressSlot(... */\n    tag_81:\n        /* \"contracts/L63-Transparent-Proxy-Contract.sol\":10634:10655  AddressSlot storage r */\n      0x00\n        /* \"contracts/L63-Transparent-Proxy-Contract.sol\":10700:10704  slot */\n      dup2\n        /* \"contracts/L63-Transparent-Proxy-Contract.sol\":10690:10704  r.slot := slot */\n      swap1\n      pop\n        /* \"contracts/L63-Transparent-Proxy-Contract.sol\":10559:10720  function getAddressSlot(... */\n      swap2\n      swap1\n      pop\n      jump\t// out\n        /* \"#utility.yul\":88:205   */\n    tag_102:\n        /* \"#utility.yul\":197:198   */\n      0x00\n        /* \"#utility.yul\":194:195   */\n      dup1\n        /* \"#utility.yul\":187:199   */\n      revert\n        /* \"#utility.yul\":334:411   */\n    tag_104:\n        /* \"#utility.yul\":371:378   */\n      0x00\n        /* \"#utility.yul\":400:405   */\n      dup2\n        /* \"#utility.yul\":389:405   */\n      swap1\n      pop\n        /* \"#utility.yul\":334:411   */\n      swap2\n      swap1\n      pop\n      jump\t// out\n        /* \"#utility.yul\":417:539   */\n    tag_105:\n        /* \"#utility.yul\":490:514   */\n      tag_126\n        /* \"#utility.yul\":508:513   */\n      dup2\n        /* \"#utility.yul\":490:514   */\n      tag_104\n      jump\t// in\n    tag_126:\n        /* \"#utility.yul\":483:488   */\n      dup2\n        /* \"#utility.yul\":480:515   */\n      eq\n        /* \"#utility.yul\":470:533   */\n      tag_127\n      jumpi\n        /* \"#utility.yul\":529:530   */\n      0x00\n        /* \"#utility.yul\":526:527   */\n      dup1\n        /* \"#utility.yul\":519:531   */\n      revert\n        /* \"#utility.yul\":470:533   */\n    tag_127:\n        /* \"#utility.yul\":417:539   */\n      pop\n      jump\t// out\n        /* \"#utility.yul\":545:684   */\n    tag_106:\n        /* \"#utility.yul\":591:596   */\n      0x00\n        /* \"#utility.yul\":629:635   */\n      dup2\n        /* \"#utility.yul\":616:636   */\n      calldataload\n        /* \"#utility.yul\":607:636   */\n      swap1\n      pop\n        /* \"#utility.yul\":645:678   */\n      tag_129\n        /* \"#utility.yul\":672:677   */\n      dup2\n        /* \"#utility.yul\":645:678   */\n      tag_105\n      jump\t// in\n    tag_129:\n        /* \"#utility.yul\":545:684   */\n      swap3\n      swap2\n      pop\n      pop\n      jump\t// out\n        /* \"#utility.yul\":690:1019   */\n    tag_18:\n        /* \"#utility.yul\":749:755   */\n      0x00\n        /* \"#utility.yul\":798:800   */\n      0x20\n        /* \"#utility.yul\":786:795   */\n      dup3\n        /* \"#utility.yul\":777:784   */\n      dup5\n        /* \"#utility.yul\":773:796   */\n      sub\n        /* \"#utility.yul\":769:801   */\n      slt\n        /* \"#utility.yul\":766:885   */\n      iszero\n      tag_131\n      jumpi\n        /* \"#utility.yul\":804:883   */\n      tag_132\n      tag_102\n      jump\t// in\n    tag_132:\n        /* \"#utility.yul\":766:885   */\n    tag_131:\n        /* \"#utility.yul\":924:925   */\n      0x00\n        /* \"#utility.yul\":949:1002   */\n      tag_133\n        /* \"#utility.yul\":994:1001   */\n      dup5\n        /* \"#utility.yul\":985:991   */\n      dup3\n        /* \"#utility.yul\":974:983   */\n      dup6\n        /* \"#utility.yul\":970:992   */\n      add\n        /* \"#utility.yul\":949:1002   */\n      tag_106\n      jump\t// in\n    tag_133:\n        /* \"#utility.yul\":939:1002   */\n      swap2\n      pop\n        /* \"#utility.yul\":895:1012   */\n      pop\n        /* \"#utility.yul\":690:1019   */\n      swap3\n      swap2\n      pop\n      pop\n      jump\t// out\n        /* \"#utility.yul\":1025:1102   */\n    tag_107:\n        /* \"#utility.yul\":1062:1069   */\n      0x00\n        /* \"#utility.yul\":1091:1096   */\n      dup2\n        /* \"#utility.yul\":1080:1096   */\n      swap1\n      pop\n        /* \"#utility.yul\":1025:1102   */\n      swap2\n      swap1\n      pop\n      jump\t// out\n        /* \"#utility.yul\":1108:1226   */\n    tag_108:\n        /* \"#utility.yul\":1195:1219   */\n      tag_136\n        /* \"#utility.yul\":1213:1218   */\n      dup2\n        /* \"#utility.yul\":1195:1219   */\n      tag_107\n      jump\t// in\n    tag_136:\n        /* \"#utility.yul\":1190:1193   */\n      dup3\n        /* \"#utility.yul\":1183:1220   */\n      mstore\n        /* \"#utility.yul\":1108:1226   */\n      pop\n      pop\n      jump\t// out\n        /* \"#utility.yul\":1232:1454   */\n    tag_21:\n        /* \"#utility.yul\":1325:1329   */\n      0x00\n        /* \"#utility.yul\":1363:1365   */\n      0x20\n        /* \"#utility.yul\":1352:1361   */\n      dup3\n        /* \"#utility.yul\":1348:1366   */\n      add\n        /* \"#utility.yul\":1340:1366   */\n      swap1\n      pop\n        /* \"#utility.yul\":1376:1447   */\n      tag_138\n        /* \"#utility.yul\":1444:1445   */\n      0x00\n        /* \"#utility.yul\":1433:1442   */\n      dup4\n        /* \"#utility.yul\":1429:1446   */\n      add\n        /* \"#utility.yul\":1420:1426   */\n      dup5\n        /* \"#utility.yul\":1376:1447   */\n      tag_108\n      jump\t// in\n    tag_138:\n        /* \"#utility.yul\":1232:1454   */\n      swap3\n      swap2\n      pop\n      pop\n      jump\t// out\n        /* \"#utility.yul\":1460:1586   */\n    tag_109:\n        /* \"#utility.yul\":1497:1504   */\n      0x00\n        /* \"#utility.yul\":1537:1579   */\n      0xffffffffffffffffffffffffffffffffffffffff\n        /* \"#utility.yul\":1530:1535   */\n      dup3\n        /* \"#utility.yul\":1526:1580   */\n      and\n        /* \"#utility.yul\":1515:1580   */\n      swap1\n      pop\n        /* \"#utility.yul\":1460:1586   */\n      swap2\n      swap1\n      pop\n      jump\t// out\n        /* \"#utility.yul\":1592:1688   */\n    tag_110:\n        /* \"#utility.yul\":1629:1636   */\n      0x00\n        /* \"#utility.yul\":1658:1682   */\n      tag_141\n        /* \"#utility.yul\":1676:1681   */\n      dup3\n        /* \"#utility.yul\":1658:1682   */\n      tag_109\n      jump\t// in\n    tag_141:\n        /* \"#utility.yul\":1647:1682   */\n      swap1\n      pop\n        /* \"#utility.yul\":1592:1688   */\n      swap2\n      swap1\n      pop\n      jump\t// out\n        /* \"#utility.yul\":1694:1816   */\n    tag_111:\n        /* \"#utility.yul\":1767:1791   */\n      tag_143\n        /* \"#utility.yul\":1785:1790   */\n      dup2\n        /* \"#utility.yul\":1767:1791   */\n      tag_110\n      jump\t// in\n    tag_143:\n        /* \"#utility.yul\":1760:1765   */\n      dup2\n        /* \"#utility.yul\":1757:1792   */\n      eq\n        /* \"#utility.yul\":1747:1810   */\n      tag_144\n      jumpi\n        /* \"#utility.yul\":1806:1807   */\n      0x00\n        /* \"#utility.yul\":1803:1804   */\n      dup1\n        /* \"#utility.yul\":1796:1808   */\n      revert\n        /* \"#utility.yul\":1747:1810   */\n    tag_144:\n        /* \"#utility.yul\":1694:1816   */\n      pop\n      jump\t// out\n        /* \"#utility.yul\":1822:1961   */\n    tag_112:\n        /* \"#utility.yul\":1868:1873   */\n      0x00\n        /* \"#utility.yul\":1906:1912   */\n      dup2\n        /* \"#utility.yul\":1893:1913   */\n      calldataload\n        /* \"#utility.yul\":1884:1913   */\n      swap1\n      pop\n        /* \"#utility.yul\":1922:1955   */\n      tag_146\n        /* \"#utility.yul\":1949:1954   */\n      dup2\n        /* \"#utility.yul\":1922:1955   */\n      tag_111\n      jump\t// in\n    tag_146:\n        /* \"#utility.yul\":1822:1961   */\n      swap3\n      swap2\n      pop\n      pop\n      jump\t// out\n        /* \"#utility.yul\":1967:2296   */\n    tag_25:\n        /* \"#utility.yul\":2026:2032   */\n      0x00\n        /* \"#utility.yul\":2075:2077   */\n      0x20\n        /* \"#utility.yul\":2063:2072   */\n      dup3\n        /* \"#utility.yul\":2054:2061   */\n      dup5\n        /* \"#utility.yul\":2050:2073   */\n      sub\n        /* \"#utility.yul\":2046:2078   */\n      slt\n        /* \"#utility.yul\":2043:2162   */\n      iszero\n      tag_148\n      jumpi\n        /* \"#utility.yul\":2081:2160   */\n      tag_149\n      tag_102\n      jump\t// in\n    tag_149:\n        /* \"#utility.yul\":2043:2162   */\n    tag_148:\n        /* \"#utility.yul\":2201:2202   */\n      0x00\n        /* \"#utility.yul\":2226:2279   */\n      tag_150\n        /* \"#utility.yul\":2271:2278   */\n      dup5\n        /* \"#utility.yul\":2262:2268   */\n      dup3\n        /* \"#utility.yul\":2251:2260   */\n      dup6\n        /* \"#utility.yul\":2247:2269   */\n      add\n        /* \"#utility.yul\":2226:2279   */\n      tag_112\n      jump\t// in\n    tag_150:\n        /* \"#utility.yul\":2216:2279   */\n      swap2\n      pop\n        /* \"#utility.yul\":2172:2289   */\n      pop\n        /* \"#utility.yul\":1967:2296   */\n      swap3\n      swap2\n      pop\n      pop\n      jump\t// out\n        /* \"#utility.yul\":2302:2420   */\n    tag_113:\n        /* \"#utility.yul\":2389:2413   */\n      tag_152\n        /* \"#utility.yul\":2407:2412   */\n      dup2\n        /* \"#utility.yul\":2389:2413   */\n      tag_110\n      jump\t// in\n    tag_152:\n        /* \"#utility.yul\":2384:2387   */\n      dup3\n        /* \"#utility.yul\":2377:2414   */\n      mstore\n        /* \"#utility.yul\":2302:2420   */\n      pop\n      pop\n      jump\t// out\n        /* \"#utility.yul\":2426:2648   */\n    tag_31:\n        /* \"#utility.yul\":2519:2523   */\n      0x00\n        /* \"#utility.yul\":2557:2559   */\n      0x20\n        /* \"#utility.yul\":2546:2555   */\n      dup3\n        /* \"#utility.yul\":2542:2560   */\n      add\n        /* \"#utility.yul\":2534:2560   */\n      swap1\n      pop\n        /* \"#utility.yul\":2570:2641   */\n      tag_154\n        /* \"#utility.yul\":2638:2639   */\n      0x00\n        /* \"#utility.yul\":2627:2636   */\n      dup4\n        /* \"#utility.yul\":2623:2640   */\n      add\n        /* \"#utility.yul\":2614:2620   */\n      dup5\n        /* \"#utility.yul\":2570:2641   */\n      tag_113\n      jump\t// in\n    tag_154:\n        /* \"#utility.yul\":2426:2648   */\n      swap3\n      swap2\n      pop\n      pop\n      jump\t// out\n        /* \"#utility.yul\":2654:2834   */\n    tag_114:\n        /* \"#utility.yul\":2702:2779   */\n      0x4e487b7100000000000000000000000000000000000000000000000000000000\n        /* \"#utility.yul\":2699:2700   */\n      0x00\n        /* \"#utility.yul\":2692:2780   */\n      mstore\n        /* \"#utility.yul\":2799:2803   */\n      0x11\n        /* \"#utility.yul\":2796:2797   */\n      0x04\n        /* \"#utility.yul\":2789:2804   */\n      mstore\n        /* \"#utility.yul\":2823:2827   */\n      0x24\n        /* \"#utility.yul\":2820:2821   */\n      0x00\n        /* \"#utility.yul\":2813:2828   */\n      revert\n        /* \"#utility.yul\":2840:3034   */\n    tag_80:\n        /* \"#utility.yul\":2880:2884   */\n      0x00\n        /* \"#utility.yul\":2900:2920   */\n      tag_157\n        /* \"#utility.yul\":2918:2919   */\n      dup3\n        /* \"#utility.yul\":2900:2920   */\n      tag_104\n      jump\t// in\n    tag_157:\n        /* \"#utility.yul\":2895:2920   */\n      swap2\n      pop\n        /* \"#utility.yul\":2934:2954   */\n      tag_158\n        /* \"#utility.yul\":2952:2953   */\n      dup4\n        /* \"#utility.yul\":2934:2954   */\n      tag_104\n      jump\t// in\n    tag_158:\n        /* \"#utility.yul\":2929:2954   */\n      swap3\n      pop\n        /* \"#utility.yul\":2978:2979   */\n      dup3\n        /* \"#utility.yul\":2975:2976   */\n      dup3\n        /* \"#utility.yul\":2971:2980   */\n      sub\n        /* \"#utility.yul\":2963:2980   */\n      swap1\n      pop\n        /* \"#utility.yul\":3002:3003   */\n      dup2\n        /* \"#utility.yul\":2996:3000   */\n      dup2\n        /* \"#utility.yul\":2993:3004   */\n      gt\n        /* \"#utility.yul\":2990:3027   */\n      iszero\n      tag_159\n      jumpi\n        /* \"#utility.yul\":3007:3025   */\n      tag_160\n      tag_114\n      jump\t// in\n    tag_160:\n        /* \"#utility.yul\":2990:3027   */\n    tag_159:\n        /* \"#utility.yul\":2840:3034   */\n      swap3\n      swap2\n      pop\n      pop\n      jump\t// out\n        /* \"#utility.yul\":3040:3209   */\n    tag_115:\n        /* \"#utility.yul\":3124:3135   */\n      0x00\n        /* \"#utility.yul\":3158:3164   */\n      dup3\n        /* \"#utility.yul\":3153:3156   */\n      dup3\n        /* \"#utility.yul\":3146:3165   */\n      mstore\n        /* \"#utility.yul\":3198:3202   */\n      0x20\n        /* \"#utility.yul\":3193:3196   */\n      dup3\n        /* \"#utility.yul\":3189:3203   */\n      add\n        /* \"#utility.yul\":3174:3203   */\n      swap1\n      pop\n        /* \"#utility.yul\":3040:3209   */\n      swap3\n      swap2\n      pop\n      pop\n      jump\t// out\n        /* \"#utility.yul\":3215:3395   */\n    tag_116:\n        /* \"#utility.yul\":3355:3387   */\n      0x696d706c656d656e746174696f6e206973206e6f7420636f6e74726163740000\n        /* \"#utility.yul\":3351:3352   */\n      0x00\n        /* \"#utility.yul\":3343:3349   */\n      dup3\n        /* \"#utility.yul\":3339:3353   */\n      add\n        /* \"#utility.yul\":3332:3388   */\n      mstore\n        /* \"#utility.yul\":3215:3395   */\n      pop\n      jump\t// out\n        /* \"#utility.yul\":3401:3767   */\n    tag_117:\n        /* \"#utility.yul\":3543:3546   */\n      0x00\n        /* \"#utility.yul\":3564:3631   */\n      tag_164\n        /* \"#utility.yul\":3628:3630   */\n      0x1e\n        /* \"#utility.yul\":3623:3626   */\n      dup4\n        /* \"#utility.yul\":3564:3631   */\n      tag_115\n      jump\t// in\n    tag_164:\n        /* \"#utility.yul\":3557:3631   */\n      swap2\n      pop\n        /* \"#utility.yul\":3640:3733   */\n      tag_165\n        /* \"#utility.yul\":3729:3732   */\n      dup3\n        /* \"#utility.yul\":3640:3733   */\n      tag_116\n      jump\t// in\n    tag_165:\n        /* \"#utility.yul\":3758:3760   */\n      0x20\n        /* \"#utility.yul\":3753:3756   */\n      dup3\n        /* \"#utility.yul\":3749:3761   */\n      add\n        /* \"#utility.yul\":3742:3761   */\n      swap1\n      pop\n        /* \"#utility.yul\":3401:3767   */\n      swap2\n      swap1\n      pop\n      jump\t// out\n        /* \"#utility.yul\":3773:4192   */\n    tag_91:\n        /* \"#utility.yul\":3939:3943   */\n      0x00\n        /* \"#utility.yul\":3977:3979   */\n      0x20\n        /* \"#utility.yul\":3966:3975   */\n      dup3\n        /* \"#utility.yul\":3962:3980   */\n      add\n        /* \"#utility.yul\":3954:3980   */\n      swap1\n      pop\n        /* \"#utility.yul\":4026:4035   */\n      dup2\n        /* \"#utility.yul\":4020:4024   */\n      dup2\n        /* \"#utility.yul\":4016:4036   */\n      sub\n        /* \"#utility.yul\":4012:4013   */\n      0x00\n        /* \"#utility.yul\":4001:4010   */\n      dup4\n        /* \"#utility.yul\":3997:4014   */\n      add\n        /* \"#utility.yul\":3990:4037   */\n      mstore\n        /* \"#utility.yul\":4054:4185   */\n      tag_167\n        /* \"#utility.yul\":4180:4184   */\n      dup2\n        /* \"#utility.yul\":4054:4185   */\n      tag_117\n      jump\t// in\n    tag_167:\n        /* \"#utility.yul\":4046:4185   */\n      swap1\n      pop\n        /* \"#utility.yul\":3773:4192   */\n      swap2\n      swap1\n      pop\n      jump\t// out\n        /* \"#utility.yul\":4198:4368   */\n    tag_118:\n        /* \"#utility.yul\":4338:4360   */\n      0x61646d696e203d207a65726f2061646472657373000000000000000000000000\n        /* \"#utility.yul\":4334:4335   */\n      0x00\n        /* \"#utility.yul\":4326:4332   */\n      dup3\n        /* \"#utility.yul\":4322:4336   */\n      add\n        /* \"#utility.yul\":4315:4361   */\n      mstore\n        /* \"#utility.yul\":4198:4368   */\n      pop\n      jump\t// out\n        /* \"#utility.yul\":4374:4740   */\n    tag_119:\n        /* \"#utility.yul\":4516:4519   */\n      0x00\n        /* \"#utility.yul\":4537:4604   */\n      tag_170\n        /* \"#utility.yul\":4601:4603   */\n      0x14\n        /* \"#utility.yul\":4596:4599   */\n      dup4\n        /* \"#utility.yul\":4537:4604   */\n      tag_115\n      jump\t// in\n    tag_170:\n        /* \"#utility.yul\":4530:4604   */\n      swap2\n      pop\n        /* \"#utility.yul\":4613:4706   */\n      tag_171\n        /* \"#utility.yul\":4702:4705   */\n      dup3\n        /* \"#utility.yul\":4613:4706   */\n      tag_118\n      jump\t// in\n    tag_171:\n        /* \"#utility.yul\":4731:4733   */\n      0x20\n        /* \"#utility.yul\":4726:4729   */\n      dup3\n        /* \"#utility.yul\":4722:4734   */\n      add\n        /* \"#utility.yul\":4715:4734   */\n      swap1\n      pop\n        /* \"#utility.yul\":4374:4740   */\n      swap2\n      swap1\n      pop\n      jump\t// out\n        /* \"#utility.yul\":4746:5165   */\n    tag_97:\n        /* \"#utility.yul\":4912:4916   */\n      0x00\n        /* \"#utility.yul\":4950:4952   */\n      0x20\n        /* \"#utility.yul\":4939:4948   */\n      dup3\n        /* \"#utility.yul\":4935:4953   */\n      add\n        /* \"#utility.yul\":4927:4953   */\n      swap1\n      pop\n        /* \"#utility.yul\":4999:5008   */\n      dup2\n        /* \"#utility.yul\":4993:4997   */\n      dup2\n        /* \"#utility.yul\":4989:5009   */\n      sub\n        /* \"#utility.yul\":4985:4986   */\n      0x00\n        /* \"#utility.yul\":4974:4983   */\n      dup4\n        /* \"#utility.yul\":4970:4987   */\n      add\n        /* \"#utility.yul\":4963:5010   */\n      mstore\n        /* \"#utility.yul\":5027:5158   */\n      tag_173\n        /* \"#utility.yul\":5153:5157   */\n      dup2\n        /* \"#utility.yul\":5027:5158   */\n      tag_119\n      jump\t// in\n    tag_173:\n        /* \"#utility.yul\":5019:5158   */\n      swap1\n      pop\n        /* \"#utility.yul\":4746:5165   */\n      swap2\n      swap1\n      pop\n      jump\t// out\n\n    auxdata: 0xa2646970667358221220dbe85552da918b36cde2cbf67c331154e9b69de840801137e9991fd67875b44764736f6c63430008190033\n}\n",
				"bytecode": {
					"linkReferences": {},
					"object": "608060405234801561000f575f80fd5b5061001f3361002460201b60201c565b6101fe565b5f73ffffffffffffffffffffffffffffffffffffffff168173ffffffffffffffffffffffffffffffffffffffff1603610092576040517f08c379a000000000000000000000000000000000000000000000000000000000815260040161008990610177565b60405180910390fd5b806100d260017fb53127684a568b3173ae13b9f8a6016e243e63b6e8ee1178d6a717850b5d61045f1c6100c591906101cb565b5f1b61011460201b60201c565b5f015f6101000a81548173ffffffffffffffffffffffffffffffffffffffff021916908373ffffffffffffffffffffffffffffffffffffffff16021790555050565b5f819050919050565b5f82825260208201905092915050565b7f61646d696e203d207a65726f20616464726573730000000000000000000000005f82015250565b5f61016160148361011d565b915061016c8261012d565b602082019050919050565b5f6020820190508181035f83015261018e81610155565b9050919050565b5f819050919050565b7f4e487b71000000000000000000000000000000000000000000000000000000005f52601160045260245ffd5b5f6101d582610195565b91506101e083610195565b92508282039050818111156101f8576101f761019e565b5b92915050565b6108158061020b5f395ff3fe60806040526004361061004d575f3560e01c80632049450b146100665780633659cfe6146100a25780635c60da1b146100ca5780638f283970146100f4578063f851a4401461011c5761005c565b3661005c5761005a610146565b005b610064610146565b005b348015610071575f80fd5b5061008c60048036038101906100879190610596565b610158565b60405161009991906105d9565b60405180910390f35b3480156100ad575f80fd5b506100c860048036038101906100c3919061064c565b610162565b005b3480156100d5575f80fd5b506100de6101b6565b6040516100eb9190610686565b60405180910390f35b3480156100ff575f80fd5b5061011a6004803603810190610115919061064c565b61020c565b005b348015610127575f80fd5b50610130610260565b60405161013d9190610686565b60405180910390f35b6101566101516102b6565b610317565b565b5f81549050919050565b61016a610336565b73ffffffffffffffffffffffffffffffffffffffff163373ffffffffffffffffffffffffffffffffffffffff16036101aa576101a581610397565b6101b3565b6101b2610146565b5b50565b5f6101bf610336565b73ffffffffffffffffffffffffffffffffffffffff163373ffffffffffffffffffffffffffffffffffffffff1603610200576101f96102b6565b9050610209565b610208610146565b5b90565b610214610336565b73ffffffffffffffffffffffffffffffffffffffff163373ffffffffffffffffffffffffffffffffffffffff16036102545761024f8161046c565b61025d565b61025c610146565b5b50565b5f610269610336565b73ffffffffffffffffffffffffffffffffffffffff163373ffffffffffffffffffffffffffffffffffffffff16036102aa576102a3610336565b90506102b3565b6102b2610146565b5b90565b5f6102f060017f360894a13ba1a3210667c828492db98dca3e2076cc3735a920a3ca505d382bbd5f1c6102e991906106cc565b5f1b610556565b5f015f9054906101000a900473ffffffffffffffffffffffffffffffffffffffff16905090565b365f80375f80365f845af43d5f803e805f8114610332573d5ff35b3d5ffd5b5f61037060017fb53127684a568b3173ae13b9f8a6016e243e63b6e8ee1178d6a717850b5d61045f1c61036991906106cc565b5f1b610556565b5f015f9054906101000a900473ffffffffffffffffffffffffffffffffffffffff16905090565b5f8173ffffffffffffffffffffffffffffffffffffffff163b116103f0576040517f08c379a00000000000000000000000000000000000000000000000000000000081526004016103e790610759565b60405180910390fd5b8061042a60017f360894a13ba1a3210667c828492db98dca3e2076cc3735a920a3ca505d382bbd5f1c61042391906106cc565b5f1b610556565b5f015f6101000a81548173ffffffffffffffffffffffffffffffffffffffff021916908373ffffffffffffffffffffffffffffffffffffffff16021790555050565b5f73ffffffffffffffffffffffffffffffffffffffff168173ffffffffffffffffffffffffffffffffffffffff16036104da576040517f08c379a00000000000000000000000000000000000000000000000000000000081526004016104d1906107c1565b60405180910390fd5b8061051460017fb53127684a568b3173ae13b9f8a6016e243e63b6e8ee1178d6a717850b5d61045f1c61050d91906106cc565b5f1b610556565b5f015f6101000a81548173ffffffffffffffffffffffffffffffffffffffff021916908373ffffffffffffffffffffffffffffffffffffffff16021790555050565b5f819050919050565b5f80fd5b5f819050919050565b61057581610563565b811461057f575f80fd5b50565b5f813590506105908161056c565b92915050565b5f602082840312156105ab576105aa61055f565b5b5f6105b884828501610582565b91505092915050565b5f819050919050565b6105d3816105c1565b82525050565b5f6020820190506105ec5f8301846105ca565b92915050565b5f73ffffffffffffffffffffffffffffffffffffffff82169050919050565b5f61061b826105f2565b9050919050565b61062b81610611565b8114610635575f80fd5b50565b5f8135905061064681610622565b92915050565b5f602082840312156106615761066061055f565b5b5f61066e84828501610638565b91505092915050565b61068081610611565b82525050565b5f6020820190506106995f830184610677565b92915050565b7f4e487b71000000000000000000000000000000000000000000000000000000005f52601160045260245ffd5b5f6106d682610563565b91506106e183610563565b92508282039050818111156106f9576106f861069f565b5b92915050565b5f82825260208201905092915050565b7f696d706c656d656e746174696f6e206973206e6f7420636f6e747261637400005f82015250565b5f610743601e836106ff565b915061074e8261070f565b602082019050919050565b5f6020820190508181035f83015261077081610737565b9050919050565b7f61646d696e203d207a65726f20616464726573730000000000000000000000005f82015250565b5f6107ab6014836106ff565b91506107b682610777565b602082019050919050565b5f6020820190508181035f8301526107d88161079f565b905091905056fea2646970667358221220dbe85552da918b36cde2cbf67c331154e9b69de840801137e9991fd67875b44764736f6c63430008190033",
					"opcodes": "PUSH1 0x80 PUSH1 0x40 MSTORE CALLVALUE DUP1 ISZERO PUSH2 0xF JUMPI PUSH0 DUP1 REVERT JUMPDEST POP PUSH2 0x1F CALLER PUSH2 0x24 PUSH1 0x20 SHL PUSH1 0x20 SHR JUMP JUMPDEST PUSH2 0x1FE JUMP JUMPDEST PUSH0 PUSH20 0xFFFFFFFFFFFFFFFFFFFFFFFFFFFFFFFFFFFFFFFF AND DUP2 PUSH20 0xFFFFFFFFFFFFFFFFFFFFFFFFFFFFFFFFFFFFFFFF AND SUB PUSH2 0x92 JUMPI PUSH1 0x40 MLOAD PUSH32 0x8C379A000000000000000000000000000000000000000000000000000000000 DUP2 MSTORE PUSH1 0x4 ADD PUSH2 0x89 SWAP1 PUSH2 0x177 JUMP JUMPDEST PUSH1 0x40 MLOAD DUP1 SWAP2 SUB SWAP1 REVERT JUMPDEST DUP1 PUSH2 0xD2 PUSH1 0x1 PUSH32 0xB53127684A568B3173AE13B9F8A6016E243E63B6E8EE1178D6A717850B5D6104 PUSH0 SHR PUSH2 0xC5 SWAP2 SWAP1 PUSH2 0x1CB JUMP JUMPDEST PUSH0 SHL PUSH2 0x114 PUSH1 0x20 SHL PUSH1 0x20 SHR JUMP JUMPDEST PUSH0 ADD PUSH0 PUSH2 0x100 EXP DUP2 SLOAD DUP2 PUSH20 0xFFFFFFFFFFFFFFFFFFFFFFFFFFFFFFFFFFFFFFFF MUL NOT AND SWAP1 DUP4 PUSH20 0xFFFFFFFFFFFFFFFFFFFFFFFFFFFFFFFFFFFFFFFF AND MUL OR SWAP1 SSTORE POP POP JUMP JUMPDEST PUSH0 DUP2 SWAP1 POP SWAP2 SWAP1 POP JUMP JUMPDEST PUSH0 DUP3 DUP3 MSTORE PUSH1 0x20 DUP3 ADD SWAP1 POP SWAP3 SWAP2 POP POP JUMP JUMPDEST PUSH32 0x61646D696E203D207A65726F2061646472657373000000000000000000000000 PUSH0 DUP3 ADD MSTORE POP JUMP JUMPDEST PUSH0 PUSH2 0x161 PUSH1 0x14 DUP4 PUSH2 0x11D JUMP JUMPDEST SWAP2 POP PUSH2 0x16C DUP3 PUSH2 0x12D JUMP JUMPDEST PUSH1 0x20 DUP3 ADD SWAP1 POP SWAP2 SWAP1 POP JUMP JUMPDEST PUSH0 PUSH1 0x20 DUP3 ADD SWAP1 POP DUP2 DUP2 SUB PUSH0 DUP4 ADD MSTORE PUSH2 0x18E DUP2 PUSH2 0x155 JUMP JUMPDEST SWAP1 POP SWAP2 SWAP1 POP JUMP JUMPDEST PUSH0 DUP2 SWAP1 POP SWAP2 SWAP1 POP JUMP JUMPDEST PUSH32 0x4E487B7100000000000000000000000000000000000000000000000000000000 PUSH0 MSTORE PUSH1 0x11 PUSH1 0x4 MSTORE PUSH1 0x24 PUSH0 REVERT JUMPDEST PUSH0 PUSH2 0x1D5 DUP3 PUSH2 0x195 JUMP JUMPDEST SWAP2 POP PUSH2 0x1E0 DUP4 PUSH2 0x195 JUMP JUMPDEST SWAP3 POP DUP3 DUP3 SUB SWAP1 POP DUP2 DUP2 GT ISZERO PUSH2 0x1F8 JUMPI PUSH2 0x1F7 PUSH2 0x19E JUMP JUMPDEST JUMPDEST SWAP3 SWAP2 POP POP JUMP JUMPDEST PUSH2 0x815 DUP1 PUSH2 0x20B PUSH0 CODECOPY PUSH0 RETURN INVALID PUSH1 0x80 PUSH1 0x40 MSTORE PUSH1 0x4 CALLDATASIZE LT PUSH2 0x4D JUMPI PUSH0 CALLDATALOAD PUSH1 0xE0 SHR DUP1 PUSH4 0x2049450B EQ PUSH2 0x66 JUMPI DUP1 PUSH4 0x3659CFE6 EQ PUSH2 0xA2 JUMPI DUP1 PUSH4 0x5C60DA1B EQ PUSH2 0xCA JUMPI DUP1 PUSH4 0x8F283970 EQ PUSH2 0xF4 JUMPI DUP1 PUSH4 0xF851A440 EQ PUSH2 0x11C JUMPI PUSH2 0x5C JUMP JUMPDEST CALLDATASIZE PUSH2 0x5C JUMPI PUSH2 0x5A PUSH2 0x146 JUMP JUMPDEST STOP JUMPDEST PUSH2 0x64 PUSH2 0x146 JUMP JUMPDEST STOP JUMPDEST CALLVALUE DUP1 ISZERO PUSH2 0x71 JUMPI PUSH0 DUP1 REVERT JUMPDEST POP PUSH2 0x8C PUSH1 0x4 DUP1 CALLDATASIZE SUB DUP2 ADD SWAP1 PUSH2 0x87 SWAP2 SWAP1 PUSH2 0x596 JUMP JUMPDEST PUSH2 0x158 JUMP JUMPDEST PUSH1 0x40 MLOAD PUSH2 0x99 SWAP2 SWAP1 PUSH2 0x5D9 JUMP JUMPDEST PUSH1 0x40 MLOAD DUP1 SWAP2 SUB SWAP1 RETURN JUMPDEST CALLVALUE DUP1 ISZERO PUSH2 0xAD JUMPI PUSH0 DUP1 REVERT JUMPDEST POP PUSH2 0xC8 PUSH1 0x4 DUP1 CALLDATASIZE SUB DUP2 ADD SWAP1 PUSH2 0xC3 SWAP2 SWAP1 PUSH2 0x64C JUMP JUMPDEST PUSH2 0x162 JUMP JUMPDEST STOP JUMPDEST CALLVALUE DUP1 ISZERO PUSH2 0xD5 JUMPI PUSH0 DUP1 REVERT JUMPDEST POP PUSH2 0xDE PUSH2 0x1B6 JUMP JUMPDEST PUSH1 0x40 MLOAD PUSH2 0xEB SWAP2 SWAP1 PUSH2 0x686 JUMP JUMPDEST PUSH1 0x40 MLOAD DUP1 SWAP2 SUB SWAP1 RETURN JUMPDEST CALLVALUE DUP1 ISZERO PUSH2 0xFF JUMPI PUSH0 DUP1 REVERT JUMPDEST POP PUSH2 0x11A PUSH1 0x4 DUP1 CALLDATASIZE SUB DUP2 ADD SWAP1 PUSH2 0x115 SWAP2 SWAP1 PUSH2 0x64C JUMP JUMPDEST PUSH2 0x20C JUMP JUMPDEST STOP JUMPDEST CALLVALUE DUP1 ISZERO PUSH2 0x127 JUMPI PUSH0 DUP1 REVERT JUMPDEST POP PUSH2 0x130 PUSH2 0x260 JUMP JUMPDEST PUSH1 0x40 MLOAD PUSH2 0x13D SWAP2 SWAP1 PUSH2 0x686 JUMP JUMPDEST PUSH1 0x40 MLOAD DUP1 SWAP2 SUB SWAP1 RETURN JUMPDEST PUSH2 0x156 PUSH2 0x151 PUSH2 0x2B6 JUMP JUMPDEST PUSH2 0x317 JUMP JUMPDEST JUMP JUMPDEST PUSH0 DUP2 SLOAD SWAP1 POP SWAP2 SWAP1 POP JUMP JUMPDEST PUSH2 0x16A PUSH2 0x336 JUMP JUMPDEST PUSH20 0xFFFFFFFFFFFFFFFFFFFFFFFFFFFFFFFFFFFFFFFF AND CALLER PUSH20 0xFFFFFFFFFFFFFFFFFFFFFFFFFFFFFFFFFFFFFFFF AND SUB PUSH2 0x1AA JUMPI PUSH2 0x1A5 DUP2 PUSH2 0x397 JUMP JUMPDEST PUSH2 0x1B3 JUMP JUMPDEST PUSH2 0x1B2 PUSH2 0x146 JUMP JUMPDEST JUMPDEST POP JUMP JUMPDEST PUSH0 PUSH2 0x1BF PUSH2 0x336 JUMP JUMPDEST PUSH20 0xFFFFFFFFFFFFFFFFFFFFFFFFFFFFFFFFFFFFFFFF AND CALLER PUSH20 0xFFFFFFFFFFFFFFFFFFFFFFFFFFFFFFFFFFFFFFFF AND SUB PUSH2 0x200 JUMPI PUSH2 0x1F9 PUSH2 0x2B6 JUMP JUMPDEST SWAP1 POP PUSH2 0x209 JUMP JUMPDEST PUSH2 0x208 PUSH2 0x146 JUMP JUMPDEST JUMPDEST SWAP1 JUMP JUMPDEST PUSH2 0x214 PUSH2 0x336 JUMP JUMPDEST PUSH20 0xFFFFFFFFFFFFFFFFFFFFFFFFFFFFFFFFFFFFFFFF AND CALLER PUSH20 0xFFFFFFFFFFFFFFFFFFFFFFFFFFFFFFFFFFFFFFFF AND SUB PUSH2 0x254 JUMPI PUSH2 0x24F DUP2 PUSH2 0x46C JUMP JUMPDEST PUSH2 0x25D JUMP JUMPDEST PUSH2 0x25C PUSH2 0x146 JUMP JUMPDEST JUMPDEST POP JUMP JUMPDEST PUSH0 PUSH2 0x269 PUSH2 0x336 JUMP JUMPDEST PUSH20 0xFFFFFFFFFFFFFFFFFFFFFFFFFFFFFFFFFFFFFFFF AND CALLER PUSH20 0xFFFFFFFFFFFFFFFFFFFFFFFFFFFFFFFFFFFFFFFF AND SUB PUSH2 0x2AA JUMPI PUSH2 0x2A3 PUSH2 0x336 JUMP JUMPDEST SWAP1 POP PUSH2 0x2B3 JUMP JUMPDEST PUSH2 0x2B2 PUSH2 0x146 JUMP JUMPDEST JUMPDEST SWAP1 JUMP JUMPDEST PUSH0 PUSH2 0x2F0 PUSH1 0x1 PUSH32 0x360894A13BA1A3210667C828492DB98DCA3E2076CC3735A920A3CA505D382BBD PUSH0 SHR PUSH2 0x2E9 SWAP2 SWAP1 PUSH2 0x6CC JUMP JUMPDEST PUSH0 SHL PUSH2 0x556 JUMP JUMPDEST PUSH0 ADD PUSH0 SWAP1 SLOAD SWAP1 PUSH2 0x100 EXP SWAP1 DIV PUSH20 0xFFFFFFFFFFFFFFFFFFFFFFFFFFFFFFFFFFFFFFFF AND SWAP1 POP SWAP1 JUMP JUMPDEST CALLDATASIZE PUSH0 DUP1 CALLDATACOPY PUSH0 DUP1 CALLDATASIZE PUSH0 DUP5 GAS DELEGATECALL RETURNDATASIZE PUSH0 DUP1 RETURNDATACOPY DUP1 PUSH0 DUP2 EQ PUSH2 0x332 JUMPI RETURNDATASIZE PUSH0 RETURN JUMPDEST RETURNDATASIZE PUSH0 REVERT JUMPDEST PUSH0 PUSH2 0x370 PUSH1 0x1 PUSH32 0xB53127684A568B3173AE13B9F8A6016E243E63B6E8EE1178D6A717850B5D6104 PUSH0 SHR PUSH2 0x369 SWAP2 SWAP1 PUSH2 0x6CC JUMP JUMPDEST PUSH0 SHL PUSH2 0x556 JUMP JUMPDEST PUSH0 ADD PUSH0 SWAP1 SLOAD SWAP1 PUSH2 0x100 EXP SWAP1 DIV PUSH20 0xFFFFFFFFFFFFFFFFFFFFFFFFFFFFFFFFFFFFFFFF AND SWAP1 POP SWAP1 JUMP JUMPDEST PUSH0 DUP2 PUSH20 0xFFFFFFFFFFFFFFFFFFFFFFFFFFFFFFFFFFFFFFFF AND EXTCODESIZE GT PUSH2 0x3F0 JUMPI PUSH1 0x40 MLOAD PUSH32 0x8C379A000000000000000000000000000000000000000000000000000000000 DUP2 MSTORE PUSH1 0x4 ADD PUSH2 0x3E7 SWAP1 PUSH2 0x759 JUMP JUMPDEST PUSH1 0x40 MLOAD DUP1 SWAP2 SUB SWAP1 REVERT JUMPDEST DUP1 PUSH2 0x42A PUSH1 0x1 PUSH32 0x360894A13BA1A3210667C828492DB98DCA3E2076CC3735A920A3CA505D382BBD PUSH0 SHR PUSH2 0x423 SWAP2 SWAP1 PUSH2 0x6CC JUMP JUMPDEST PUSH0 SHL PUSH2 0x556 JUMP JUMPDEST PUSH0 ADD PUSH0 PUSH2 0x100 EXP DUP2 SLOAD DUP2 PUSH20 0xFFFFFFFFFFFFFFFFFFFFFFFFFFFFFFFFFFFFFFFF MUL NOT AND SWAP1 DUP4 PUSH20 0xFFFFFFFFFFFFFFFFFFFFFFFFFFFFFFFFFFFFFFFF AND MUL OR SWAP1 SSTORE POP POP JUMP JUMPDEST PUSH0 PUSH20 0xFFFFFFFFFFFFFFFFFFFFFFFFFFFFFFFFFFFFFFFF AND DUP2 PUSH20 0xFFFFFFFFFFFFFFFFFFFFFFFFFFFFFFFFFFFFFFFF AND SUB PUSH2 0x4DA JUMPI PUSH1 0x40 MLOAD PUSH32 0x8C379A000000000000000000000000000000000000000000000000000000000 DUP2 MSTORE PUSH1 0x4 ADD PUSH2 0x4D1 SWAP1 PUSH2 0x7C1 JUMP JUMPDEST PUSH1 0x40 MLOAD DUP1 SWAP2 SUB SWAP1 REVERT JUMPDEST DUP1 PUSH2 0x514 PUSH1 0x1 PUSH32 0xB53127684A568B3173AE13B9F8A6016E243E63B6E8EE1178D6A717850B5D6104 PUSH0 SHR PUSH2 0x50D SWAP2 SWAP1 PUSH2 0x6CC JUMP JUMPDEST PUSH0 SHL PUSH2 0x556 JUMP JUMPDEST PUSH0 ADD PUSH0 PUSH2 0x100 EXP DUP2 SLOAD DUP2 PUSH20 0xFFFFFFFFFFFFFFFFFFFFFFFFFFFFFFFFFFFFFFFF MUL NOT AND SWAP1 DUP4 PUSH20 0xFFFFFFFFFFFFFFFFFFFFFFFFFFFFFFFFFFFFFFFF AND MUL OR SWAP1 SSTORE POP POP JUMP JUMPDEST PUSH0 DUP2 SWAP1 POP SWAP2 SWAP1 POP JUMP JUMPDEST PUSH0 DUP1 REVERT JUMPDEST PUSH0 DUP2 SWAP1 POP SWAP2 SWAP1 POP JUMP JUMPDEST PUSH2 0x575 DUP2 PUSH2 0x563 JUMP JUMPDEST DUP2 EQ PUSH2 0x57F JUMPI PUSH0 DUP1 REVERT JUMPDEST POP JUMP JUMPDEST PUSH0 DUP2 CALLDATALOAD SWAP1 POP PUSH2 0x590 DUP2 PUSH2 0x56C JUMP JUMPDEST SWAP3 SWAP2 POP POP JUMP JUMPDEST PUSH0 PUSH1 0x20 DUP3 DUP5 SUB SLT ISZERO PUSH2 0x5AB JUMPI PUSH2 0x5AA PUSH2 0x55F JUMP JUMPDEST JUMPDEST PUSH0 PUSH2 0x5B8 DUP5 DUP3 DUP6 ADD PUSH2 0x582 JUMP JUMPDEST SWAP2 POP POP SWAP3 SWAP2 POP POP JUMP JUMPDEST PUSH0 DUP2 SWAP1 POP SWAP2 SWAP1 POP JUMP JUMPDEST PUSH2 0x5D3 DUP2 PUSH2 0x5C1 JUMP JUMPDEST DUP3 MSTORE POP POP JUMP JUMPDEST PUSH0 PUSH1 0x20 DUP3 ADD SWAP1 POP PUSH2 0x5EC PUSH0 DUP4 ADD DUP5 PUSH2 0x5CA JUMP JUMPDEST SWAP3 SWAP2 POP POP JUMP JUMPDEST PUSH0 PUSH20 0xFFFFFFFFFFFFFFFFFFFFFFFFFFFFFFFFFFFFFFFF DUP3 AND SWAP1 POP SWAP2 SWAP1 POP JUMP JUMPDEST PUSH0 PUSH2 0x61B DUP3 PUSH2 0x5F2 JUMP JUMPDEST SWAP1 POP SWAP2 SWAP1 POP JUMP JUMPDEST PUSH2 0x62B DUP2 PUSH2 0x611 JUMP JUMPDEST DUP2 EQ PUSH2 0x635 JUMPI PUSH0 DUP1 REVERT JUMPDEST POP JUMP JUMPDEST PUSH0 DUP2 CALLDATALOAD SWAP1 POP PUSH2 0x646 DUP2 PUSH2 0x622 JUMP JUMPDEST SWAP3 SWAP2 POP POP JUMP JUMPDEST PUSH0 PUSH1 0x20 DUP3 DUP5 SUB SLT ISZERO PUSH2 0x661 JUMPI PUSH2 0x660 PUSH2 0x55F JUMP JUMPDEST JUMPDEST PUSH0 PUSH2 0x66E DUP5 DUP3 DUP6 ADD PUSH2 0x638 JUMP JUMPDEST SWAP2 POP POP SWAP3 SWAP2 POP POP JUMP JUMPDEST PUSH2 0x680 DUP2 PUSH2 0x611 JUMP JUMPDEST DUP3 MSTORE POP POP JUMP JUMPDEST PUSH0 PUSH1 0x20 DUP3 ADD SWAP1 POP PUSH2 0x699 PUSH0 DUP4 ADD DUP5 PUSH2 0x677 JUMP JUMPDEST SWAP3 SWAP2 POP POP JUMP JUMPDEST PUSH32 0x4E487B7100000000000000000000000000000000000000000000000000000000 PUSH0 MSTORE PUSH1 0x11 PUSH1 0x4 MSTORE PUSH1 0x24 PUSH0 REVERT JUMPDEST PUSH0 PUSH2 0x6D6 DUP3 PUSH2 0x563 JUMP JUMPDEST SWAP2 POP PUSH2 0x6E1 DUP4 PUSH2 0x563 JUMP JUMPDEST SWAP3 POP DUP3 DUP3 SUB SWAP1 POP DUP2 DUP2 GT ISZERO PUSH2 0x6F9 JUMPI PUSH2 0x6F8 PUSH2 0x69F JUMP JUMPDEST JUMPDEST SWAP3 SWAP2 POP POP JUMP JUMPDEST PUSH0 DUP3 DUP3 MSTORE PUSH1 0x20 DUP3 ADD SWAP1 POP SWAP3 SWAP2 POP POP JUMP JUMPDEST PUSH32 0x696D706C656D656E746174696F6E206973206E6F7420636F6E74726163740000 PUSH0 DUP3 ADD MSTORE POP JUMP JUMPDEST PUSH0 PUSH2 0x743 PUSH1 0x1E DUP4 PUSH2 0x6FF JUMP JUMPDEST SWAP2 POP PUSH2 0x74E DUP3 PUSH2 0x70F JUMP JUMPDEST PUSH1 0x20 DUP3 ADD SWAP1 POP SWAP2 SWAP1 POP JUMP JUMPDEST PUSH0 PUSH1 0x20 DUP3 ADD SWAP1 POP DUP2 DUP2 SUB PUSH0 DUP4 ADD MSTORE PUSH2 0x770 DUP2 PUSH2 0x737 JUMP JUMPDEST SWAP1 POP SWAP2 SWAP1 POP JUMP JUMPDEST PUSH32 0x61646D696E203D207A65726F2061646472657373000000000000000000000000 PUSH0 DUP3 ADD MSTORE POP JUMP JUMPDEST PUSH0 PUSH2 0x7AB PUSH1 0x14 DUP4 PUSH2 0x6FF JUMP JUMPDEST SWAP2 POP PUSH2 0x7B6 DUP3 PUSH2 0x777 JUMP JUMPDEST PUSH1 0x20 DUP3 ADD SWAP1 POP SWAP2 SWAP1 POP JUMP JUMPDEST PUSH0 PUSH1 0x20 DUP3 ADD SWAP1 POP DUP2 DUP2 SUB PUSH0 DUP4 ADD MSTORE PUSH2 0x7D8 DUP2 PUSH2 0x79F JUMP JUMPDEST SWAP1 POP SWAP2 SWAP1 POP JUMP INVALID LOG2 PUSH5 0x6970667358 0x22 SLT KECCAK256 0xDB 0xE8 SSTORE MSTORE 0xDA SWAP2 DUP12 CALLDATASIZE 0xCD 0xE2 0xCB 0xF6 PUSH29 0x331154E9B69DE840801137E9991FD67875B44764736F6C634300081900 CALLER "
				},
				"gasEstimates": {
					"creation": {
						"codeDepositCost": "413800",
						"executionCost": "infinite",
						"totalCost": "infinite"
					},
					"external": {
						"": "infinite",
						"admin()": "infinite",
						"changeAdmin(address)": "infinite",
						"implementation()": "infinite",
						"readStorageSlot(uint256)": "2671",
						"upgradeTo(address)": "infinite"
					},
					"internal": {
						"_delegate(address)": "infinite",
						"_fallback()": "infinite",
						"_getAdmin()": "infinite",
						"_getImplementation()": "infinite",
						"_setAdmin(address)": "infinite",
						"_setImplementation(address)": "infinite"
					}
				},
				"methodIdentifiers": {
					"admin()": "f851a440",
					"changeAdmin(address)": "8f283970",
					"implementation()": "5c60da1b",
					"readStorageSlot(uint256)": "2049450b",
					"upgradeTo(address)": "3659cfe6"
				}
			},
			"storageLayout": {
				"storage": [],
				"types": null
			},
			"userdoc": {
				"kind": "user",
				"methods": {},
				"version": 1
			}
		}
	}
}