{
	"contracts/L63-Transparent-Proxy-Contract.sol": {
		"Dev": {
			"abi": [
				{
					"inputs": [],
					"name": "selectors",
					"outputs": [
						{
							"internalType": "bytes4",
							"name": "",
							"type": "bytes4"
						},
						{
							"internalType": "bytes4",
							"name": "",
							"type": "bytes4"
						},
						{
							"internalType": "bytes4",
							"name": "",
							"type": "bytes4"
						}
					],
					"stateMutability": "view",
					"type": "function"
				}
			],
			"devdoc": {
				"kind": "dev",
				"methods": {},
				"version": 1
			},
			"evm": {
				"assembly": "    /* \"contracts/L63-Transparent-Proxy-Contract.sol\":4479:4717  contract Dev {... */\n  mstore(0x40, 0x80)\n  callvalue\n  dup1\n  iszero\n  tag_1\n  jumpi\n  0x00\n  dup1\n  revert\ntag_1:\n  pop\n  dataSize(sub_0)\n  dup1\n  dataOffset(sub_0)\n  0x00\n  codecopy\n  0x00\n  return\nstop\n\nsub_0: assembly {\n        /* \"contracts/L63-Transparent-Proxy-Contract.sol\":4479:4717  contract Dev {... */\n      mstore(0x40, 0x80)\n      callvalue\n      dup1\n      iszero\n      tag_1\n      jumpi\n      0x00\n      dup1\n      revert\n    tag_1:\n      pop\n      jumpi(tag_2, lt(calldatasize, 0x04))\n      shr(0xe0, calldataload(0x00))\n      dup1\n      0x6e25b978\n      eq\n      tag_3\n      jumpi\n    tag_2:\n      0x00\n      dup1\n      revert\n        /* \"contracts/L63-Transparent-Proxy-Contract.sol\":4498:4715  function selectors() external view returns (bytes4, bytes4, bytes4) {... */\n    tag_3:\n      tag_4\n      tag_5\n      jump\t// in\n    tag_4:\n      mload(0x40)\n      tag_6\n      swap4\n      swap3\n      swap2\n      swap1\n      tag_7\n      jump\t// in\n    tag_6:\n      mload(0x40)\n      dup1\n      swap2\n      sub\n      swap1\n      return\n    tag_5:\n        /* \"contracts/L63-Transparent-Proxy-Contract.sol\":4542:4548  bytes4 */\n      0x00\n        /* \"contracts/L63-Transparent-Proxy-Contract.sol\":4550:4556  bytes4 */\n      dup1\n        /* \"contracts/L63-Transparent-Proxy-Contract.sol\":4558:4564  bytes4 */\n      0x00\n        /* \"contracts/L63-Transparent-Proxy-Contract.sol\":4597:4617  Proxy.admin.selector */\n      shl(0xe0, 0xf851a440)\n        /* \"contracts/L63-Transparent-Proxy-Contract.sol\":4631:4660  Proxy.implementation.selector */\n      shl(0xe0, 0x5c60da1b)\n        /* \"contracts/L63-Transparent-Proxy-Contract.sol\":4674:4698  Proxy.upgradeTo.selector */\n      shl(0xe0, 0x3659cfe6)\n        /* \"contracts/L63-Transparent-Proxy-Contract.sol\":4576:4708  return (... */\n      swap3\n      pop\n      swap3\n      pop\n      swap3\n      pop\n        /* \"contracts/L63-Transparent-Proxy-Contract.sol\":4498:4715  function selectors() external view returns (bytes4, bytes4, bytes4) {... */\n      swap1\n      swap2\n      swap3\n      jump\t// out\n        /* \"#utility.yul\":7:156   */\n    tag_9:\n        /* \"#utility.yul\":43:50   */\n      0x00\n        /* \"#utility.yul\":83:149   */\n      0xffffffff00000000000000000000000000000000000000000000000000000000\n        /* \"#utility.yul\":76:81   */\n      dup3\n        /* \"#utility.yul\":72:150   */\n      and\n        /* \"#utility.yul\":61:150   */\n      swap1\n      pop\n        /* \"#utility.yul\":7:156   */\n      swap2\n      swap1\n      pop\n      jump\t// out\n        /* \"#utility.yul\":162:277   */\n    tag_10:\n        /* \"#utility.yul\":247:270   */\n      tag_14\n        /* \"#utility.yul\":264:269   */\n      dup2\n        /* \"#utility.yul\":247:270   */\n      tag_9\n      jump\t// in\n    tag_14:\n        /* \"#utility.yul\":242:245   */\n      dup3\n        /* \"#utility.yul\":235:271   */\n      mstore\n        /* \"#utility.yul\":162:277   */\n      pop\n      pop\n      jump\t// out\n        /* \"#utility.yul\":283:713   */\n    tag_7:\n        /* \"#utility.yul\":426:430   */\n      0x00\n        /* \"#utility.yul\":464:466   */\n      0x60\n        /* \"#utility.yul\":453:462   */\n      dup3\n        /* \"#utility.yul\":449:467   */\n      add\n        /* \"#utility.yul\":441:467   */\n      swap1\n      pop\n        /* \"#utility.yul\":477:546   */\n      tag_16\n        /* \"#utility.yul\":543:544   */\n      0x00\n        /* \"#utility.yul\":532:541   */\n      dup4\n        /* \"#utility.yul\":528:545   */\n      add\n        /* \"#utility.yul\":519:525   */\n      dup7\n        /* \"#utility.yul\":477:546   */\n      tag_10\n      jump\t// in\n    tag_16:\n        /* \"#utility.yul\":556:626   */\n      tag_17\n        /* \"#utility.yul\":622:624   */\n      0x20\n        /* \"#utility.yul\":611:620   */\n      dup4\n        /* \"#utility.yul\":607:625   */\n      add\n        /* \"#utility.yul\":598:604   */\n      dup6\n        /* \"#utility.yul\":556:626   */\n      tag_10\n      jump\t// in\n    tag_17:\n        /* \"#utility.yul\":636:706   */\n      tag_18\n        /* \"#utility.yul\":702:704   */\n      0x40\n        /* \"#utility.yul\":691:700   */\n      dup4\n        /* \"#utility.yul\":687:705   */\n      add\n        /* \"#utility.yul\":678:684   */\n      dup5\n        /* \"#utility.yul\":636:706   */\n      tag_10\n      jump\t// in\n    tag_18:\n        /* \"#utility.yul\":283:713   */\n      swap5\n      swap4\n      pop\n      pop\n      pop\n      pop\n      jump\t// out\n\n    auxdata: 0xa2646970667358221220afdad97363486cc970fbb252388ea90a2a44e63675e2ec7f2d4f46ac66a85a9564736f6c63430008190033\n}\n",
				"bytecode": {
					"linkReferences": {},
					"object": "6080604052348015600e575f80fd5b506101098061001c5f395ff3fe6080604052348015600e575f80fd5b50600436106026575f3560e01c80636e25b97814602a575b5f80fd5b60306046565b604051603d9392919060a4565b60405180910390f35b5f805f63f851a44060e01b635c60da1b60e01b633659cfe660e01b925092509250909192565b5f7fffffffff0000000000000000000000000000000000000000000000000000000082169050919050565b609e81606c565b82525050565b5f60608201905060b55f8301866097565b60c060208301856097565b60cb60408301846097565b94935050505056fea2646970667358221220afdad97363486cc970fbb252388ea90a2a44e63675e2ec7f2d4f46ac66a85a9564736f6c63430008190033",
					"opcodes": "PUSH1 0x80 PUSH1 0x40 MSTORE CALLVALUE DUP1 ISZERO PUSH1 0xE JUMPI PUSH0 DUP1 REVERT JUMPDEST POP PUSH2 0x109 DUP1 PUSH2 0x1C PUSH0 CODECOPY PUSH0 RETURN INVALID PUSH1 0x80 PUSH1 0x40 MSTORE CALLVALUE DUP1 ISZERO PUSH1 0xE JUMPI PUSH0 DUP1 REVERT JUMPDEST POP PUSH1 0x4 CALLDATASIZE LT PUSH1 0x26 JUMPI PUSH0 CALLDATALOAD PUSH1 0xE0 SHR DUP1 PUSH4 0x6E25B978 EQ PUSH1 0x2A JUMPI JUMPDEST PUSH0 DUP1 REVERT JUMPDEST PUSH1 0x30 PUSH1 0x46 JUMP JUMPDEST PUSH1 0x40 MLOAD PUSH1 0x3D SWAP4 SWAP3 SWAP2 SWAP1 PUSH1 0xA4 JUMP JUMPDEST PUSH1 0x40 MLOAD DUP1 SWAP2 SUB SWAP1 RETURN JUMPDEST PUSH0 DUP1 PUSH0 PUSH4 0xF851A440 PUSH1 0xE0 SHL PUSH4 0x5C60DA1B PUSH1 0xE0 SHL PUSH4 0x3659CFE6 PUSH1 0xE0 SHL SWAP3 POP SWAP3 POP SWAP3 POP SWAP1 SWAP2 SWAP3 JUMP JUMPDEST PUSH0 PUSH32 0xFFFFFFFF00000000000000000000000000000000000000000000000000000000 DUP3 AND SWAP1 POP SWAP2 SWAP1 POP JUMP JUMPDEST PUSH1 0x9E DUP2 PUSH1 0x6C JUMP JUMPDEST DUP3 MSTORE POP POP JUMP JUMPDEST PUSH0 PUSH1 0x60 DUP3 ADD SWAP1 POP PUSH1 0xB5 PUSH0 DUP4 ADD DUP7 PUSH1 0x97 JUMP JUMPDEST PUSH1 0xC0 PUSH1 0x20 DUP4 ADD DUP6 PUSH1 0x97 JUMP JUMPDEST PUSH1 0xCB PUSH1 0x40 DUP4 ADD DUP5 PUSH1 0x97 JUMP JUMPDEST SWAP5 SWAP4 POP POP POP POP JUMP INVALID LOG2 PUSH5 0x6970667358 0x22 SLT KECCAK256 0xAF 0xDA 0xD9 PUSH20 0x63486CC970FBB252388EA90A2A44E63675E2EC7F 0x2D 0x4F CHAINID 0xAC PUSH7 0xA85A9564736F6C PUSH4 0x43000819 STOP CALLER "
				},
				"gasEstimates": {
					"creation": {
						"codeDepositCost": "53000",
						"executionCost": "103",
						"totalCost": "53103"
					},
					"external": {
						"selectors()": "infinite"
					}
				},
				"methodIdentifiers": {
					"selectors()": "6e25b978"
				}
			},
			"storageLayout": {
				"storage": [],
				"types": null
			},
			"userdoc": {
				"kind": "user",
				"methods": {},
				"version": 1
			}
		}
	}
}