{
	"contracts/L63-Transparent-Proxy-Contract.sol": {
		"TestSlot": {
			"abi": [
				{
					"inputs": [],
					"name": "getSlot",
					"outputs": [
						{
							"internalType": "address",
							"name": "",
							"type": "address"
						}
					],
					"stateMutability": "view",
					"type": "function"
				},
				{
					"inputs": [],
					"name": "slot",
					"outputs": [
						{
							"internalType": "bytes32",
							"name": "",
							"type": "bytes32"
						}
					],
					"stateMutability": "view",
					"type": "function"
				},
				{
					"inputs": [
						{
							"internalType": "address",
							"name": "_addr",
							"type": "address"
						}
					],
					"name": "writeSlot",
					"outputs": [],
					"stateMutability": "nonpayable",
					"type": "function"
				}
			],
			"devdoc": {
				"kind": "dev",
				"methods": {},
				"version": 1
			},
			"evm": {
				"assembly": "    /* \"contracts/L63-Transparent-Proxy-Contract.sol\":10724:11035  contract TestSlot {... */\n  mstore(0x40, 0x80)\n  callvalue\n  dup1\n  iszero\n  tag_1\n  jumpi\n  0x00\n  dup1\n  revert\ntag_1:\n  pop\n  dataSize(sub_0)\n  dup1\n  dataOffset(sub_0)\n  0x00\n  codecopy\n  0x00\n  return\nstop\n\nsub_0: assembly {\n        /* \"contracts/L63-Transparent-Proxy-Contract.sol\":10724:11035  contract TestSlot {... */\n      mstore(0x40, 0x80)\n      callvalue\n      dup1\n      iszero\n      tag_1\n      jumpi\n      0x00\n      dup1\n      revert\n    tag_1:\n      pop\n      jumpi(tag_2, lt(calldatasize, 0x04))\n      shr(0xe0, calldataload(0x00))\n      dup1\n      0x1a88bc66\n      eq\n      tag_3\n      jumpi\n      dup1\n      0x6c877c84\n      eq\n      tag_4\n      jumpi\n      dup1\n      0x80dee782\n      eq\n      tag_5\n      jumpi\n    tag_2:\n      0x00\n      dup1\n      revert\n        /* \"contracts/L63-Transparent-Proxy-Contract.sol\":10748:10801  bytes32 public constant slot = keccak256(\"TEST_SLOT\") */\n    tag_3:\n      tag_6\n      tag_7\n      jump\t// in\n    tag_6:\n      mload(0x40)\n      tag_8\n      swap2\n      swap1\n      tag_9\n      jump\t// in\n    tag_8:\n      mload(0x40)\n      dup1\n      swap2\n      sub\n      swap1\n      return\n        /* \"contracts/L63-Transparent-Proxy-Contract.sol\":10808:10921  function getSlot() external view returns (address) {... */\n    tag_4:\n      tag_10\n      tag_11\n      jump\t// in\n    tag_10:\n      mload(0x40)\n      tag_12\n      swap2\n      swap1\n      tag_13\n      jump\t// in\n    tag_12:\n      mload(0x40)\n      dup1\n      swap2\n      sub\n      swap1\n      return\n        /* \"contracts/L63-Transparent-Proxy-Contract.sol\":10927:11033  function writeSlot(address _addr) external {... */\n    tag_5:\n      tag_14\n      0x04\n      dup1\n      calldatasize\n      sub\n      dup2\n      add\n      swap1\n      tag_15\n      swap2\n      swap1\n      tag_16\n      jump\t// in\n    tag_15:\n      tag_17\n      jump\t// in\n    tag_14:\n      stop\n        /* \"contracts/L63-Transparent-Proxy-Contract.sol\":10748:10801  bytes32 public constant slot = keccak256(\"TEST_SLOT\") */\n    tag_7:\n        /* \"contracts/L63-Transparent-Proxy-Contract.sol\":10779:10801  keccak256(\"TEST_SLOT\") */\n      0xa7cb26ea17989bb9c5eb391c94c40892dcdc94bb4c381353450910ba80883e1c\n        /* \"contracts/L63-Transparent-Proxy-Contract.sol\":10748:10801  bytes32 public constant slot = keccak256(\"TEST_SLOT\") */\n      dup2\n      jump\t// out\n        /* \"contracts/L63-Transparent-Proxy-Contract.sol\":10808:10921  function getSlot() external view returns (address) {... */\n    tag_11:\n        /* \"contracts/L63-Transparent-Proxy-Contract.sol\":10850:10857  address */\n      0x00\n        /* \"contracts/L63-Transparent-Proxy-Contract.sol\":10876:10908  StorageSlot.getAddressSlot(slot) */\n      tag_19\n        /* \"contracts/L63-Transparent-Proxy-Contract.sol\":10779:10801  keccak256(\"TEST_SLOT\") */\n      0xa7cb26ea17989bb9c5eb391c94c40892dcdc94bb4c381353450910ba80883e1c\n        /* \"contracts/L63-Transparent-Proxy-Contract.sol\":10876:10902  StorageSlot.getAddressSlot */\n      tag_20\n        /* \"contracts/L63-Transparent-Proxy-Contract.sol\":10876:10908  StorageSlot.getAddressSlot(slot) */\n      jump\t// in\n    tag_19:\n        /* \"contracts/L63-Transparent-Proxy-Contract.sol\":10876:10914  StorageSlot.getAddressSlot(slot).value */\n      0x00\n      add\n      0x00\n      swap1\n      sload\n      swap1\n      0x0100\n      exp\n      swap1\n      div\n      0xffffffffffffffffffffffffffffffffffffffff\n      and\n        /* \"contracts/L63-Transparent-Proxy-Contract.sol\":10869:10914  return StorageSlot.getAddressSlot(slot).value */\n      swap1\n      pop\n        /* \"contracts/L63-Transparent-Proxy-Contract.sol\":10808:10921  function getSlot() external view returns (address) {... */\n      swap1\n      jump\t// out\n        /* \"contracts/L63-Transparent-Proxy-Contract.sol\":10927:11033  function writeSlot(address _addr) external {... */\n    tag_17:\n        /* \"contracts/L63-Transparent-Proxy-Contract.sol\":11021:11026  _addr */\n      dup1\n        /* \"contracts/L63-Transparent-Proxy-Contract.sol\":10980:11012  StorageSlot.getAddressSlot(slot) */\n      tag_22\n        /* \"contracts/L63-Transparent-Proxy-Contract.sol\":10779:10801  keccak256(\"TEST_SLOT\") */\n      0xa7cb26ea17989bb9c5eb391c94c40892dcdc94bb4c381353450910ba80883e1c\n        /* \"contracts/L63-Transparent-Proxy-Contract.sol\":10980:11006  StorageSlot.getAddressSlot */\n      tag_20\n        /* \"contracts/L63-Transparent-Proxy-Contract.sol\":10980:11012  StorageSlot.getAddressSlot(slot) */\n      jump\t// in\n    tag_22:\n        /* \"contracts/L63-Transparent-Proxy-Contract.sol\":10980:11018  StorageSlot.getAddressSlot(slot).value */\n      0x00\n      add\n      0x00\n        /* \"contracts/L63-Transparent-Proxy-Contract.sol\":10980:11026  StorageSlot.getAddressSlot(slot).value = _addr */\n      0x0100\n      exp\n      dup2\n      sload\n      dup2\n      0xffffffffffffffffffffffffffffffffffffffff\n      mul\n      not\n      and\n      swap1\n      dup4\n      0xffffffffffffffffffffffffffffffffffffffff\n      and\n      mul\n      or\n      swap1\n      sstore\n      pop\n        /* \"contracts/L63-Transparent-Proxy-Contract.sol\":10927:11033  function writeSlot(address _addr) external {... */\n      pop\n      jump\t// out\n        /* \"contracts/L63-Transparent-Proxy-Contract.sol\":10559:10720  function getAddressSlot(... */\n    tag_20:\n        /* \"contracts/L63-Transparent-Proxy-Contract.sol\":10634:10655  AddressSlot storage r */\n      0x00\n        /* \"contracts/L63-Transparent-Proxy-Contract.sol\":10700:10704  slot */\n      dup2\n        /* \"contracts/L63-Transparent-Proxy-Contract.sol\":10690:10704  r.slot := slot */\n      swap1\n      pop\n        /* \"contracts/L63-Transparent-Proxy-Contract.sol\":10559:10720  function getAddressSlot(... */\n      swap2\n      swap1\n      pop\n      jump\t// out\n        /* \"#utility.yul\":7:84   */\n    tag_24:\n        /* \"#utility.yul\":44:51   */\n      0x00\n        /* \"#utility.yul\":73:78   */\n      dup2\n        /* \"#utility.yul\":62:78   */\n      swap1\n      pop\n        /* \"#utility.yul\":7:84   */\n      swap2\n      swap1\n      pop\n      jump\t// out\n        /* \"#utility.yul\":90:208   */\n    tag_25:\n        /* \"#utility.yul\":177:201   */\n      tag_37\n        /* \"#utility.yul\":195:200   */\n      dup2\n        /* \"#utility.yul\":177:201   */\n      tag_24\n      jump\t// in\n    tag_37:\n        /* \"#utility.yul\":172:175   */\n      dup3\n        /* \"#utility.yul\":165:202   */\n      mstore\n        /* \"#utility.yul\":90:208   */\n      pop\n      pop\n      jump\t// out\n        /* \"#utility.yul\":214:436   */\n    tag_9:\n        /* \"#utility.yul\":307:311   */\n      0x00\n        /* \"#utility.yul\":345:347   */\n      0x20\n        /* \"#utility.yul\":334:343   */\n      dup3\n        /* \"#utility.yul\":330:348   */\n      add\n        /* \"#utility.yul\":322:348   */\n      swap1\n      pop\n        /* \"#utility.yul\":358:429   */\n      tag_39\n        /* \"#utility.yul\":426:427   */\n      0x00\n        /* \"#utility.yul\":415:424   */\n      dup4\n        /* \"#utility.yul\":411:428   */\n      add\n        /* \"#utility.yul\":402:408   */\n      dup5\n        /* \"#utility.yul\":358:429   */\n      tag_25\n      jump\t// in\n    tag_39:\n        /* \"#utility.yul\":214:436   */\n      swap3\n      swap2\n      pop\n      pop\n      jump\t// out\n        /* \"#utility.yul\":442:568   */\n    tag_26:\n        /* \"#utility.yul\":479:486   */\n      0x00\n        /* \"#utility.yul\":519:561   */\n      0xffffffffffffffffffffffffffffffffffffffff\n        /* \"#utility.yul\":512:517   */\n      dup3\n        /* \"#utility.yul\":508:562   */\n      and\n        /* \"#utility.yul\":497:562   */\n      swap1\n      pop\n        /* \"#utility.yul\":442:568   */\n      swap2\n      swap1\n      pop\n      jump\t// out\n        /* \"#utility.yul\":574:670   */\n    tag_27:\n        /* \"#utility.yul\":611:618   */\n      0x00\n        /* \"#utility.yul\":640:664   */\n      tag_42\n        /* \"#utility.yul\":658:663   */\n      dup3\n        /* \"#utility.yul\":640:664   */\n      tag_26\n      jump\t// in\n    tag_42:\n        /* \"#utility.yul\":629:664   */\n      swap1\n      pop\n        /* \"#utility.yul\":574:670   */\n      swap2\n      swap1\n      pop\n      jump\t// out\n        /* \"#utility.yul\":676:794   */\n    tag_28:\n        /* \"#utility.yul\":763:787   */\n      tag_44\n        /* \"#utility.yul\":781:786   */\n      dup2\n        /* \"#utility.yul\":763:787   */\n      tag_27\n      jump\t// in\n    tag_44:\n        /* \"#utility.yul\":758:761   */\n      dup3\n        /* \"#utility.yul\":751:788   */\n      mstore\n        /* \"#utility.yul\":676:794   */\n      pop\n      pop\n      jump\t// out\n        /* \"#utility.yul\":800:1022   */\n    tag_13:\n        /* \"#utility.yul\":893:897   */\n      0x00\n        /* \"#utility.yul\":931:933   */\n      0x20\n        /* \"#utility.yul\":920:929   */\n      dup3\n        /* \"#utility.yul\":916:934   */\n      add\n        /* \"#utility.yul\":908:934   */\n      swap1\n      pop\n        /* \"#utility.yul\":944:1015   */\n      tag_46\n        /* \"#utility.yul\":1012:1013   */\n      0x00\n        /* \"#utility.yul\":1001:1010   */\n      dup4\n        /* \"#utility.yul\":997:1014   */\n      add\n        /* \"#utility.yul\":988:994   */\n      dup5\n        /* \"#utility.yul\":944:1015   */\n      tag_28\n      jump\t// in\n    tag_46:\n        /* \"#utility.yul\":800:1022   */\n      swap3\n      swap2\n      pop\n      pop\n      jump\t// out\n        /* \"#utility.yul\":1109:1226   */\n    tag_30:\n        /* \"#utility.yul\":1218:1219   */\n      0x00\n        /* \"#utility.yul\":1215:1216   */\n      dup1\n        /* \"#utility.yul\":1208:1220   */\n      revert\n        /* \"#utility.yul\":1355:1477   */\n    tag_32:\n        /* \"#utility.yul\":1428:1452   */\n      tag_51\n        /* \"#utility.yul\":1446:1451   */\n      dup2\n        /* \"#utility.yul\":1428:1452   */\n      tag_27\n      jump\t// in\n    tag_51:\n        /* \"#utility.yul\":1421:1426   */\n      dup2\n        /* \"#utility.yul\":1418:1453   */\n      eq\n        /* \"#utility.yul\":1408:1471   */\n      tag_52\n      jumpi\n        /* \"#utility.yul\":1467:1468   */\n      0x00\n        /* \"#utility.yul\":1464:1465   */\n      dup1\n        /* \"#utility.yul\":1457:1469   */\n      revert\n        /* \"#utility.yul\":1408:1471   */\n    tag_52:\n        /* \"#utility.yul\":1355:1477   */\n      pop\n      jump\t// out\n        /* \"#utility.yul\":1483:1622   */\n    tag_33:\n        /* \"#utility.yul\":1529:1534   */\n      0x00\n        /* \"#utility.yul\":1567:1573   */\n      dup2\n        /* \"#utility.yul\":1554:1574   */\n      calldataload\n        /* \"#utility.yul\":1545:1574   */\n      swap1\n      pop\n        /* \"#utility.yul\":1583:1616   */\n      tag_54\n        /* \"#utility.yul\":1610:1615   */\n      dup2\n        /* \"#utility.yul\":1583:1616   */\n      tag_32\n      jump\t// in\n    tag_54:\n        /* \"#utility.yul\":1483:1622   */\n      swap3\n      swap2\n      pop\n      pop\n      jump\t// out\n        /* \"#utility.yul\":1628:1957   */\n    tag_16:\n        /* \"#utility.yul\":1687:1693   */\n      0x00\n        /* \"#utility.yul\":1736:1738   */\n      0x20\n        /* \"#utility.yul\":1724:1733   */\n      dup3\n        /* \"#utility.yul\":1715:1722   */\n      dup5\n        /* \"#utility.yul\":1711:1734   */\n      sub\n        /* \"#utility.yul\":1707:1739   */\n      slt\n        /* \"#utility.yul\":1704:1823   */\n      iszero\n      tag_56\n      jumpi\n        /* \"#utility.yul\":1742:1821   */\n      tag_57\n      tag_30\n      jump\t// in\n    tag_57:\n        /* \"#utility.yul\":1704:1823   */\n    tag_56:\n        /* \"#utility.yul\":1862:1863   */\n      0x00\n        /* \"#utility.yul\":1887:1940   */\n      tag_58\n        /* \"#utility.yul\":1932:1939   */\n      dup5\n        /* \"#utility.yul\":1923:1929   */\n      dup3\n        /* \"#utility.yul\":1912:1921   */\n      dup6\n        /* \"#utility.yul\":1908:1930   */\n      add\n        /* \"#utility.yul\":1887:1940   */\n      tag_33\n      jump\t// in\n    tag_58:\n        /* \"#utility.yul\":1877:1940   */\n      swap2\n      pop\n        /* \"#utility.yul\":1833:1950   */\n      pop\n        /* \"#utility.yul\":1628:1957   */\n      swap3\n      swap2\n      pop\n      pop\n      jump\t// out\n\n    auxdata: 0xa2646970667358221220bad983aeb95014aa94dd2bdefb04bdf162fdfff2429c877cf50cf6954dd4d51864736f6c63430008190033\n}\n",
				"bytecode": {
					"linkReferences": {},
					"object": "6080604052348015600e575f80fd5b5061029d8061001c5f395ff3fe608060405234801561000f575f80fd5b506004361061003f575f3560e01c80631a88bc66146100435780636c877c841461006157806380dee7821461007f575b5f80fd5b61004b61009b565b604051610058919061019d565b60405180910390f35b6100696100bf565b60405161007691906101f5565b60405180910390f35b6100996004803603810190610094919061023c565b610110565b005b7fa7cb26ea17989bb9c5eb391c94c40892dcdc94bb4c381353450910ba80883e1c81565b5f6100e97fa7cb26ea17989bb9c5eb391c94c40892dcdc94bb4c381353450910ba80883e1c61017c565b5f015f9054906101000a900473ffffffffffffffffffffffffffffffffffffffff16905090565b8061013a7fa7cb26ea17989bb9c5eb391c94c40892dcdc94bb4c381353450910ba80883e1c61017c565b5f015f6101000a81548173ffffffffffffffffffffffffffffffffffffffff021916908373ffffffffffffffffffffffffffffffffffffffff16021790555050565b5f819050919050565b5f819050919050565b61019781610185565b82525050565b5f6020820190506101b05f83018461018e565b92915050565b5f73ffffffffffffffffffffffffffffffffffffffff82169050919050565b5f6101df826101b6565b9050919050565b6101ef816101d5565b82525050565b5f6020820190506102085f8301846101e6565b92915050565b5f80fd5b61021b816101d5565b8114610225575f80fd5b50565b5f8135905061023681610212565b92915050565b5f602082840312156102515761025061020e565b5b5f61025e84828501610228565b9150509291505056fea2646970667358221220bad983aeb95014aa94dd2bdefb04bdf162fdfff2429c877cf50cf6954dd4d51864736f6c63430008190033",
					"opcodes": "PUSH1 0x80 PUSH1 0x40 MSTORE CALLVALUE DUP1 ISZERO PUSH1 0xE JUMPI PUSH0 DUP1 REVERT JUMPDEST POP PUSH2 0x29D DUP1 PUSH2 0x1C PUSH0 CODECOPY PUSH0 RETURN INVALID PUSH1 0x80 PUSH1 0x40 MSTORE CALLVALUE DUP1 ISZERO PUSH2 0xF JUMPI PUSH0 DUP1 REVERT JUMPDEST POP PUSH1 0x4 CALLDATASIZE LT PUSH2 0x3F JUMPI PUSH0 CALLDATALOAD PUSH1 0xE0 SHR DUP1 PUSH4 0x1A88BC66 EQ PUSH2 0x43 JUMPI DUP1 PUSH4 0x6C877C84 EQ PUSH2 0x61 JUMPI DUP1 PUSH4 0x80DEE782 EQ PUSH2 0x7F JUMPI JUMPDEST PUSH0 DUP1 REVERT JUMPDEST PUSH2 0x4B PUSH2 0x9B JUMP JUMPDEST PUSH1 0x40 MLOAD PUSH2 0x58 SWAP2 SWAP1 PUSH2 0x19D JUMP JUMPDEST PUSH1 0x40 MLOAD DUP1 SWAP2 SUB SWAP1 RETURN JUMPDEST PUSH2 0x69 PUSH2 0xBF JUMP JUMPDEST PUSH1 0x40 MLOAD PUSH2 0x76 SWAP2 SWAP1 PUSH2 0x1F5 JUMP JUMPDEST PUSH1 0x40 MLOAD DUP1 SWAP2 SUB SWAP1 RETURN JUMPDEST PUSH2 0x99 PUSH1 0x4 DUP1 CALLDATASIZE SUB DUP2 ADD SWAP1 PUSH2 0x94 SWAP2 SWAP1 PUSH2 0x23C JUMP JUMPDEST PUSH2 0x110 JUMP JUMPDEST STOP JUMPDEST PUSH32 0xA7CB26EA17989BB9C5EB391C94C40892DCDC94BB4C381353450910BA80883E1C DUP2 JUMP JUMPDEST PUSH0 PUSH2 0xE9 PUSH32 0xA7CB26EA17989BB9C5EB391C94C40892DCDC94BB4C381353450910BA80883E1C PUSH2 0x17C JUMP JUMPDEST PUSH0 ADD PUSH0 SWAP1 SLOAD SWAP1 PUSH2 0x100 EXP SWAP1 DIV PUSH20 0xFFFFFFFFFFFFFFFFFFFFFFFFFFFFFFFFFFFFFFFF AND SWAP1 POP SWAP1 JUMP JUMPDEST DUP1 PUSH2 0x13A PUSH32 0xA7CB26EA17989BB9C5EB391C94C40892DCDC94BB4C381353450910BA80883E1C PUSH2 0x17C JUMP JUMPDEST PUSH0 ADD PUSH0 PUSH2 0x100 EXP DUP2 SLOAD DUP2 PUSH20 0xFFFFFFFFFFFFFFFFFFFFFFFFFFFFFFFFFFFFFFFF MUL NOT AND SWAP1 DUP4 PUSH20 0xFFFFFFFFFFFFFFFFFFFFFFFFFFFFFFFFFFFFFFFF AND MUL OR SWAP1 SSTORE POP POP JUMP JUMPDEST PUSH0 DUP2 SWAP1 POP SWAP2 SWAP1 POP JUMP JUMPDEST PUSH0 DUP2 SWAP1 POP SWAP2 SWAP1 POP JUMP JUMPDEST PUSH2 0x197 DUP2 PUSH2 0x185 JUMP JUMPDEST DUP3 MSTORE POP POP JUMP JUMPDEST PUSH0 PUSH1 0x20 DUP3 ADD SWAP1 POP PUSH2 0x1B0 PUSH0 DUP4 ADD DUP5 PUSH2 0x18E JUMP JUMPDEST SWAP3 SWAP2 POP POP JUMP JUMPDEST PUSH0 PUSH20 0xFFFFFFFFFFFFFFFFFFFFFFFFFFFFFFFFFFFFFFFF DUP3 AND SWAP1 POP SWAP2 SWAP1 POP JUMP JUMPDEST PUSH0 PUSH2 0x1DF DUP3 PUSH2 0x1B6 JUMP JUMPDEST SWAP1 POP SWAP2 SWAP1 POP JUMP JUMPDEST PUSH2 0x1EF DUP2 PUSH2 0x1D5 JUMP JUMPDEST DUP3 MSTORE POP POP JUMP JUMPDEST PUSH0 PUSH1 0x20 DUP3 ADD SWAP1 POP PUSH2 0x208 PUSH0 DUP4 ADD DUP5 PUSH2 0x1E6 JUMP JUMPDEST SWAP3 SWAP2 POP POP JUMP JUMPDEST PUSH0 DUP1 REVERT JUMPDEST PUSH2 0x21B DUP2 PUSH2 0x1D5 JUMP JUMPDEST DUP2 EQ PUSH2 0x225 JUMPI PUSH0 DUP1 REVERT JUMPDEST POP JUMP JUMPDEST PUSH0 DUP2 CALLDATALOAD SWAP1 POP PUSH2 0x236 DUP2 PUSH2 0x212 JUMP JUMPDEST SWAP3 SWAP2 POP POP JUMP JUMPDEST PUSH0 PUSH1 0x20 DUP3 DUP5 SUB SLT ISZERO PUSH2 0x251 JUMPI PUSH2 0x250 PUSH2 0x20E JUMP JUMPDEST JUMPDEST PUSH0 PUSH2 0x25E DUP5 DUP3 DUP6 ADD PUSH2 0x228 JUMP JUMPDEST SWAP2 POP POP SWAP3 SWAP2 POP POP JUMP INVALID LOG2 PUSH5 0x6970667358 0x22 SLT KECCAK256 0xBA 0xD9 DUP4 0xAE 0xB9 POP EQ 0xAA SWAP5 0xDD 0x2B 0xDE 0xFB DIV 0xBD CALL PUSH3 0xFDFFF2 TIMESTAMP SWAP13 DUP8 PUSH29 0xF50CF6954DD4D51864736F6C6343000819003300000000000000000000 "
				},
				"gasEstimates": {
					"creation": {
						"codeDepositCost": "133800",
						"executionCost": "175",
						"totalCost": "133975"
					},
					"external": {
						"getSlot()": "2562",
						"slot()": "303",
						"writeSlot(address)": "24784"
					}
				},
				"methodIdentifiers": {
					"getSlot()": "6c877c84",
					"slot()": "1a88bc66",
					"writeSlot(address)": "80dee782"
				}
			},
			"storageLayout": {
				"storage": [],
				"types": null
			},
			"userdoc": {
				"kind": "user",
				"methods": {},
				"version": 1
			}
		}
	}
}