{
	"contracts/L19- Deploy any Contract [IMP}.sol": {
		"Proxy": {
			"abi": [
				{
					"anonymous": false,
					"inputs": [
						{
							"indexed": false,
							"internalType": "address",
							"name": "",
							"type": "address"
						}
					],
					"name": "Deploy",
					"type": "event"
				},
				{
					"inputs": [
						{
							"internalType": "bytes",
							"name": "_code",
							"type": "bytes"
						}
					],
					"name": "deploy",
					"outputs": [
						{
							"internalType": "address",
							"name": "addr",
							"type": "address"
						}
					],
					"stateMutability": "payable",
					"type": "function"
				},
				{
					"inputs": [
						{
							"internalType": "address",
							"name": "_target",
							"type": "address"
						},
						{
							"internalType": "bytes",
							"name": "_data",
							"type": "bytes"
						}
					],
					"name": "execute",
					"outputs": [],
					"stateMutability": "payable",
					"type": "function"
				},
				{
					"stateMutability": "payable",
					"type": "receive"
				}
			],
			"devdoc": {
				"kind": "dev",
				"methods": {},
				"version": 1
			},
			"evm": {
				"assembly": "    /* \"contracts/L19- Deploy any Contract [IMP}.sol\":58:1090  contract Proxy {... */\n  mstore(0x40, 0x80)\n  callvalue\n  dup1\n  iszero\n  tag_1\n  jumpi\n  0x00\n  dup1\n  revert\ntag_1:\n  pop\n  dataSize(sub_0)\n  dup1\n  dataOffset(sub_0)\n  0x00\n  codecopy\n  0x00\n  return\nstop\n\nsub_0: assembly {\n        /* \"contracts/L19- Deploy any Contract [IMP}.sol\":58:1090  contract Proxy {... */\n      mstore(0x40, 0x80)\n      jumpi(tag_1, lt(calldatasize, 0x04))\n      shr(0xe0, calldataload(0x00))\n      dup1\n      0x774360\n      eq\n      tag_3\n      jumpi\n      dup1\n      0x1cff79cd\n      eq\n      tag_4\n      jumpi\n      jump(tag_2)\n    tag_1:\n      jumpi(tag_2, calldatasize)\n      stop\n    tag_2:\n      0x00\n      dup1\n      revert\n        /* \"contracts/L19- Deploy any Contract [IMP}.sol\":147:883  function deploy(bytes memory _code) external payable returns (address addr) {... */\n    tag_3:\n      tag_7\n      0x04\n      dup1\n      calldatasize\n      sub\n      dup2\n      add\n      swap1\n      tag_8\n      swap2\n      swap1\n      tag_9\n      jump\t// in\n    tag_8:\n      tag_10\n      jump\t// in\n    tag_7:\n      mload(0x40)\n      tag_11\n      swap2\n      swap1\n      tag_12\n      jump\t// in\n    tag_11:\n      mload(0x40)\n      dup1\n      swap2\n      sub\n      swap1\n      return\n        /* \"contracts/L19- Deploy any Contract [IMP}.sol\":891:1087  function execute(address _target, bytes memory _data) external payable {... */\n    tag_4:\n      tag_13\n      0x04\n      dup1\n      calldatasize\n      sub\n      dup2\n      add\n      swap1\n      tag_14\n      swap2\n      swap1\n      tag_15\n      jump\t// in\n    tag_14:\n      tag_16\n      jump\t// in\n    tag_13:\n      stop\n        /* \"contracts/L19- Deploy any Contract [IMP}.sol\":147:883  function deploy(bytes memory _code) external payable returns (address addr) {... */\n    tag_10:\n        /* \"contracts/L19- Deploy any Contract [IMP}.sol\":209:221  address addr */\n      0x00\n        /* \"contracts/L19- Deploy any Contract [IMP}.sol\":472:477  _code */\n      dup2\n        /* \"contracts/L19- Deploy any Contract [IMP}.sol\":466:478  mload(_code) */\n      mload\n        /* \"contracts/L19- Deploy any Contract [IMP}.sol\":459:463  0x20 */\n      0x20\n        /* \"contracts/L19- Deploy any Contract [IMP}.sol\":452:457  _code */\n      dup4\n        /* \"contracts/L19- Deploy any Contract [IMP}.sol\":448:464  add(_code, 0x20) */\n      add\n        /* \"contracts/L19- Deploy any Contract [IMP}.sol\":435:446  callvalue() */\n      callvalue\n        /* \"contracts/L19- Deploy any Contract [IMP}.sol\":428:479  create(callvalue(), add(_code, 0x20), mload(_code)) */\n      create\n        /* \"contracts/L19- Deploy any Contract [IMP}.sol\":420:479  addr := create(callvalue(), add(_code, 0x20), mload(_code)) */\n      swap1\n      pop\n        /* \"contracts/L19- Deploy any Contract [IMP}.sol\":825:826  0 */\n      0x00\n        /* \"contracts/L19- Deploy any Contract [IMP}.sol\":809:827  addr != address(0) */\n      0xffffffffffffffffffffffffffffffffffffffff\n      and\n        /* \"contracts/L19- Deploy any Contract [IMP}.sol\":809:813  addr */\n      dup2\n        /* \"contracts/L19- Deploy any Contract [IMP}.sol\":809:827  addr != address(0) */\n      0xffffffffffffffffffffffffffffffffffffffff\n      and\n      sub\n        /* \"contracts/L19- Deploy any Contract [IMP}.sol\":801:845  require(addr != address(0), \"deploy failed\") */\n      tag_18\n      jumpi\n      mload(0x40)\n      0x08c379a000000000000000000000000000000000000000000000000000000000\n      dup2\n      mstore\n      0x04\n      add\n      tag_19\n      swap1\n      tag_20\n      jump\t// in\n    tag_19:\n      mload(0x40)\n      dup1\n      swap2\n      sub\n      swap1\n      revert\n    tag_18:\n        /* \"contracts/L19- Deploy any Contract [IMP}.sol\":863:875  Deploy(addr) */\n      0x55ea6c6b31543d8e2ec6a72f71a79c0f4b72ed0d4757172b043d8f4f4cd84848\n        /* \"contracts/L19- Deploy any Contract [IMP}.sol\":870:874  addr */\n      dup2\n        /* \"contracts/L19- Deploy any Contract [IMP}.sol\":863:875  Deploy(addr) */\n      mload(0x40)\n      tag_21\n      swap2\n      swap1\n      tag_12\n      jump\t// in\n    tag_21:\n      mload(0x40)\n      dup1\n      swap2\n      sub\n      swap1\n      log1\n        /* \"contracts/L19- Deploy any Contract [IMP}.sol\":147:883  function deploy(bytes memory _code) external payable returns (address addr) {... */\n      swap2\n      swap1\n      pop\n      jump\t// out\n        /* \"contracts/L19- Deploy any Contract [IMP}.sol\":891:1087  function execute(address _target, bytes memory _data) external payable {... */\n    tag_16:\n        /* \"contracts/L19- Deploy any Contract [IMP}.sol\":974:986  bool success */\n      0x00\n        /* \"contracts/L19- Deploy any Contract [IMP}.sol\":992:999  _target */\n      dup3\n        /* \"contracts/L19- Deploy any Contract [IMP}.sol\":992:1004  _target.call */\n      0xffffffffffffffffffffffffffffffffffffffff\n      and\n        /* \"contracts/L19- Deploy any Contract [IMP}.sol\":1012:1021  msg.value */\n      callvalue\n        /* \"contracts/L19- Deploy any Contract [IMP}.sol\":1028:1034  100000 */\n      0x0186a0\n        /* \"contracts/L19- Deploy any Contract [IMP}.sol\":992:1042  _target.call{value: msg.value, gas: 100000}(_data) */\n      swap1\n        /* \"contracts/L19- Deploy any Contract [IMP}.sol\":1036:1041  _data */\n      dup5\n        /* \"contracts/L19- Deploy any Contract [IMP}.sol\":992:1042  _target.call{value: msg.value, gas: 100000}(_data) */\n      mload(0x40)\n      tag_23\n      swap2\n      swap1\n      tag_24\n      jump\t// in\n    tag_23:\n      0x00\n      mload(0x40)\n      dup1\n      dup4\n      sub\n      dup2\n      dup6\n      dup9\n      dup9\n      call\n      swap4\n      pop\n      pop\n      pop\n      pop\n      returndatasize\n      dup1\n      0x00\n      dup2\n      eq\n      tag_27\n      jumpi\n      mload(0x40)\n      swap2\n      pop\n      and(add(returndatasize, 0x3f), not(0x1f))\n      dup3\n      add\n      0x40\n      mstore\n      returndatasize\n      dup3\n      mstore\n      returndatasize\n      0x00\n      0x20\n      dup5\n      add\n      returndatacopy\n      jump(tag_26)\n    tag_27:\n      0x60\n      swap2\n      pop\n    tag_26:\n      pop\n        /* \"contracts/L19- Deploy any Contract [IMP}.sol\":973:1042  (bool success, ) = _target.call{value: msg.value, gas: 100000}(_data) */\n      pop\n      swap1\n      pop\n        /* \"contracts/L19- Deploy any Contract [IMP}.sol\":1061:1068  success */\n      dup1\n        /* \"contracts/L19- Deploy any Contract [IMP}.sol\":1053:1079  require(success, \"failed\") */\n      tag_28\n      jumpi\n      mload(0x40)\n      0x08c379a000000000000000000000000000000000000000000000000000000000\n      dup2\n      mstore\n      0x04\n      add\n      tag_29\n      swap1\n      tag_30\n      jump\t// in\n    tag_29:\n      mload(0x40)\n      dup1\n      swap2\n      sub\n      swap1\n      revert\n    tag_28:\n        /* \"contracts/L19- Deploy any Contract [IMP}.sol\":962:1087  {... */\n      pop\n        /* \"contracts/L19- Deploy any Contract [IMP}.sol\":891:1087  function execute(address _target, bytes memory _data) external payable {... */\n      pop\n      pop\n      jump\t// out\n        /* \"#utility.yul\":7:82   */\n    tag_31:\n        /* \"#utility.yul\":40:46   */\n      0x00\n        /* \"#utility.yul\":73:75   */\n      0x40\n        /* \"#utility.yul\":67:76   */\n      mload\n        /* \"#utility.yul\":57:76   */\n      swap1\n      pop\n        /* \"#utility.yul\":7:82   */\n      swap1\n      jump\t// out\n        /* \"#utility.yul\":88:205   */\n    tag_32:\n        /* \"#utility.yul\":197:198   */\n      0x00\n        /* \"#utility.yul\":194:195   */\n      dup1\n        /* \"#utility.yul\":187:199   */\n      revert\n        /* \"#utility.yul\":211:328   */\n    tag_33:\n        /* \"#utility.yul\":320:321   */\n      0x00\n        /* \"#utility.yul\":317:318   */\n      dup1\n        /* \"#utility.yul\":310:322   */\n      revert\n        /* \"#utility.yul\":334:451   */\n    tag_34:\n        /* \"#utility.yul\":443:444   */\n      0x00\n        /* \"#utility.yul\":440:441   */\n      dup1\n        /* \"#utility.yul\":433:445   */\n      revert\n        /* \"#utility.yul\":457:574   */\n    tag_35:\n        /* \"#utility.yul\":566:567   */\n      0x00\n        /* \"#utility.yul\":563:564   */\n      dup1\n        /* \"#utility.yul\":556:568   */\n      revert\n        /* \"#utility.yul\":580:682   */\n    tag_36:\n        /* \"#utility.yul\":621:627   */\n      0x00\n        /* \"#utility.yul\":672:674   */\n      0x1f\n        /* \"#utility.yul\":668:675   */\n      not\n        /* \"#utility.yul\":663:665   */\n      0x1f\n        /* \"#utility.yul\":656:661   */\n      dup4\n        /* \"#utility.yul\":652:666   */\n      add\n        /* \"#utility.yul\":648:676   */\n      and\n        /* \"#utility.yul\":638:676   */\n      swap1\n      pop\n        /* \"#utility.yul\":580:682   */\n      swap2\n      swap1\n      pop\n      jump\t// out\n        /* \"#utility.yul\":688:868   */\n    tag_37:\n        /* \"#utility.yul\":736:813   */\n      0x4e487b7100000000000000000000000000000000000000000000000000000000\n        /* \"#utility.yul\":733:734   */\n      0x00\n        /* \"#utility.yul\":726:814   */\n      mstore\n        /* \"#utility.yul\":833:837   */\n      0x41\n        /* \"#utility.yul\":830:831   */\n      0x04\n        /* \"#utility.yul\":823:838   */\n      mstore\n        /* \"#utility.yul\":857:861   */\n      0x24\n        /* \"#utility.yul\":854:855   */\n      0x00\n        /* \"#utility.yul\":847:862   */\n      revert\n        /* \"#utility.yul\":874:1155   */\n    tag_38:\n        /* \"#utility.yul\":957:984   */\n      tag_67\n        /* \"#utility.yul\":979:983   */\n      dup3\n        /* \"#utility.yul\":957:984   */\n      tag_36\n      jump\t// in\n    tag_67:\n        /* \"#utility.yul\":949:955   */\n      dup2\n        /* \"#utility.yul\":945:985   */\n      add\n        /* \"#utility.yul\":1087:1093   */\n      dup2\n        /* \"#utility.yul\":1075:1085   */\n      dup2\n        /* \"#utility.yul\":1072:1094   */\n      lt\n        /* \"#utility.yul\":1051:1069   */\n      0xffffffffffffffff\n        /* \"#utility.yul\":1039:1049   */\n      dup3\n        /* \"#utility.yul\":1036:1070   */\n      gt\n        /* \"#utility.yul\":1033:1095   */\n      or\n        /* \"#utility.yul\":1030:1118   */\n      iszero\n      tag_68\n      jumpi\n        /* \"#utility.yul\":1098:1116   */\n      tag_69\n      tag_37\n      jump\t// in\n    tag_69:\n        /* \"#utility.yul\":1030:1118   */\n    tag_68:\n        /* \"#utility.yul\":1138:1148   */\n      dup1\n        /* \"#utility.yul\":1134:1136   */\n      0x40\n        /* \"#utility.yul\":1127:1149   */\n      mstore\n        /* \"#utility.yul\":917:1155   */\n      pop\n        /* \"#utility.yul\":874:1155   */\n      pop\n      pop\n      jump\t// out\n        /* \"#utility.yul\":1161:1290   */\n    tag_39:\n        /* \"#utility.yul\":1195:1201   */\n      0x00\n        /* \"#utility.yul\":1222:1242   */\n      tag_71\n      tag_31\n      jump\t// in\n    tag_71:\n        /* \"#utility.yul\":1212:1242   */\n      swap1\n      pop\n        /* \"#utility.yul\":1251:1284   */\n      tag_72\n        /* \"#utility.yul\":1279:1283   */\n      dup3\n        /* \"#utility.yul\":1271:1277   */\n      dup3\n        /* \"#utility.yul\":1251:1284   */\n      tag_38\n      jump\t// in\n    tag_72:\n        /* \"#utility.yul\":1161:1290   */\n      swap2\n      swap1\n      pop\n      jump\t// out\n        /* \"#utility.yul\":1296:1603   */\n    tag_40:\n        /* \"#utility.yul\":1357:1361   */\n      0x00\n        /* \"#utility.yul\":1447:1465   */\n      0xffffffffffffffff\n        /* \"#utility.yul\":1439:1445   */\n      dup3\n        /* \"#utility.yul\":1436:1466   */\n      gt\n        /* \"#utility.yul\":1433:1489   */\n      iszero\n      tag_74\n      jumpi\n        /* \"#utility.yul\":1469:1487   */\n      tag_75\n      tag_37\n      jump\t// in\n    tag_75:\n        /* \"#utility.yul\":1433:1489   */\n    tag_74:\n        /* \"#utility.yul\":1507:1536   */\n      tag_76\n        /* \"#utility.yul\":1529:1535   */\n      dup3\n        /* \"#utility.yul\":1507:1536   */\n      tag_36\n      jump\t// in\n    tag_76:\n        /* \"#utility.yul\":1499:1536   */\n      swap1\n      pop\n        /* \"#utility.yul\":1591:1595   */\n      0x20\n        /* \"#utility.yul\":1585:1589   */\n      dup2\n        /* \"#utility.yul\":1581:1596   */\n      add\n        /* \"#utility.yul\":1573:1596   */\n      swap1\n      pop\n        /* \"#utility.yul\":1296:1603   */\n      swap2\n      swap1\n      pop\n      jump\t// out\n        /* \"#utility.yul\":1609:1755   */\n    tag_41:\n        /* \"#utility.yul\":1706:1712   */\n      dup3\n        /* \"#utility.yul\":1701:1704   */\n      dup2\n        /* \"#utility.yul\":1696:1699   */\n      dup4\n        /* \"#utility.yul\":1683:1713   */\n      calldatacopy\n        /* \"#utility.yul\":1747:1748   */\n      0x00\n        /* \"#utility.yul\":1738:1744   */\n      dup4\n        /* \"#utility.yul\":1733:1736   */\n      dup4\n        /* \"#utility.yul\":1729:1745   */\n      add\n        /* \"#utility.yul\":1722:1749   */\n      mstore\n        /* \"#utility.yul\":1609:1755   */\n      pop\n      pop\n      pop\n      jump\t// out\n        /* \"#utility.yul\":1761:2184   */\n    tag_42:\n        /* \"#utility.yul\":1838:1843   */\n      0x00\n        /* \"#utility.yul\":1863:1928   */\n      tag_79\n        /* \"#utility.yul\":1879:1927   */\n      tag_80\n        /* \"#utility.yul\":1920:1926   */\n      dup5\n        /* \"#utility.yul\":1879:1927   */\n      tag_40\n      jump\t// in\n    tag_80:\n        /* \"#utility.yul\":1863:1928   */\n      tag_39\n      jump\t// in\n    tag_79:\n        /* \"#utility.yul\":1854:1928   */\n      swap1\n      pop\n        /* \"#utility.yul\":1951:1957   */\n      dup3\n        /* \"#utility.yul\":1944:1949   */\n      dup2\n        /* \"#utility.yul\":1937:1958   */\n      mstore\n        /* \"#utility.yul\":1989:1993   */\n      0x20\n        /* \"#utility.yul\":1982:1987   */\n      dup2\n        /* \"#utility.yul\":1978:1994   */\n      add\n        /* \"#utility.yul\":2027:2030   */\n      dup5\n        /* \"#utility.yul\":2018:2024   */\n      dup5\n        /* \"#utility.yul\":2013:2016   */\n      dup5\n        /* \"#utility.yul\":2009:2025   */\n      add\n        /* \"#utility.yul\":2006:2031   */\n      gt\n        /* \"#utility.yul\":2003:2115   */\n      iszero\n      tag_81\n      jumpi\n        /* \"#utility.yul\":2034:2113   */\n      tag_82\n      tag_35\n      jump\t// in\n    tag_82:\n        /* \"#utility.yul\":2003:2115   */\n    tag_81:\n        /* \"#utility.yul\":2124:2178   */\n      tag_83\n        /* \"#utility.yul\":2171:2177   */\n      dup5\n        /* \"#utility.yul\":2166:2169   */\n      dup3\n        /* \"#utility.yul\":2161:2164   */\n      dup6\n        /* \"#utility.yul\":2124:2178   */\n      tag_41\n      jump\t// in\n    tag_83:\n        /* \"#utility.yul\":1844:2184   */\n      pop\n        /* \"#utility.yul\":1761:2184   */\n      swap4\n      swap3\n      pop\n      pop\n      pop\n      jump\t// out\n        /* \"#utility.yul\":2203:2541   */\n    tag_43:\n        /* \"#utility.yul\":2258:2263   */\n      0x00\n        /* \"#utility.yul\":2307:2310   */\n      dup3\n        /* \"#utility.yul\":2300:2304   */\n      0x1f\n        /* \"#utility.yul\":2292:2298   */\n      dup4\n        /* \"#utility.yul\":2288:2305   */\n      add\n        /* \"#utility.yul\":2284:2311   */\n      slt\n        /* \"#utility.yul\":2274:2396   */\n      tag_85\n      jumpi\n        /* \"#utility.yul\":2315:2394   */\n      tag_86\n      tag_34\n      jump\t// in\n    tag_86:\n        /* \"#utility.yul\":2274:2396   */\n    tag_85:\n        /* \"#utility.yul\":2432:2438   */\n      dup2\n        /* \"#utility.yul\":2419:2439   */\n      calldataload\n        /* \"#utility.yul\":2457:2535   */\n      tag_87\n        /* \"#utility.yul\":2531:2534   */\n      dup5\n        /* \"#utility.yul\":2523:2529   */\n      dup3\n        /* \"#utility.yul\":2516:2520   */\n      0x20\n        /* \"#utility.yul\":2508:2514   */\n      dup7\n        /* \"#utility.yul\":2504:2521   */\n      add\n        /* \"#utility.yul\":2457:2535   */\n      tag_42\n      jump\t// in\n    tag_87:\n        /* \"#utility.yul\":2448:2535   */\n      swap2\n      pop\n        /* \"#utility.yul\":2264:2541   */\n      pop\n        /* \"#utility.yul\":2203:2541   */\n      swap3\n      swap2\n      pop\n      pop\n      jump\t// out\n        /* \"#utility.yul\":2547:3054   */\n    tag_9:\n        /* \"#utility.yul\":2615:2621   */\n      0x00\n        /* \"#utility.yul\":2664:2666   */\n      0x20\n        /* \"#utility.yul\":2652:2661   */\n      dup3\n        /* \"#utility.yul\":2643:2650   */\n      dup5\n        /* \"#utility.yul\":2639:2662   */\n      sub\n        /* \"#utility.yul\":2635:2667   */\n      slt\n        /* \"#utility.yul\":2632:2751   */\n      iszero\n      tag_89\n      jumpi\n        /* \"#utility.yul\":2670:2749   */\n      tag_90\n      tag_32\n      jump\t// in\n    tag_90:\n        /* \"#utility.yul\":2632:2751   */\n    tag_89:\n        /* \"#utility.yul\":2818:2819   */\n      0x00\n        /* \"#utility.yul\":2807:2816   */\n      dup3\n        /* \"#utility.yul\":2803:2820   */\n      add\n        /* \"#utility.yul\":2790:2821   */\n      calldataload\n        /* \"#utility.yul\":2848:2866   */\n      0xffffffffffffffff\n        /* \"#utility.yul\":2840:2846   */\n      dup2\n        /* \"#utility.yul\":2837:2867   */\n      gt\n        /* \"#utility.yul\":2834:2951   */\n      iszero\n      tag_91\n      jumpi\n        /* \"#utility.yul\":2870:2949   */\n      tag_92\n      tag_33\n      jump\t// in\n    tag_92:\n        /* \"#utility.yul\":2834:2951   */\n    tag_91:\n        /* \"#utility.yul\":2975:3037   */\n      tag_93\n        /* \"#utility.yul\":3029:3036   */\n      dup5\n        /* \"#utility.yul\":3020:3026   */\n      dup3\n        /* \"#utility.yul\":3009:3018   */\n      dup6\n        /* \"#utility.yul\":3005:3027   */\n      add\n        /* \"#utility.yul\":2975:3037   */\n      tag_43\n      jump\t// in\n    tag_93:\n        /* \"#utility.yul\":2965:3037   */\n      swap2\n      pop\n        /* \"#utility.yul\":2761:3047   */\n      pop\n        /* \"#utility.yul\":2547:3054   */\n      swap3\n      swap2\n      pop\n      pop\n      jump\t// out\n        /* \"#utility.yul\":3060:3186   */\n    tag_44:\n        /* \"#utility.yul\":3097:3104   */\n      0x00\n        /* \"#utility.yul\":3137:3179   */\n      0xffffffffffffffffffffffffffffffffffffffff\n        /* \"#utility.yul\":3130:3135   */\n      dup3\n        /* \"#utility.yul\":3126:3180   */\n      and\n        /* \"#utility.yul\":3115:3180   */\n      swap1\n      pop\n        /* \"#utility.yul\":3060:3186   */\n      swap2\n      swap1\n      pop\n      jump\t// out\n        /* \"#utility.yul\":3192:3288   */\n    tag_45:\n        /* \"#utility.yul\":3229:3236   */\n      0x00\n        /* \"#utility.yul\":3258:3282   */\n      tag_96\n        /* \"#utility.yul\":3276:3281   */\n      dup3\n        /* \"#utility.yul\":3258:3282   */\n      tag_44\n      jump\t// in\n    tag_96:\n        /* \"#utility.yul\":3247:3282   */\n      swap1\n      pop\n        /* \"#utility.yul\":3192:3288   */\n      swap2\n      swap1\n      pop\n      jump\t// out\n        /* \"#utility.yul\":3294:3412   */\n    tag_46:\n        /* \"#utility.yul\":3381:3405   */\n      tag_98\n        /* \"#utility.yul\":3399:3404   */\n      dup2\n        /* \"#utility.yul\":3381:3405   */\n      tag_45\n      jump\t// in\n    tag_98:\n        /* \"#utility.yul\":3376:3379   */\n      dup3\n        /* \"#utility.yul\":3369:3406   */\n      mstore\n        /* \"#utility.yul\":3294:3412   */\n      pop\n      pop\n      jump\t// out\n        /* \"#utility.yul\":3418:3640   */\n    tag_12:\n        /* \"#utility.yul\":3511:3515   */\n      0x00\n        /* \"#utility.yul\":3549:3551   */\n      0x20\n        /* \"#utility.yul\":3538:3547   */\n      dup3\n        /* \"#utility.yul\":3534:3552   */\n      add\n        /* \"#utility.yul\":3526:3552   */\n      swap1\n      pop\n        /* \"#utility.yul\":3562:3633   */\n      tag_100\n        /* \"#utility.yul\":3630:3631   */\n      0x00\n        /* \"#utility.yul\":3619:3628   */\n      dup4\n        /* \"#utility.yul\":3615:3632   */\n      add\n        /* \"#utility.yul\":3606:3612   */\n      dup5\n        /* \"#utility.yul\":3562:3633   */\n      tag_46\n      jump\t// in\n    tag_100:\n        /* \"#utility.yul\":3418:3640   */\n      swap3\n      swap2\n      pop\n      pop\n      jump\t// out\n        /* \"#utility.yul\":3646:3768   */\n    tag_47:\n        /* \"#utility.yul\":3719:3743   */\n      tag_102\n        /* \"#utility.yul\":3737:3742   */\n      dup2\n        /* \"#utility.yul\":3719:3743   */\n      tag_45\n      jump\t// in\n    tag_102:\n        /* \"#utility.yul\":3712:3717   */\n      dup2\n        /* \"#utility.yul\":3709:3744   */\n      eq\n        /* \"#utility.yul\":3699:3762   */\n      tag_103\n      jumpi\n        /* \"#utility.yul\":3758:3759   */\n      0x00\n        /* \"#utility.yul\":3755:3756   */\n      dup1\n        /* \"#utility.yul\":3748:3760   */\n      revert\n        /* \"#utility.yul\":3699:3762   */\n    tag_103:\n        /* \"#utility.yul\":3646:3768   */\n      pop\n      jump\t// out\n        /* \"#utility.yul\":3774:3913   */\n    tag_48:\n        /* \"#utility.yul\":3820:3825   */\n      0x00\n        /* \"#utility.yul\":3858:3864   */\n      dup2\n        /* \"#utility.yul\":3845:3865   */\n      calldataload\n        /* \"#utility.yul\":3836:3865   */\n      swap1\n      pop\n        /* \"#utility.yul\":3874:3907   */\n      tag_105\n        /* \"#utility.yul\":3901:3906   */\n      dup2\n        /* \"#utility.yul\":3874:3907   */\n      tag_47\n      jump\t// in\n    tag_105:\n        /* \"#utility.yul\":3774:3913   */\n      swap3\n      swap2\n      pop\n      pop\n      jump\t// out\n        /* \"#utility.yul\":3919:4571   */\n    tag_15:\n        /* \"#utility.yul\":3996:4002   */\n      0x00\n        /* \"#utility.yul\":4004:4010   */\n      dup1\n        /* \"#utility.yul\":4053:4055   */\n      0x40\n        /* \"#utility.yul\":4041:4050   */\n      dup4\n        /* \"#utility.yul\":4032:4039   */\n      dup6\n        /* \"#utility.yul\":4028:4051   */\n      sub\n        /* \"#utility.yul\":4024:4056   */\n      slt\n        /* \"#utility.yul\":4021:4140   */\n      iszero\n      tag_107\n      jumpi\n        /* \"#utility.yul\":4059:4138   */\n      tag_108\n      tag_32\n      jump\t// in\n    tag_108:\n        /* \"#utility.yul\":4021:4140   */\n    tag_107:\n        /* \"#utility.yul\":4179:4180   */\n      0x00\n        /* \"#utility.yul\":4204:4257   */\n      tag_109\n        /* \"#utility.yul\":4249:4256   */\n      dup6\n        /* \"#utility.yul\":4240:4246   */\n      dup3\n        /* \"#utility.yul\":4229:4238   */\n      dup7\n        /* \"#utility.yul\":4225:4247   */\n      add\n        /* \"#utility.yul\":4204:4257   */\n      tag_48\n      jump\t// in\n    tag_109:\n        /* \"#utility.yul\":4194:4257   */\n      swap3\n      pop\n        /* \"#utility.yul\":4150:4267   */\n      pop\n        /* \"#utility.yul\":4334:4336   */\n      0x20\n        /* \"#utility.yul\":4323:4332   */\n      dup4\n        /* \"#utility.yul\":4319:4337   */\n      add\n        /* \"#utility.yul\":4306:4338   */\n      calldataload\n        /* \"#utility.yul\":4365:4383   */\n      0xffffffffffffffff\n        /* \"#utility.yul\":4357:4363   */\n      dup2\n        /* \"#utility.yul\":4354:4384   */\n      gt\n        /* \"#utility.yul\":4351:4468   */\n      iszero\n      tag_110\n      jumpi\n        /* \"#utility.yul\":4387:4466   */\n      tag_111\n      tag_33\n      jump\t// in\n    tag_111:\n        /* \"#utility.yul\":4351:4468   */\n    tag_110:\n        /* \"#utility.yul\":4492:4554   */\n      tag_112\n        /* \"#utility.yul\":4546:4553   */\n      dup6\n        /* \"#utility.yul\":4537:4543   */\n      dup3\n        /* \"#utility.yul\":4526:4535   */\n      dup7\n        /* \"#utility.yul\":4522:4544   */\n      add\n        /* \"#utility.yul\":4492:4554   */\n      tag_43\n      jump\t// in\n    tag_112:\n        /* \"#utility.yul\":4482:4554   */\n      swap2\n      pop\n        /* \"#utility.yul\":4277:4564   */\n      pop\n        /* \"#utility.yul\":3919:4571   */\n      swap3\n      pop\n      swap3\n      swap1\n      pop\n      jump\t// out\n        /* \"#utility.yul\":4577:4746   */\n    tag_49:\n        /* \"#utility.yul\":4661:4672   */\n      0x00\n        /* \"#utility.yul\":4695:4701   */\n      dup3\n        /* \"#utility.yul\":4690:4693   */\n      dup3\n        /* \"#utility.yul\":4683:4702   */\n      mstore\n        /* \"#utility.yul\":4735:4739   */\n      0x20\n        /* \"#utility.yul\":4730:4733   */\n      dup3\n        /* \"#utility.yul\":4726:4740   */\n      add\n        /* \"#utility.yul\":4711:4740   */\n      swap1\n      pop\n        /* \"#utility.yul\":4577:4746   */\n      swap3\n      swap2\n      pop\n      pop\n      jump\t// out\n        /* \"#utility.yul\":4752:4915   */\n    tag_50:\n        /* \"#utility.yul\":4892:4907   */\n      0x6465706c6f79206661696c656400000000000000000000000000000000000000\n        /* \"#utility.yul\":4888:4889   */\n      0x00\n        /* \"#utility.yul\":4880:4886   */\n      dup3\n        /* \"#utility.yul\":4876:4890   */\n      add\n        /* \"#utility.yul\":4869:4908   */\n      mstore\n        /* \"#utility.yul\":4752:4915   */\n      pop\n      jump\t// out\n        /* \"#utility.yul\":4921:5287   */\n    tag_51:\n        /* \"#utility.yul\":5063:5066   */\n      0x00\n        /* \"#utility.yul\":5084:5151   */\n      tag_116\n        /* \"#utility.yul\":5148:5150   */\n      0x0d\n        /* \"#utility.yul\":5143:5146   */\n      dup4\n        /* \"#utility.yul\":5084:5151   */\n      tag_49\n      jump\t// in\n    tag_116:\n        /* \"#utility.yul\":5077:5151   */\n      swap2\n      pop\n        /* \"#utility.yul\":5160:5253   */\n      tag_117\n        /* \"#utility.yul\":5249:5252   */\n      dup3\n        /* \"#utility.yul\":5160:5253   */\n      tag_50\n      jump\t// in\n    tag_117:\n        /* \"#utility.yul\":5278:5280   */\n      0x20\n        /* \"#utility.yul\":5273:5276   */\n      dup3\n        /* \"#utility.yul\":5269:5281   */\n      add\n        /* \"#utility.yul\":5262:5281   */\n      swap1\n      pop\n        /* \"#utility.yul\":4921:5287   */\n      swap2\n      swap1\n      pop\n      jump\t// out\n        /* \"#utility.yul\":5293:5712   */\n    tag_20:\n        /* \"#utility.yul\":5459:5463   */\n      0x00\n        /* \"#utility.yul\":5497:5499   */\n      0x20\n        /* \"#utility.yul\":5486:5495   */\n      dup3\n        /* \"#utility.yul\":5482:5500   */\n      add\n        /* \"#utility.yul\":5474:5500   */\n      swap1\n      pop\n        /* \"#utility.yul\":5546:5555   */\n      dup2\n        /* \"#utility.yul\":5540:5544   */\n      dup2\n        /* \"#utility.yul\":5536:5556   */\n      sub\n        /* \"#utility.yul\":5532:5533   */\n      0x00\n        /* \"#utility.yul\":5521:5530   */\n      dup4\n        /* \"#utility.yul\":5517:5534   */\n      add\n        /* \"#utility.yul\":5510:5557   */\n      mstore\n        /* \"#utility.yul\":5574:5705   */\n      tag_119\n        /* \"#utility.yul\":5700:5704   */\n      dup2\n        /* \"#utility.yul\":5574:5705   */\n      tag_51\n      jump\t// in\n    tag_119:\n        /* \"#utility.yul\":5566:5705   */\n      swap1\n      pop\n        /* \"#utility.yul\":5293:5712   */\n      swap2\n      swap1\n      pop\n      jump\t// out\n        /* \"#utility.yul\":5718:5816   */\n    tag_52:\n        /* \"#utility.yul\":5769:5775   */\n      0x00\n        /* \"#utility.yul\":5803:5808   */\n      dup2\n        /* \"#utility.yul\":5797:5809   */\n      mload\n        /* \"#utility.yul\":5787:5809   */\n      swap1\n      pop\n        /* \"#utility.yul\":5718:5816   */\n      swap2\n      swap1\n      pop\n      jump\t// out\n        /* \"#utility.yul\":5822:5969   */\n    tag_53:\n        /* \"#utility.yul\":5923:5934   */\n      0x00\n        /* \"#utility.yul\":5960:5963   */\n      dup2\n        /* \"#utility.yul\":5945:5963   */\n      swap1\n      pop\n        /* \"#utility.yul\":5822:5969   */\n      swap3\n      swap2\n      pop\n      pop\n      jump\t// out\n        /* \"#utility.yul\":5975:6221   */\n    tag_54:\n        /* \"#utility.yul\":6056:6057   */\n      0x00\n        /* \"#utility.yul\":6066:6179   */\n    tag_123:\n        /* \"#utility.yul\":6080:6086   */\n      dup4\n        /* \"#utility.yul\":6077:6078   */\n      dup2\n        /* \"#utility.yul\":6074:6087   */\n      lt\n        /* \"#utility.yul\":6066:6179   */\n      iszero\n      tag_125\n      jumpi\n        /* \"#utility.yul\":6165:6166   */\n      dup1\n        /* \"#utility.yul\":6160:6163   */\n      dup3\n        /* \"#utility.yul\":6156:6167   */\n      add\n        /* \"#utility.yul\":6150:6168   */\n      mload\n        /* \"#utility.yul\":6146:6147   */\n      dup2\n        /* \"#utility.yul\":6141:6144   */\n      dup5\n        /* \"#utility.yul\":6137:6148   */\n      add\n        /* \"#utility.yul\":6130:6169   */\n      mstore\n        /* \"#utility.yul\":6102:6104   */\n      0x20\n        /* \"#utility.yul\":6099:6100   */\n      dup2\n        /* \"#utility.yul\":6095:6105   */\n      add\n        /* \"#utility.yul\":6090:6105   */\n      swap1\n      pop\n        /* \"#utility.yul\":6066:6179   */\n      jump(tag_123)\n    tag_125:\n        /* \"#utility.yul\":6213:6214   */\n      0x00\n        /* \"#utility.yul\":6204:6210   */\n      dup5\n        /* \"#utility.yul\":6199:6202   */\n      dup5\n        /* \"#utility.yul\":6195:6211   */\n      add\n        /* \"#utility.yul\":6188:6215   */\n      mstore\n        /* \"#utility.yul\":6037:6221   */\n      pop\n        /* \"#utility.yul\":5975:6221   */\n      pop\n      pop\n      pop\n      jump\t// out\n        /* \"#utility.yul\":6227:6613   */\n    tag_55:\n        /* \"#utility.yul\":6331:6334   */\n      0x00\n        /* \"#utility.yul\":6359:6397   */\n      tag_127\n        /* \"#utility.yul\":6391:6396   */\n      dup3\n        /* \"#utility.yul\":6359:6397   */\n      tag_52\n      jump\t// in\n    tag_127:\n        /* \"#utility.yul\":6413:6501   */\n      tag_128\n        /* \"#utility.yul\":6494:6500   */\n      dup2\n        /* \"#utility.yul\":6489:6492   */\n      dup6\n        /* \"#utility.yul\":6413:6501   */\n      tag_53\n      jump\t// in\n    tag_128:\n        /* \"#utility.yul\":6406:6501   */\n      swap4\n      pop\n        /* \"#utility.yul\":6510:6575   */\n      tag_129\n        /* \"#utility.yul\":6568:6574   */\n      dup2\n        /* \"#utility.yul\":6563:6566   */\n      dup6\n        /* \"#utility.yul\":6556:6560   */\n      0x20\n        /* \"#utility.yul\":6549:6554   */\n      dup7\n        /* \"#utility.yul\":6545:6561   */\n      add\n        /* \"#utility.yul\":6510:6575   */\n      tag_54\n      jump\t// in\n    tag_129:\n        /* \"#utility.yul\":6600:6606   */\n      dup1\n        /* \"#utility.yul\":6595:6598   */\n      dup5\n        /* \"#utility.yul\":6591:6607   */\n      add\n        /* \"#utility.yul\":6584:6607   */\n      swap2\n      pop\n        /* \"#utility.yul\":6335:6613   */\n      pop\n        /* \"#utility.yul\":6227:6613   */\n      swap3\n      swap2\n      pop\n      pop\n      jump\t// out\n        /* \"#utility.yul\":6619:6890   */\n    tag_24:\n        /* \"#utility.yul\":6749:6752   */\n      0x00\n        /* \"#utility.yul\":6771:6864   */\n      tag_131\n        /* \"#utility.yul\":6860:6863   */\n      dup3\n        /* \"#utility.yul\":6851:6857   */\n      dup5\n        /* \"#utility.yul\":6771:6864   */\n      tag_55\n      jump\t// in\n    tag_131:\n        /* \"#utility.yul\":6764:6864   */\n      swap2\n      pop\n        /* \"#utility.yul\":6881:6884   */\n      dup2\n        /* \"#utility.yul\":6874:6884   */\n      swap1\n      pop\n        /* \"#utility.yul\":6619:6890   */\n      swap3\n      swap2\n      pop\n      pop\n      jump\t// out\n        /* \"#utility.yul\":6896:7052   */\n    tag_56:\n        /* \"#utility.yul\":7036:7044   */\n      0x6661696c65640000000000000000000000000000000000000000000000000000\n        /* \"#utility.yul\":7032:7033   */\n      0x00\n        /* \"#utility.yul\":7024:7030   */\n      dup3\n        /* \"#utility.yul\":7020:7034   */\n      add\n        /* \"#utility.yul\":7013:7045   */\n      mstore\n        /* \"#utility.yul\":6896:7052   */\n      pop\n      jump\t// out\n        /* \"#utility.yul\":7058:7423   */\n    tag_57:\n        /* \"#utility.yul\":7200:7203   */\n      0x00\n        /* \"#utility.yul\":7221:7287   */\n      tag_134\n        /* \"#utility.yul\":7285:7286   */\n      0x06\n        /* \"#utility.yul\":7280:7283   */\n      dup4\n        /* \"#utility.yul\":7221:7287   */\n      tag_49\n      jump\t// in\n    tag_134:\n        /* \"#utility.yul\":7214:7287   */\n      swap2\n      pop\n        /* \"#utility.yul\":7296:7389   */\n      tag_135\n        /* \"#utility.yul\":7385:7388   */\n      dup3\n        /* \"#utility.yul\":7296:7389   */\n      tag_56\n      jump\t// in\n    tag_135:\n        /* \"#utility.yul\":7414:7416   */\n      0x20\n        /* \"#utility.yul\":7409:7412   */\n      dup3\n        /* \"#utility.yul\":7405:7417   */\n      add\n        /* \"#utility.yul\":7398:7417   */\n      swap1\n      pop\n        /* \"#utility.yul\":7058:7423   */\n      swap2\n      swap1\n      pop\n      jump\t// out\n        /* \"#utility.yul\":7429:7848   */\n    tag_30:\n        /* \"#utility.yul\":7595:7599   */\n      0x00\n        /* \"#utility.yul\":7633:7635   */\n      0x20\n        /* \"#utility.yul\":7622:7631   */\n      dup3\n        /* \"#utility.yul\":7618:7636   */\n      add\n        /* \"#utility.yul\":7610:7636   */\n      swap1\n      pop\n        /* \"#utility.yul\":7682:7691   */\n      dup2\n        /* \"#utility.yul\":7676:7680   */\n      dup2\n        /* \"#utility.yul\":7672:7692   */\n      sub\n        /* \"#utility.yul\":7668:7669   */\n      0x00\n        /* \"#utility.yul\":7657:7666   */\n      dup4\n        /* \"#utility.yul\":7653:7670   */\n      add\n        /* \"#utility.yul\":7646:7693   */\n      mstore\n        /* \"#utility.yul\":7710:7841   */\n      tag_137\n        /* \"#utility.yul\":7836:7840   */\n      dup2\n        /* \"#utility.yul\":7710:7841   */\n      tag_57\n      jump\t// in\n    tag_137:\n        /* \"#utility.yul\":7702:7841   */\n      swap1\n      pop\n        /* \"#utility.yul\":7429:7848   */\n      swap2\n      swap1\n      pop\n      jump\t// out\n\n    auxdata: 0xa264697066735822122040cb965c94673da52c5ff637219f6deda84b094c5ba2abc660ad0ed615867c4864736f6c63430008120033\n}\n",
				"bytecode": {
					"linkReferences": {},
					"object": "608060405234801561001057600080fd5b50610622806100206000396000f3fe60806040526004361061002c5760003560e01c8062774360146100385780631cff79cd1461006857610033565b3661003357005b600080fd5b610052600480360381019061004d919061034e565b610084565b60405161005f91906103d8565b60405180910390f35b610082600480360381019061007d919061041f565b61013b565b005b600081516020830134f09050600073ffffffffffffffffffffffffffffffffffffffff168173ffffffffffffffffffffffffffffffffffffffff16036100ff576040517f08c379a00000000000000000000000000000000000000000000000000000000081526004016100f6906104d8565b60405180910390fd5b7f55ea6c6b31543d8e2ec6a72f71a79c0f4b72ed0d4757172b043d8f4f4cd848488160405161012e91906103d8565b60405180910390a1919050565b60008273ffffffffffffffffffffffffffffffffffffffff1634620186a090846040516101689190610569565b600060405180830381858888f193505050503d80600081146101a6576040519150601f19603f3d011682016040523d82523d6000602084013e6101ab565b606091505b50509050806101ef576040517f08c379a00000000000000000000000000000000000000000000000000000000081526004016101e6906105cc565b60405180910390fd5b505050565b6000604051905090565b600080fd5b600080fd5b600080fd5b600080fd5b6000601f19601f8301169050919050565b7f4e487b7100000000000000000000000000000000000000000000000000000000600052604160045260246000fd5b61025b82610212565b810181811067ffffffffffffffff8211171561027a57610279610223565b5b80604052505050565b600061028d6101f4565b90506102998282610252565b919050565b600067ffffffffffffffff8211156102b9576102b8610223565b5b6102c282610212565b9050602081019050919050565b82818337600083830152505050565b60006102f16102ec8461029e565b610283565b90508281526020810184848401111561030d5761030c61020d565b5b6103188482856102cf565b509392505050565b600082601f83011261033557610334610208565b5b81356103458482602086016102de565b91505092915050565b600060208284031215610364576103636101fe565b5b600082013567ffffffffffffffff81111561038257610381610203565b5b61038e84828501610320565b91505092915050565b600073ffffffffffffffffffffffffffffffffffffffff82169050919050565b60006103c282610397565b9050919050565b6103d2816103b7565b82525050565b60006020820190506103ed60008301846103c9565b92915050565b6103fc816103b7565b811461040757600080fd5b50565b600081359050610419816103f3565b92915050565b60008060408385031215610436576104356101fe565b5b60006104448582860161040a565b925050602083013567ffffffffffffffff81111561046557610464610203565b5b61047185828601610320565b9150509250929050565b600082825260208201905092915050565b7f6465706c6f79206661696c656400000000000000000000000000000000000000600082015250565b60006104c2600d8361047b565b91506104cd8261048c565b602082019050919050565b600060208201905081810360008301526104f1816104b5565b9050919050565b600081519050919050565b600081905092915050565b60005b8381101561052c578082015181840152602081019050610511565b60008484015250505050565b6000610543826104f8565b61054d8185610503565b935061055d81856020860161050e565b80840191505092915050565b60006105758284610538565b915081905092915050565b7f6661696c65640000000000000000000000000000000000000000000000000000600082015250565b60006105b660068361047b565b91506105c182610580565b602082019050919050565b600060208201905081810360008301526105e5816105a9565b905091905056fea264697066735822122040cb965c94673da52c5ff637219f6deda84b094c5ba2abc660ad0ed615867c4864736f6c63430008120033",
					"opcodes": "PUSH1 0x80 PUSH1 0x40 MSTORE CALLVALUE DUP1 ISZERO PUSH2 0x10 JUMPI PUSH1 0x0 DUP1 REVERT JUMPDEST POP PUSH2 0x622 DUP1 PUSH2 0x20 PUSH1 0x0 CODECOPY PUSH1 0x0 RETURN INVALID PUSH1 0x80 PUSH1 0x40 MSTORE PUSH1 0x4 CALLDATASIZE LT PUSH2 0x2C JUMPI PUSH1 0x0 CALLDATALOAD PUSH1 0xE0 SHR DUP1 PUSH3 0x774360 EQ PUSH2 0x38 JUMPI DUP1 PUSH4 0x1CFF79CD EQ PUSH2 0x68 JUMPI PUSH2 0x33 JUMP JUMPDEST CALLDATASIZE PUSH2 0x33 JUMPI STOP JUMPDEST PUSH1 0x0 DUP1 REVERT JUMPDEST PUSH2 0x52 PUSH1 0x4 DUP1 CALLDATASIZE SUB DUP2 ADD SWAP1 PUSH2 0x4D SWAP2 SWAP1 PUSH2 0x34E JUMP JUMPDEST PUSH2 0x84 JUMP JUMPDEST PUSH1 0x40 MLOAD PUSH2 0x5F SWAP2 SWAP1 PUSH2 0x3D8 JUMP JUMPDEST PUSH1 0x40 MLOAD DUP1 SWAP2 SUB SWAP1 RETURN JUMPDEST PUSH2 0x82 PUSH1 0x4 DUP1 CALLDATASIZE SUB DUP2 ADD SWAP1 PUSH2 0x7D SWAP2 SWAP1 PUSH2 0x41F JUMP JUMPDEST PUSH2 0x13B JUMP JUMPDEST STOP JUMPDEST PUSH1 0x0 DUP2 MLOAD PUSH1 0x20 DUP4 ADD CALLVALUE CREATE SWAP1 POP PUSH1 0x0 PUSH20 0xFFFFFFFFFFFFFFFFFFFFFFFFFFFFFFFFFFFFFFFF AND DUP2 PUSH20 0xFFFFFFFFFFFFFFFFFFFFFFFFFFFFFFFFFFFFFFFF AND SUB PUSH2 0xFF JUMPI PUSH1 0x40 MLOAD PUSH32 0x8C379A000000000000000000000000000000000000000000000000000000000 DUP2 MSTORE PUSH1 0x4 ADD PUSH2 0xF6 SWAP1 PUSH2 0x4D8 JUMP JUMPDEST PUSH1 0x40 MLOAD DUP1 SWAP2 SUB SWAP1 REVERT JUMPDEST PUSH32 0x55EA6C6B31543D8E2EC6A72F71A79C0F4B72ED0D4757172B043D8F4F4CD84848 DUP2 PUSH1 0x40 MLOAD PUSH2 0x12E SWAP2 SWAP1 PUSH2 0x3D8 JUMP JUMPDEST PUSH1 0x40 MLOAD DUP1 SWAP2 SUB SWAP1 LOG1 SWAP2 SWAP1 POP JUMP JUMPDEST PUSH1 0x0 DUP3 PUSH20 0xFFFFFFFFFFFFFFFFFFFFFFFFFFFFFFFFFFFFFFFF AND CALLVALUE PUSH3 0x186A0 SWAP1 DUP5 PUSH1 0x40 MLOAD PUSH2 0x168 SWAP2 SWAP1 PUSH2 0x569 JUMP JUMPDEST PUSH1 0x0 PUSH1 0x40 MLOAD DUP1 DUP4 SUB DUP2 DUP6 DUP9 DUP9 CALL SWAP4 POP POP POP POP RETURNDATASIZE DUP1 PUSH1 0x0 DUP2 EQ PUSH2 0x1A6 JUMPI PUSH1 0x40 MLOAD SWAP2 POP PUSH1 0x1F NOT PUSH1 0x3F RETURNDATASIZE ADD AND DUP3 ADD PUSH1 0x40 MSTORE RETURNDATASIZE DUP3 MSTORE RETURNDATASIZE PUSH1 0x0 PUSH1 0x20 DUP5 ADD RETURNDATACOPY PUSH2 0x1AB JUMP JUMPDEST PUSH1 0x60 SWAP2 POP JUMPDEST POP POP SWAP1 POP DUP1 PUSH2 0x1EF JUMPI PUSH1 0x40 MLOAD PUSH32 0x8C379A000000000000000000000000000000000000000000000000000000000 DUP2 MSTORE PUSH1 0x4 ADD PUSH2 0x1E6 SWAP1 PUSH2 0x5CC JUMP JUMPDEST PUSH1 0x40 MLOAD DUP1 SWAP2 SUB SWAP1 REVERT JUMPDEST POP POP POP JUMP JUMPDEST PUSH1 0x0 PUSH1 0x40 MLOAD SWAP1 POP SWAP1 JUMP JUMPDEST PUSH1 0x0 DUP1 REVERT JUMPDEST PUSH1 0x0 DUP1 REVERT JUMPDEST PUSH1 0x0 DUP1 REVERT JUMPDEST PUSH1 0x0 DUP1 REVERT JUMPDEST PUSH1 0x0 PUSH1 0x1F NOT PUSH1 0x1F DUP4 ADD AND SWAP1 POP SWAP2 SWAP1 POP JUMP JUMPDEST PUSH32 0x4E487B7100000000000000000000000000000000000000000000000000000000 PUSH1 0x0 MSTORE PUSH1 0x41 PUSH1 0x4 MSTORE PUSH1 0x24 PUSH1 0x0 REVERT JUMPDEST PUSH2 0x25B DUP3 PUSH2 0x212 JUMP JUMPDEST DUP2 ADD DUP2 DUP2 LT PUSH8 0xFFFFFFFFFFFFFFFF DUP3 GT OR ISZERO PUSH2 0x27A JUMPI PUSH2 0x279 PUSH2 0x223 JUMP JUMPDEST JUMPDEST DUP1 PUSH1 0x40 MSTORE POP POP POP JUMP JUMPDEST PUSH1 0x0 PUSH2 0x28D PUSH2 0x1F4 JUMP JUMPDEST SWAP1 POP PUSH2 0x299 DUP3 DUP3 PUSH2 0x252 JUMP JUMPDEST SWAP2 SWAP1 POP JUMP JUMPDEST PUSH1 0x0 PUSH8 0xFFFFFFFFFFFFFFFF DUP3 GT ISZERO PUSH2 0x2B9 JUMPI PUSH2 0x2B8 PUSH2 0x223 JUMP JUMPDEST JUMPDEST PUSH2 0x2C2 DUP3 PUSH2 0x212 JUMP JUMPDEST SWAP1 POP PUSH1 0x20 DUP2 ADD SWAP1 POP SWAP2 SWAP1 POP JUMP JUMPDEST DUP3 DUP2 DUP4 CALLDATACOPY PUSH1 0x0 DUP4 DUP4 ADD MSTORE POP POP POP JUMP JUMPDEST PUSH1 0x0 PUSH2 0x2F1 PUSH2 0x2EC DUP5 PUSH2 0x29E JUMP JUMPDEST PUSH2 0x283 JUMP JUMPDEST SWAP1 POP DUP3 DUP2 MSTORE PUSH1 0x20 DUP2 ADD DUP5 DUP5 DUP5 ADD GT ISZERO PUSH2 0x30D JUMPI PUSH2 0x30C PUSH2 0x20D JUMP JUMPDEST JUMPDEST PUSH2 0x318 DUP5 DUP3 DUP6 PUSH2 0x2CF JUMP JUMPDEST POP SWAP4 SWAP3 POP POP POP JUMP JUMPDEST PUSH1 0x0 DUP3 PUSH1 0x1F DUP4 ADD SLT PUSH2 0x335 JUMPI PUSH2 0x334 PUSH2 0x208 JUMP JUMPDEST JUMPDEST DUP2 CALLDATALOAD PUSH2 0x345 DUP5 DUP3 PUSH1 0x20 DUP7 ADD PUSH2 0x2DE JUMP JUMPDEST SWAP2 POP POP SWAP3 SWAP2 POP POP JUMP JUMPDEST PUSH1 0x0 PUSH1 0x20 DUP3 DUP5 SUB SLT ISZERO PUSH2 0x364 JUMPI PUSH2 0x363 PUSH2 0x1FE JUMP JUMPDEST JUMPDEST PUSH1 0x0 DUP3 ADD CALLDATALOAD PUSH8 0xFFFFFFFFFFFFFFFF DUP2 GT ISZERO PUSH2 0x382 JUMPI PUSH2 0x381 PUSH2 0x203 JUMP JUMPDEST JUMPDEST PUSH2 0x38E DUP5 DUP3 DUP6 ADD PUSH2 0x320 JUMP JUMPDEST SWAP2 POP POP SWAP3 SWAP2 POP POP JUMP JUMPDEST PUSH1 0x0 PUSH20 0xFFFFFFFFFFFFFFFFFFFFFFFFFFFFFFFFFFFFFFFF DUP3 AND SWAP1 POP SWAP2 SWAP1 POP JUMP JUMPDEST PUSH1 0x0 PUSH2 0x3C2 DUP3 PUSH2 0x397 JUMP JUMPDEST SWAP1 POP SWAP2 SWAP1 POP JUMP JUMPDEST PUSH2 0x3D2 DUP2 PUSH2 0x3B7 JUMP JUMPDEST DUP3 MSTORE POP POP JUMP JUMPDEST PUSH1 0x0 PUSH1 0x20 DUP3 ADD SWAP1 POP PUSH2 0x3ED PUSH1 0x0 DUP4 ADD DUP5 PUSH2 0x3C9 JUMP JUMPDEST SWAP3 SWAP2 POP POP JUMP JUMPDEST PUSH2 0x3FC DUP2 PUSH2 0x3B7 JUMP JUMPDEST DUP2 EQ PUSH2 0x407 JUMPI PUSH1 0x0 DUP1 REVERT JUMPDEST POP JUMP JUMPDEST PUSH1 0x0 DUP2 CALLDATALOAD SWAP1 POP PUSH2 0x419 DUP2 PUSH2 0x3F3 JUMP JUMPDEST SWAP3 SWAP2 POP POP JUMP JUMPDEST PUSH1 0x0 DUP1 PUSH1 0x40 DUP4 DUP6 SUB SLT ISZERO PUSH2 0x436 JUMPI PUSH2 0x435 PUSH2 0x1FE JUMP JUMPDEST JUMPDEST PUSH1 0x0 PUSH2 0x444 DUP6 DUP3 DUP7 ADD PUSH2 0x40A JUMP JUMPDEST SWAP3 POP POP PUSH1 0x20 DUP4 ADD CALLDATALOAD PUSH8 0xFFFFFFFFFFFFFFFF DUP2 GT ISZERO PUSH2 0x465 JUMPI PUSH2 0x464 PUSH2 0x203 JUMP JUMPDEST JUMPDEST PUSH2 0x471 DUP6 DUP3 DUP7 ADD PUSH2 0x320 JUMP JUMPDEST SWAP2 POP POP SWAP3 POP SWAP3 SWAP1 POP JUMP JUMPDEST PUSH1 0x0 DUP3 DUP3 MSTORE PUSH1 0x20 DUP3 ADD SWAP1 POP SWAP3 SWAP2 POP POP JUMP JUMPDEST PUSH32 0x6465706C6F79206661696C656400000000000000000000000000000000000000 PUSH1 0x0 DUP3 ADD MSTORE POP JUMP JUMPDEST PUSH1 0x0 PUSH2 0x4C2 PUSH1 0xD DUP4 PUSH2 0x47B JUMP JUMPDEST SWAP2 POP PUSH2 0x4CD DUP3 PUSH2 0x48C JUMP JUMPDEST PUSH1 0x20 DUP3 ADD SWAP1 POP SWAP2 SWAP1 POP JUMP JUMPDEST PUSH1 0x0 PUSH1 0x20 DUP3 ADD SWAP1 POP DUP2 DUP2 SUB PUSH1 0x0 DUP4 ADD MSTORE PUSH2 0x4F1 DUP2 PUSH2 0x4B5 JUMP JUMPDEST SWAP1 POP SWAP2 SWAP1 POP JUMP JUMPDEST PUSH1 0x0 DUP2 MLOAD SWAP1 POP SWAP2 SWAP1 POP JUMP JUMPDEST PUSH1 0x0 DUP2 SWAP1 POP SWAP3 SWAP2 POP POP JUMP JUMPDEST PUSH1 0x0 JUMPDEST DUP4 DUP2 LT ISZERO PUSH2 0x52C JUMPI DUP1 DUP3 ADD MLOAD DUP2 DUP5 ADD MSTORE PUSH1 0x20 DUP2 ADD SWAP1 POP PUSH2 0x511 JUMP JUMPDEST PUSH1 0x0 DUP5 DUP5 ADD MSTORE POP POP POP POP JUMP JUMPDEST PUSH1 0x0 PUSH2 0x543 DUP3 PUSH2 0x4F8 JUMP JUMPDEST PUSH2 0x54D DUP2 DUP6 PUSH2 0x503 JUMP JUMPDEST SWAP4 POP PUSH2 0x55D DUP2 DUP6 PUSH1 0x20 DUP7 ADD PUSH2 0x50E JUMP JUMPDEST DUP1 DUP5 ADD SWAP2 POP POP SWAP3 SWAP2 POP POP JUMP JUMPDEST PUSH1 0x0 PUSH2 0x575 DUP3 DUP5 PUSH2 0x538 JUMP JUMPDEST SWAP2 POP DUP2 SWAP1 POP SWAP3 SWAP2 POP POP JUMP JUMPDEST PUSH32 0x6661696C65640000000000000000000000000000000000000000000000000000 PUSH1 0x0 DUP3 ADD MSTORE POP JUMP JUMPDEST PUSH1 0x0 PUSH2 0x5B6 PUSH1 0x6 DUP4 PUSH2 0x47B JUMP JUMPDEST SWAP2 POP PUSH2 0x5C1 DUP3 PUSH2 0x580 JUMP JUMPDEST PUSH1 0x20 DUP3 ADD SWAP1 POP SWAP2 SWAP1 POP JUMP JUMPDEST PUSH1 0x0 PUSH1 0x20 DUP3 ADD SWAP1 POP DUP2 DUP2 SUB PUSH1 0x0 DUP4 ADD MSTORE PUSH2 0x5E5 DUP2 PUSH2 0x5A9 JUMP JUMPDEST SWAP1 POP SWAP2 SWAP1 POP JUMP INVALID LOG2 PUSH5 0x6970667358 0x22 SLT KECCAK256 BLOCKHASH 0xCB SWAP7 0x5C SWAP5 PUSH8 0x3DA52C5FF637219F PUSH14 0xEDA84B094C5BA2ABC660AD0ED615 DUP7 PUSH29 0x4864736F6C634300081200330000000000000000000000000000000000 "
				},
				"gasEstimates": {
					"creation": {
						"codeDepositCost": "314000",
						"executionCost": "355",
						"totalCost": "314355"
					},
					"external": {
						"deploy(bytes)": "infinite",
						"execute(address,bytes)": "infinite"
					}
				},
				"methodIdentifiers": {
					"deploy(bytes)": "00774360",
					"execute(address,bytes)": "1cff79cd"
				}
			},
			"storageLayout": {
				"storage": [],
				"types": null
			},
			"userdoc": {
				"kind": "user",
				"methods": {},
				"version": 1
			}
		}
	}
}